{"abi":[{"type":"constructor","inputs":[],"stateMutability":"nonpayable"},{"type":"function","name":"DEFAULT_ADMIN_ROLE","inputs":[],"outputs":[{"name":"","type":"bytes32","internalType":"bytes32"}],"stateMutability":"view"},{"type":"function","name":"PAUSER_ROLE","inputs":[],"outputs":[{"name":"","type":"bytes32","internalType":"bytes32"}],"stateMutability":"view"},{"type":"function","name":"WITHDRAWAL_DELAY","inputs":[],"outputs":[{"name":"","type":"uint256","internalType":"uint256"}],"stateMutability":"view"},{"type":"function","name":"allowance","inputs":[{"name":"owner","type":"address","internalType":"address"},{"name":"spender","type":"address","internalType":"address"}],"outputs":[{"name":"","type":"uint256","internalType":"uint256"}],"stateMutability":"view"},{"type":"function","name":"approve","inputs":[{"name":"spender","type":"address","internalType":"address"},{"name":"value","type":"uint256","internalType":"uint256"}],"outputs":[{"name":"","type":"bool","internalType":"bool"}],"stateMutability":"nonpayable"},{"type":"function","name":"assetBalances","inputs":[{"name":"","type":"address","internalType":"address"}],"outputs":[{"name":"","type":"uint256","internalType":"uint256"}],"stateMutability":"view"},{"type":"function","name":"balanceAssets","inputs":[{"name":"assetList","type":"address[]","internalType":"contract IERC20[]"}],"outputs":[{"name":"","type":"uint256[]","internalType":"uint256[]"}],"stateMutability":"view"},{"type":"function","name":"balanceOf","inputs":[{"name":"account","type":"address","internalType":"address"}],"outputs":[{"name":"","type":"uint256","internalType":"uint256"}],"stateMutability":"view"},{"type":"function","name":"balanceQueuedAssets","inputs":[{"name":"assetList","type":"address[]","internalType":"contract IERC20[]"}],"outputs":[{"name":"","type":"uint256[]","internalType":"uint256[]"}],"stateMutability":"view"},{"type":"function","name":"calculateAmount","inputs":[{"name":"asset","type":"address","internalType":"contract IERC20"},{"name":"shares","type":"uint256","internalType":"uint256"}],"outputs":[{"name":"","type":"uint256","internalType":"uint256"}],"stateMutability":"view"},{"type":"function","name":"calculateShares","inputs":[{"name":"asset","type":"address","internalType":"contract IERC20"},{"name":"amount","type":"uint256","internalType":"uint256"}],"outputs":[{"name":"","type":"uint256","internalType":"uint256"}],"stateMutability":"view"},{"type":"function","name":"creditQueuedAssetBalances","inputs":[{"name":"assets","type":"address[]","internalType":"contract IERC20[]"},{"name":"amounts","type":"uint256[]","internalType":"uint256[]"}],"outputs":[],"stateMutability":"nonpayable"},{"type":"function","name":"decimals","inputs":[],"outputs":[{"name":"","type":"uint8","internalType":"uint8"}],"stateMutability":"view"},{"type":"function","name":"deposit","inputs":[{"name":"assets","type":"address[]","internalType":"contract IERC20[]"},{"name":"amounts","type":"uint256[]","internalType":"uint256[]"},{"name":"receiver","type":"address","internalType":"address"}],"outputs":[{"name":"","type":"uint256[]","internalType":"uint256[]"}],"stateMutability":"nonpayable"},{"type":"function","name":"fulfillWithdrawal","inputs":[{"name":"requestId","type":"bytes32","internalType":"bytes32"}],"outputs":[],"stateMutability":"nonpayable"},{"type":"function","name":"getRoleAdmin","inputs":[{"name":"role","type":"bytes32","internalType":"bytes32"}],"outputs":[{"name":"","type":"bytes32","internalType":"bytes32"}],"stateMutability":"view"},{"type":"function","name":"getUserWithdrawalRequests","inputs":[{"name":"user","type":"address","internalType":"address"}],"outputs":[{"name":"","type":"bytes32[]","internalType":"bytes32[]"}],"stateMutability":"view"},{"type":"function","name":"getWithdrawalRequest","inputs":[{"name":"requestId","type":"bytes32","internalType":"bytes32"}],"outputs":[{"name":"","type":"tuple","internalType":"struct ILiquidToken.WithdrawalRequest","components":[{"name":"user","type":"address","internalType":"address"},{"name":"assets","type":"address[]","internalType":"contract IERC20[]"},{"name":"shareAmounts","type":"uint256[]","internalType":"uint256[]"},{"name":"requestTime","type":"uint256","internalType":"uint256"},{"name":"fulfilled","type":"bool","internalType":"bool"}]}],"stateMutability":"view"},{"type":"function","name":"grantRole","inputs":[{"name":"role","type":"bytes32","internalType":"bytes32"},{"name":"account","type":"address","internalType":"address"}],"outputs":[],"stateMutability":"nonpayable"},{"type":"function","name":"hasRole","inputs":[{"name":"role","type":"bytes32","internalType":"bytes32"},{"name":"account","type":"address","internalType":"address"}],"outputs":[{"name":"","type":"bool","internalType":"bool"}],"stateMutability":"view"},{"type":"function","name":"initialize","inputs":[{"name":"init","type":"tuple","internalType":"struct ILiquidToken.Init","components":[{"name":"name","type":"string","internalType":"string"},{"name":"symbol","type":"string","internalType":"string"},{"name":"liquidTokenManager","type":"address","internalType":"contract ILiquidTokenManager"},{"name":"initialOwner","type":"address","internalType":"address"},{"name":"pauser","type":"address","internalType":"address"}]}],"outputs":[],"stateMutability":"nonpayable"},{"type":"function","name":"liquidTokenManager","inputs":[],"outputs":[{"name":"","type":"address","internalType":"contract ILiquidTokenManager"}],"stateMutability":"view"},{"type":"function","name":"name","inputs":[],"outputs":[{"name":"","type":"string","internalType":"string"}],"stateMutability":"view"},{"type":"function","name":"pause","inputs":[],"outputs":[],"stateMutability":"nonpayable"},{"type":"function","name":"paused","inputs":[],"outputs":[{"name":"","type":"bool","internalType":"bool"}],"stateMutability":"view"},{"type":"function","name":"queuedAssetBalances","inputs":[{"name":"","type":"address","internalType":"address"}],"outputs":[{"name":"","type":"uint256","internalType":"uint256"}],"stateMutability":"view"},{"type":"function","name":"renounceRole","inputs":[{"name":"role","type":"bytes32","internalType":"bytes32"},{"name":"callerConfirmation","type":"address","internalType":"address"}],"outputs":[],"stateMutability":"nonpayable"},{"type":"function","name":"requestWithdrawal","inputs":[{"name":"withdrawAssets","type":"address[]","internalType":"contract IERC20[]"},{"name":"shareAmounts","type":"uint256[]","internalType":"uint256[]"}],"outputs":[],"stateMutability":"nonpayable"},{"type":"function","name":"revokeRole","inputs":[{"name":"role","type":"bytes32","internalType":"bytes32"},{"name":"account","type":"address","internalType":"address"}],"outputs":[],"stateMutability":"nonpayable"},{"type":"function","name":"supportsInterface","inputs":[{"name":"interfaceId","type":"bytes4","internalType":"bytes4"}],"outputs":[{"name":"","type":"bool","internalType":"bool"}],"stateMutability":"view"},{"type":"function","name":"symbol","inputs":[],"outputs":[{"name":"","type":"string","internalType":"string"}],"stateMutability":"view"},{"type":"function","name":"totalAssets","inputs":[],"outputs":[{"name":"","type":"uint256","internalType":"uint256"}],"stateMutability":"view"},{"type":"function","name":"totalSupply","inputs":[],"outputs":[{"name":"","type":"uint256","internalType":"uint256"}],"stateMutability":"view"},{"type":"function","name":"transfer","inputs":[{"name":"to","type":"address","internalType":"address"},{"name":"value","type":"uint256","internalType":"uint256"}],"outputs":[{"name":"","type":"bool","internalType":"bool"}],"stateMutability":"nonpayable"},{"type":"function","name":"transferAssets","inputs":[{"name":"assetsToRetrieve","type":"address[]","internalType":"contract IERC20[]"},{"name":"amounts","type":"uint256[]","internalType":"uint256[]"}],"outputs":[],"stateMutability":"nonpayable"},{"type":"function","name":"transferFrom","inputs":[{"name":"from","type":"address","internalType":"address"},{"name":"to","type":"address","internalType":"address"},{"name":"value","type":"uint256","internalType":"uint256"}],"outputs":[{"name":"","type":"bool","internalType":"bool"}],"stateMutability":"nonpayable"},{"type":"function","name":"unpause","inputs":[],"outputs":[],"stateMutability":"nonpayable"},{"type":"function","name":"userWithdrawalRequests","inputs":[{"name":"","type":"address","internalType":"address"},{"name":"","type":"uint256","internalType":"uint256"}],"outputs":[{"name":"","type":"bytes32","internalType":"bytes32"}],"stateMutability":"view"},{"type":"function","name":"withdrawalRequests","inputs":[{"name":"","type":"bytes32","internalType":"bytes32"}],"outputs":[{"name":"user","type":"address","internalType":"address"},{"name":"requestTime","type":"uint256","internalType":"uint256"},{"name":"fulfilled","type":"bool","internalType":"bool"}],"stateMutability":"view"},{"type":"event","name":"Approval","inputs":[{"name":"owner","type":"address","indexed":true,"internalType":"address"},{"name":"spender","type":"address","indexed":true,"internalType":"address"},{"name":"value","type":"uint256","indexed":false,"internalType":"uint256"}],"anonymous":false},{"type":"event","name":"AssetDeposited","inputs":[{"name":"sender","type":"address","indexed":true,"internalType":"address"},{"name":"receiver","type":"address","indexed":true,"internalType":"address"},{"name":"asset","type":"address","indexed":true,"internalType":"contract IERC20"},{"name":"amount","type":"uint256","indexed":false,"internalType":"uint256"},{"name":"shares","type":"uint256","indexed":false,"internalType":"uint256"}],"anonymous":false},{"type":"event","name":"AssetTransferred","inputs":[{"name":"asset","type":"address","indexed":true,"internalType":"contract IERC20"},{"name":"amount","type":"uint256","indexed":false,"internalType":"uint256"},{"name":"destination","type":"address","indexed":true,"internalType":"address"},{"name":"initiator","type":"address","indexed":true,"internalType":"address"}],"anonymous":false},{"type":"event","name":"Initialized","inputs":[{"name":"version","type":"uint64","indexed":false,"internalType":"uint64"}],"anonymous":false},{"type":"event","name":"Paused","inputs":[{"name":"account","type":"address","indexed":false,"internalType":"address"}],"anonymous":false},{"type":"event","name":"RoleAdminChanged","inputs":[{"name":"role","type":"bytes32","indexed":true,"internalType":"bytes32"},{"name":"previousAdminRole","type":"bytes32","indexed":true,"internalType":"bytes32"},{"name":"newAdminRole","type":"bytes32","indexed":true,"internalType":"bytes32"}],"anonymous":false},{"type":"event","name":"RoleGranted","inputs":[{"name":"role","type":"bytes32","indexed":true,"internalType":"bytes32"},{"name":"account","type":"address","indexed":true,"internalType":"address"},{"name":"sender","type":"address","indexed":true,"internalType":"address"}],"anonymous":false},{"type":"event","name":"RoleRevoked","inputs":[{"name":"role","type":"bytes32","indexed":true,"internalType":"bytes32"},{"name":"account","type":"address","indexed":true,"internalType":"address"},{"name":"sender","type":"address","indexed":true,"internalType":"address"}],"anonymous":false},{"type":"event","name":"Transfer","inputs":[{"name":"from","type":"address","indexed":true,"internalType":"address"},{"name":"to","type":"address","indexed":true,"internalType":"address"},{"name":"value","type":"uint256","indexed":false,"internalType":"uint256"}],"anonymous":false},{"type":"event","name":"Unpaused","inputs":[{"name":"account","type":"address","indexed":false,"internalType":"address"}],"anonymous":false},{"type":"event","name":"WithdrawalFulfilled","inputs":[{"name":"requestId","type":"bytes32","indexed":true,"internalType":"bytes32"},{"name":"user","type":"address","indexed":true,"internalType":"address"},{"name":"assets","type":"address[]","indexed":false,"internalType":"contract IERC20[]"},{"name":"shareAmounts","type":"uint256[]","indexed":false,"internalType":"uint256[]"},{"name":"timestamp","type":"uint256","indexed":false,"internalType":"uint256"}],"anonymous":false},{"type":"event","name":"WithdrawalRequested","inputs":[{"name":"requestId","type":"bytes32","indexed":true,"internalType":"bytes32"},{"name":"user","type":"address","indexed":true,"internalType":"address"},{"name":"assets","type":"address[]","indexed":false,"internalType":"contract IERC20[]"},{"name":"shareAmounts","type":"uint256[]","indexed":false,"internalType":"uint256[]"},{"name":"timestamp","type":"uint256","indexed":false,"internalType":"uint256"}],"anonymous":false},{"type":"error","name":"AccessControlBadConfirmation","inputs":[]},{"type":"error","name":"AccessControlUnauthorizedAccount","inputs":[{"name":"account","type":"address","internalType":"address"},{"name":"neededRole","type":"bytes32","internalType":"bytes32"}]},{"type":"error","name":"AddressEmptyCode","inputs":[{"name":"target","type":"address","internalType":"address"}]},{"type":"error","name":"AddressInsufficientBalance","inputs":[{"name":"account","type":"address","internalType":"address"}]},{"type":"error","name":"ArrayLengthMismatch","inputs":[]},{"type":"error","name":"AssetBalanceOutOfSync","inputs":[{"name":"asset","type":"address","internalType":"contract IERC20"},{"name":"accountingBalance","type":"uint256","internalType":"uint256"},{"name":"actualBalance","type":"uint256","internalType":"uint256"}]},{"type":"error","name":"AssetNotSupported","inputs":[{"name":"asset","type":"address","internalType":"contract IERC20"}]},{"type":"error","name":"DuplicateRequestId","inputs":[{"name":"requestId","type":"bytes32","internalType":"bytes32"}]},{"type":"error","name":"ERC20InsufficientAllowance","inputs":[{"name":"spender","type":"address","internalType":"address"},{"name":"allowance","type":"uint256","internalType":"uint256"},{"name":"needed","type":"uint256","internalType":"uint256"}]},{"type":"error","name":"ERC20InsufficientBalance","inputs":[{"name":"sender","type":"address","internalType":"address"},{"name":"balance","type":"uint256","internalType":"uint256"},{"name":"needed","type":"uint256","internalType":"uint256"}]},{"type":"error","name":"ERC20InvalidApprover","inputs":[{"name":"approver","type":"address","internalType":"address"}]},{"type":"error","name":"ERC20InvalidReceiver","inputs":[{"name":"receiver","type":"address","internalType":"address"}]},{"type":"error","name":"ERC20InvalidSender","inputs":[{"name":"sender","type":"address","internalType":"address"}]},{"type":"error","name":"ERC20InvalidSpender","inputs":[{"name":"spender","type":"address","internalType":"address"}]},{"type":"error","name":"EnforcedPause","inputs":[]},{"type":"error","name":"ExpectedPause","inputs":[]},{"type":"error","name":"FailedInnerCall","inputs":[]},{"type":"error","name":"InsufficientBalance","inputs":[{"name":"asset","type":"address","internalType":"contract IERC20"},{"name":"required","type":"uint256","internalType":"uint256"},{"name":"available","type":"uint256","internalType":"uint256"}]},{"type":"error","name":"InvalidInitialization","inputs":[]},{"type":"error","name":"InvalidWithdrawalRequest","inputs":[]},{"type":"error","name":"NotInitializing","inputs":[]},{"type":"error","name":"NotLiquidTokenManager","inputs":[{"name":"sender","type":"address","internalType":"address"}]},{"type":"error","name":"ReentrancyGuardReentrantCall","inputs":[]},{"type":"error","name":"SafeERC20FailedOperation","inputs":[{"name":"token","type":"address","internalType":"address"}]},{"type":"error","name":"UnsupportedAsset","inputs":[{"name":"asset","type":"address","internalType":"contract IERC20"}]},{"type":"error","name":"WithdrawalAlreadyFulfilled","inputs":[]},{"type":"error","name":"WithdrawalDelayNotMet","inputs":[]},{"type":"error","name":"ZeroAmount","inputs":[]},{"type":"error","name":"ZeroShares","inputs":[]}],"bytecode":{"object":"0x6080806040523460aa575f51602061355a5f395f51905f525460ff8160401c16609b576002600160401b03196001600160401b038216016049575b6040516134ab90816100af8239f35b6001600160401b0319166001600160401b039081175f51602061355a5f395f51905f525581527fc7f505b2f371ae2175ee4913f4499e1f2633a7b5936321eed1cdaeb6115181d290602090a15f80603a565b63f92ee8a960e01b5f5260045ffd5b5f80fdfe60806040526004361015610011575f80fd5b5f3560e01c806301e1d114146125d757806301ffc9a71461258157806306fdde03146124c4578063095ea7b3146124455780630ebb172a14612428578063124b82a5146123da57806318160ddd146123b157806323b872dd146122d9578063248a9ca3146122a257806329550f971461227b5780632f2ff15d14612231578063313ce5671461221657806336568abe146121d25780633e7d48ab1461201d5780633f4ba83a14611f5a5780634c69211114611d8557806351b4005e14611d5e5780635c975abb14611d305780635f4c821414611c975780635fa137cf146116745780636c930228146115c057806370a082311461157c578063794772091461154457806381fb104614610ffe5780638456cb5914610f28578063867c124714610ef057806391d1485414610e9b57806395d89b4114610dad57806398c601aa146109815780639e363ce1146108e0578063a217fddf146108c6578063a471e5471461086e578063a9059cbb1461083d578063d547741f146107ec578063d9def1d01461031c578063d9fa60811461027a578063dd62ed3e14610233578063e63ab1e9146101f95763e6fc7afe146101c6575f80fd5b346101f55760403660031901126101f55760206101ed6101e461261b565b60243590612cdf565b604051908152f35b5f80fd5b346101f5575f3660031901126101f55760206040517f65d7a28e3265b37a6474929f336521b332c1681b933f6cb9f3376673440d862a8152f35b346101f55760403660031901126101f55761024c61261b565b61025d610257612631565b916126fa565b9060018060a01b03165f52602052602060405f2054604051908152f35b346101f55760203660031901126101f5576004356001600160401b0381116101f5576102aa90369060040161267a565b906102b482612bde565b915f5b8181106102d857604051602080825281906102d490820187612647565b0390f35b8061030b6102f16102ec6001948688612b95565b612ba5565b6001600160a01b03165f9081526002602052604090205490565b61031582876127ae565b52016102b7565b346101f55760203660031901126101f5576004356103386131e8565b5f81815260036020526040902080549091906001600160a01b031633036107dd5760038201546212750081018091116107c95742106107ba5760048201805460ff81166107ab5760019060ff1916179055600182019182549161039a83612bde565b915f9360025f92015b818310610745575050505f5b82518110156105eb576103c281846127ae565b516103cd8287612785565b90546040516370a0823160e01b815230600482015260039290921b1c6001600160a01b03169190602081602481865afa80156105015782915f916105b7575b501061053f5761041d8133846131a8565b815f52600160205261043460405f20918254612bd1565b9055805f52600160205260405f2054604051906370a0823160e01b8252306004830152602082602481865afa918215610501575f9261050c575b501161047d57506001016103af565b805f52600160205260405f2054604051916370a0823160e01b8352306004840152602083602481845afa928315610501575f936104ce575b50632e2a642b60e01b5f5260045260245260445260645ffd5b9092506020813d82116104f9575b816104e96020938361274d565b810103126101f5575191836104b5565b3d91506104dc565b6040513d5f823e3d90fd5b9091506020813d8211610537575b816105276020938361274d565b810103126101f55751908861046e565b3d915061051a565b6040516370a0823160e01b81523060048201529091602082602481845afa918215610501575f92610584575b5063db42144d60e01b5f5260045260245260445260645ffd5b9091506020813d82116105af575b8161059f6020938361274d565b810103126101f55751908361056b565b3d9150610592565b9150506020813d82116105e3575b816105d26020938361274d565b810103126101f5578190518961040c565b3d91506105c5565b508383301561073257305f525f5160206133965f395f51905f5260205260405f20548181106107195790805f923084525f5160206133965f395f51905f52602052036040832055805f5160206133d65f395f51905f5254035f5160206133d65f395f51905f52556040519081527fddf252ad1be2c89b69c2b068fc378daa952ba7f163c4a11628f55a4df523b3ef60203092a3604051926060840160608552825480915260808501925f5260205f20905f5b8181106106fa57505050816106da91857f5f27cc4e2a4109fe285b3d5a2772cfc097657b1f059f52264360fe9fff13dcf394036020870152612647565b924260408201528033940390a360015f5160206134365f395f51905f5255005b82546001600160a01b031685526020909401936001928301920161069d565b63391434e360e21b5f523060045260245260445260645ffd5b634b637e8f60e11b5f525f60045260245ffd5b9091946107a260019161078061075b898b612785565b858060a01b0391549060031b1c166107738a87612785565b90549060031b1c90612b08565b61078a89896127ae565b526107958885612785565b90549060031b1c906127c2565b950191906103a3565b634258495160e11b5f5260045ffd5b635ca831e160e11b5f5260045ffd5b634e487b7160e01b5f52601160045260245ffd5b63a0fc0d0360e01b5f5260045ffd5b346101f55760403660031901126101f55761083b60043561080b612631565b90610836610831825f525f5160206133f65f395f51905f52602052600160405f20015490565b612e80565b6130e5565b005b346101f55760403660031901126101f55761086361085961261b565b6024359033612d61565b602060405160018152f35b346101f55760403660031901126101f55761088761261b565b6001600160a01b03165f908152600460205260409020805460243591908210156101f5576020916108b791612785565b90549060031b1c604051908152f35b346101f5575f3660031901126101f55760206040515f8152f35b346101f5576108ee366126aa565b926108fa929192613181565b5f546001600160a01b0316330361096e5783820361095f575f5b82811061091d57005b8061092b6001928787612b95565b35828060a01b036109406102ec848888612b95565b165f52600260205261095760405f209182546127c2565b905501610914565b63512509d360e11b5f5260045ffd5b63dc0e77ef60e01b5f523360045260245ffd5b346101f55760603660031901126101f5576004356001600160401b0381116101f5576109b190369060040161267a565b6024356001600160401b0381116101f5576109d090369060040161267a565b92906044356001600160a01b03811691908290036101f5576109f06131e8565b6109f8613181565b84840361095f57610a0a849394612bde565b948215935f5b818110610a3e5760015f5160206134365f395f51905f5255604051602080825281906102d49082018b612647565b610a4c6102ec82848a612b95565b90610a58818587612b95565b358015610d9e575f54604051630e70619560e41b81526001600160a01b0385811660048301819052939260209183916024918391165afa908115610501575f91610d70575b5015610d5d576040516370a0823160e01b815230600482015290602082602481865afa918215610501575f92610d28575b50610b0a90604051906323b872dd60e01b6020830152336024830152306044830152606482015260648152610b0460848261274d565b85613259565b6040516370a0823160e01b815230600482015290602082602481865afa8015610501575f90610cf5575b610b419250038094612cdf565b978815610ce6575f82815260016020908152604091829020805487019081905591516370a0823160e01b8152306004820152919082602481875afa918215610501575f92610cb3575b5011610c6257610c4f578660019389610bb28d9b5f5160206133d65f395f51905f52546127c2565b5f5160206133d65f395f51905f525580610c17865f9d865f525f5160206133965f395f51905f5260205260405f20848154019055865f7fddf252ad1be2c89b69c2b068fc378daa952ba7f163c4a11628f55a4df523b3ef6020604051888152a36127ae565b5260405191825260208201527f8d9f8eed9603fe0e069574aaf008e644885b52d54ba86f026277ac9db1c2d08a60403392a401610a10565b63ec442f0560e01b5f525f60045260245ffd5b50805f52600160205260405f2054604051916370a0823160e01b8352306004840152602083602481845afa928315610501575f936104ce5750632e2a642b60e01b5f5260045260245260445260645ffd5b9091506020813d8211610cde575b81610cce6020938361274d565b810103126101f55751908d610b8a565b3d9150610cc1565b639811e0c760e01b5f5260045ffd5b506020823d8211610d20575b81610d0e6020938361274d565b810103126101f557610b419151610b34565b3d9150610d01565b9091506020813d8211610d55575b81610d436020938361274d565b810103126101f5575190610b0a610ace565b3d9150610d36565b5063ee84f40b60e01b5f5260045260245ffd5b610d91915060203d8111610d97575b610d89818361274d565b810190612bb9565b8c610a9d565b503d610d7f565b631f2a200560e01b5f5260045ffd5b346101f5575f3660031901126101f5576040515f5f5160206133b65f395f51905f5254610dd981612ad0565b8084529060018116908115610e775750600114610e0d575b6102d483610e018185038261274d565b604051918291826125f1565b5f5160206133b65f395f51905f525f9081527f46a2803e59a4de4e7a4c574b1243f25977ac4c77d5a1a4a609b5394cebb4a2aa939250905b808210610e5d57509091508101602001610e01610df1565b919260018160209254838588010152019101909291610e45565b60ff191660208086019190915291151560051b84019091019150610e019050610df1565b346101f55760403660031901126101f557610eb4612631565b6004355f525f5160206133f65f395f51905f5260205260405f209060018060a01b03165f52602052602060ff60405f2054166040519015158152f35b346101f55760203660031901126101f5576001600160a01b03610f1161261b565b165f526001602052602060405f2054604051908152f35b346101f5575f3660031901126101f557335f9081527f75442b0a96088b5456bc4ed01394c96a4feec0f883c9494257d76b96ab1c9b6b602052604090205460ff1615610fc757610f76613181565b600160ff195f5160206134165f395f51905f525416175f5160206134165f395f51905f52557f62e78cea01bee320cd4e420270b5ea74000d11b0c9f74754ebdbfc544b05a2586020604051338152a1005b63e2517d3f60e01b5f52336004527f65d7a28e3265b37a6474929f336521b332c1681b933f6cb9f3376673440d862a60245260445ffd5b346101f55760403660031901126101f5576004356001600160401b0381116101f557366023820112156101f55780600401356110398161276e565b91611047604051938461274d565b81835260208301906024829360051b820101903682116101f557602401915b81831061152457505050602435906001600160401b0382116101f557366023830112156101f55781600401359161109c8361276e565b906110aa604051928361274d565b838252602082016024819560051b830101913683116101f557602401905b828210611514575050506110da6131e8565b6110e2613181565b835181510361095f5783515f805490949185916001600160a01b03165b81831061145f57505050335f525f5160206133965f395f51905f526020528360405f20541061142b57335f52600560205260405f20908154915f1983146107c957600183019055604051809160208201933360601b855260348301895188905f5b8181106114095750505086519092905f5b8181106113f057505050916094916111ae934282524360208301523a60408301523060601b6060830152607482015203607481018452018261274d565b5190205f818152600360205260409020549093906001600160a01b03166113dd576040516111db81612732565b338152602081019086825260408101848152606082019042825260808301935f8552885f52600360205260405f209360018060a01b039051166bffffffffffffffffffffffff60a01b855416178455600184019051908151916001600160401b03831161139857600160401b83116113985760209061125f84845481865585612cbc565b01905f5260205f205f5b8381106113c05750505050600283019051908151916001600160401b03831161139857600160401b8311611398576020906112a984845481865585612cbc565b01905f5260205f205f5b8381106113ac575050505090600491516003820155019051151560ff80198354169116179055335f52600460205260405f2090815491600160401b831015611398578261130891600161132395018155612785565b81549060031b9087821b915f19901b19161790553033612d61565b60405193606085019060608652518091526080850192905f5b81811061137957505050816106da91857fc19cd2977ab6cd62bec58a558bbcd6823da8c1c2553869aadb6a184c9ad7cc3f94036020870152612647565b82516001600160a01b031685526020948501949092019160010161133c565b634e487b7160e01b5f52604160045260245ffd5b6001906020845194019381840155016112b3565b82516001600160a01b031681830155602090920191600101611269565b83630609e65d60e31b5f5260045260245ffd5b8251855286955060209485019490920191600101611171565b82516001600160a01b0316845287965060209384019390920191600101611160565b83335f525f5160206133965f395f51905f5260205260405f20549063db42144d60e01b5f523060045260245260445260645ffd5b91959091906001600160a01b03611476888a6127ae565b51604051630e70619560e41b815291166004820152602081602481865afa908115610501575f916114f6575b50156114d0576114b287866127ae565b5115610d9e576001906114c588876127ae565b5101960191906110ff565b6001600160a01b036114e2888a6127ae565b511663ee84f40b60e01b5f5260045260245ffd5b61150e915060203d8111610d9757610d89818361274d565b896114a2565b81358152602091820191016110c8565b82356001600160a01b03811681036101f557815260209283019201611066565b346101f55760203660031901126101f5576001600160a01b0361156561261b565b165f526002602052602060405f2054604051908152f35b346101f55760203660031901126101f5576001600160a01b0361159d61261b565b165f525f5160206133965f395f51905f52602052602060405f2054604051908152f35b346101f55760203660031901126101f5576001600160a01b036115e161261b565b165f52600460205260405f20604051806020835491828152019081935f5260205f20905f5b81811061165e575050508161161c91038261274d565b604051918291602083019060208452518091526040830191905f5b818110611645575050500390f35b8251845285945060209384019390920191600101611637565b8254845260209093019260019283019201611606565b346101f55760203660031901126101f5576004356001600160401b0381116101f557806004019060a060031982360301126101f5575f5160206134565f395f51905f525460ff8160401c1615906001600160401b03811680159081611c8f575b6001149081611c85575b159081611c7c575b50611c6d5767ffffffffffffffff1981166001175f5160206134565f395f51905f525581611c41575b5061174261173061173a6117238680612c10565b9290966024870190612c10565b9690923691612c5d565b943691612c5d565b9161174b6132ec565b6117536132ec565b83516001600160401b0381116113985761177a5f5160206133765f395f51905f5254612ad0565b601f8111611be7575b50602094601f8211600114611b6c579481929394955f92611b61575b50508160011b915f199060031b1c1916175f5160206133765f395f51905f52555b82516001600160401b038111611398576117e75f5160206133b65f395f51905f5254612ad0565b601f8111611afc575b506020601f8211600114611a8157819293945f92611a76575b50508160011b915f199060031b1c1916175f5160206133b65f395f51905f52555b6118326132ec565b61183a6132ec565b60015f5160206134365f395f51905f52556118536132ec565b61185b6132ec565b6118636132ec565b5f5160206134165f395f51905f52805460ff1916905560648101906001600160a01b0361188f83612ba5565b1615611a205760848101906001600160a01b036118ab83612ba5565b16156119d157604401916001600160a01b036118c684612ba5565b1615611976576118ef916118e46118df6118ea93612ba5565b612ec6565b50612ba5565b612f75565b506001600160a01b039061190290612ba5565b166bffffffffffffffffffffffff60a01b5f5416175f5561191f57005b68ff0000000000000000195f5160206134565f395f51905f5254165f5160206134565f395f51905f52557fc7f505b2f371ae2175ee4913f4499e1f2633a7b5936321eed1cdaeb6115181d2602060405160018152a1005b60405162461bcd60e51b815260206004820152602d60248201527f4c6971756964546f6b656e4d616e616765722063616e6e6f742062652074686560448201526c207a65726f206164647265737360981b6064820152608490fd5b60405162461bcd60e51b815260206004820152602160248201527f5061757365722063616e6e6f7420626520746865207a65726f206164647265736044820152607360f81b6064820152608490fd5b60405162461bcd60e51b815260206004820152602860248201527f496e697469616c206f776e65722063616e6e6f7420626520746865207a65726f604482015267206164647265737360c01b6064820152608490fd5b015190508480611809565b601f198216905f5160206133b65f395f51905f525f52805f20915f5b818110611ae457509583600195969710611acc575b505050811b015f5160206133b65f395f51905f525561182a565b01515f1960f88460031b161c19169055848080611ab2565b9192602060018192868b015181550194019201611a9d565b5f5160206133b65f395f51905f525f52611b51907f46a2803e59a4de4e7a4c574b1243f25977ac4c77d5a1a4a609b5394cebb4a2aa601f840160051c81019160208510611b57575b601f0160051c0190612ca6565b846117f0565b9091508190611b44565b01519050858061179f565b601f198216955f5160206133765f395f51905f525f52805f20915f5b888110611bcf57508360019596979810611bb7575b505050811b015f5160206133765f395f51905f52556117c0565b01515f1960f88460031b161c19169055858080611b9d565b91926020600181928685015181550194019201611b88565b5f5160206133765f395f51905f525f52611c3b907f2ae08a8e29253f69ac5d979a101956ab8f8d9d7ded63fa7a83b16fc47648eab0601f840160051c81019160208510611b5757601f0160051c0190612ca6565b85611783565b68ffffffffffffffffff191668010000000000000001175f5160206134565f395f51905f52558361170f565b63f92ee8a960e01b5f5260045ffd5b905015856116e6565b303b1591506116de565b8391506116d4565b346101f55760203660031901126101f5576004356001600160401b0381116101f557611cc790369060040161267a565b90611cd182612bde565b915f5b818110611cf157604051602080825281906102d490820187612647565b80611d1f611d056102ec6001948688612b95565b6001600160a01b03165f9081526001602052604090205490565b611d2982876127ae565b5201611cd4565b346101f5575f3660031901126101f557602060ff5f5160206134165f395f51905f5254166040519015158152f35b346101f5575f3660031901126101f5575f546040516001600160a01b039091168152602090f35b346101f557611d93366126aa565b91611d9f939193613181565b5f546001600160a01b0316330361096e5782810361095f575f5b818110611dc257005b611dd06102ec828486612b95565b611ddb828688612b95565b5f54604051630e70619560e41b81526001600160a01b03808516600483018190529335949260209183916024918391165afa908115610501575f91611f3c575b5015610d5d57815f52600160205260405f20548311611f155782611e6391835f52600160205260405f20611e50838254612bd1565b90555f546001600160a01b0316906131a8565b805f52600160205260405f2054604051906370a0823160e01b8252306004830152602082602481865afa918215610501575f92611ee2575b501161047d579060019291838060a01b035f5416906040519283527f70f0c7140cab08317cd49cc744829435b3ed220274c9787906c318153ab908b160203394a401611db9565b9091506020813d8211611f0d575b81611efd6020938361274d565b810103126101f557519089611e9b565b3d9150611ef0565b50805f52600160205260405f20549063db42144d60e01b5f5260045260245260445260645ffd5b611f54915060203d8111610d9757610d89818361274d565b89611e1b565b346101f5575f3660031901126101f557335f9081527fb7db2dd08fcb62d0c9e08c51941cae53c267786a0b75803fb7960902fc8ef97d602052604090205460ff1615612006575f5160206134165f395f51905f525460ff811615611ff75760ff19165f5160206134165f395f51905f52557f5db9ee0a495bf2e6ff9c91a7834c1ba4fdd244a5e8aa4e537bd38aeae4b073aa6020604051338152a1005b638dfc202b60e01b5f5260045ffd5b63e2517d3f60e01b5f52336004525f60245260445ffd5b346101f55760203660031901126101f5575f608060405161203d81612732565b828152606060208201526060604082015282606082015201526004355f52600360205260405f206040519061207182612732565b60018060a01b0381541682526001810190604051808360208295549384815201905f5260205f20925f5b8181106121b05750506120b09250038361274d565b6020830191825260028101604051808260208294549384815201905f5260205f20925f5b8181106121975750506120e99250038261274d565b6040840190815260ff60046003840154936060870194855201541690608085019115158252604051936020855260c085019560018060a01b039051166020860152519460a060408601528551809152602060e086019601905f5b8181106121785750505083946121659151601f19868303016060870152612647565b9151608084015251151560a08301520390f35b82516001600160a01b0316885260209788019790920191600101612143565b84548352600194850194869450602090930192016120d4565b84546001600160a01b031683526001948501948794506020909301920161209b565b346101f55760403660031901126101f5576121eb612631565b336001600160a01b038216036122075761083b906004356130e5565b63334bd91960e11b5f5260045ffd5b346101f5575f3660031901126101f557602060405160128152f35b346101f55760403660031901126101f55761083b600435612250612631565b90612276610831825f525f5160206133f65f395f51905f52602052600160405f20015490565b613041565b346101f55760403660031901126101f55760206101ed61229961261b565b60243590612b08565b346101f55760203660031901126101f55760206101ed6004355f525f5160206133f65f395f51905f52602052600160405f20015490565b346101f55760603660031901126101f5576122f261261b565b6122fa612631565b60443590612307836126fa565b335f9081526020919091526040902054926001840161232b575b6108639350612d61565b828410612396576001600160a01b038116156123835733156123705761086393612354826126fa565b60018060a01b0333165f526020528360405f2091039055612321565b634a1406b160e11b5f525f60045260245ffd5b63e602df0560e01b5f525f60045260245ffd5b8284637dc7a0d960e11b5f523360045260245260445260645ffd5b346101f5575f3660031901126101f55760205f5160206133d65f395f51905f5254604051908152f35b346101f55760203660031901126101f5576004355f526003602052606060405f2060018060a01b038154169060ff600460038301549201541690604051928352602083015215156040820152f35b346101f5575f3660031901126101f5576020604051621275008152f35b346101f55760403660031901126101f55761245e61261b565b602435903315612383576001600160a01b031690811561237057612481336126fa565b825f526020528060405f20556040519081527f8c5be1e5ebec7d5bd14f71427d1e84f3dd0314c0f7b2291e5b200ac8c7c3b92560203392a3602060405160018152f35b346101f5575f3660031901126101f5576040515f5f5160206133765f395f51905f52546124f081612ad0565b8084529060018116908115610e775750600114612517576102d483610e018185038261274d565b5f5160206133765f395f51905f525f9081527f2ae08a8e29253f69ac5d979a101956ab8f8d9d7ded63fa7a83b16fc47648eab0939250905b80821061256757509091508101602001610e01610df1565b91926001816020925483858801015201910190929161254f565b346101f55760203660031901126101f55760043563ffffffff60e01b81168091036101f557602090637965db0b60e01b81149081156125c6575b506040519015158152f35b6301ffc9a760e01b149050826125bb565b346101f5575f3660031901126101f55760206101ed6127cf565b602060409281835280519182918282860152018484015e5f828201840152601f01601f1916010190565b600435906001600160a01b03821682036101f557565b602435906001600160a01b03821682036101f557565b90602080835192838152019201905f5b8181106126645750505090565b8251845260209384019390920191600101612657565b9181601f840112156101f5578235916001600160401b0383116101f5576020808501948460051b0101116101f557565b60406003198201126101f5576004356001600160401b0381116101f557816126d49160040161267a565b92909291602435906001600160401b0382116101f5576126f69160040161267a565b9091565b6001600160a01b03165f9081527f52c63247e1f47db19d5ce0460030c497f067ca4cebf71ba98eeadabe20bace016020526040902090565b60a081019081106001600160401b0382111761139857604052565b90601f801991011681019081106001600160401b0382111761139857604052565b6001600160401b0381116113985760051b60200190565b805482101561279a575f5260205f2001905f90565b634e487b7160e01b5f52603260045260245ffd5b805182101561279a5760209160051b010190565b919082018092116107c957565b5f805460405163d3c7c2c760e01b815292916001600160a01b039091169083600481845afa928315610501575f93612a2d575b505f805b8451821015612a275761288760206001600160a01b0361282685896127ae565b51166128596001600160a01b0361283d878b6127ae565b51166001600160a01b03165f9081526001602052604090205490565b604051631cbf960d60e01b81526001600160a01b039092166004830152602482015291829081906044820190565b0381875afa908115610501575f916129f4575b506128a89061291d926127c2565b60206001600160a01b036128bc85896127ae565b51166128ef6001600160a01b036128d3878b6127ae565b51166001600160a01b03165f9081526002602052604090205490565b604051631cbf960d60e01b81526001600160a01b039092166004830152602482015292839081906044820190565b0381875afa908115610501575f916129bf575b61293a92506127c2565b6001600160a01b0361294c83876127ae565b516040516374f2ca0560e01b815291166004820152602081602481875afa908115610501575f9161298d575b50612985906001926127c2565b910190612806565b90506020813d82116129b7575b816129a76020938361274d565b810103126101f557516001612978565b3d915061299a565b90506020823d82116129ec575b816129d96020938361274d565b810103126101f55761293a915190612930565b3d91506129cc565b90506020813d8211612a1f575b81612a0e6020938361274d565b810103126101f5575161291d61289a565b3d9150612a01565b93505050565b9092503d805f833e612a3f818361274d565b8101906020818303126101f5578051906001600160401b0382116101f557019080601f830112156101f557815190612a768261276e565b92612a84604051948561274d565b82845260208085019360051b8201019182116101f557602001915b818310612ab057505050915f612802565b82516001600160a01b03811681036101f557815260209283019201612a9f565b90600182811c92168015612afe575b6020831014612aea57565b634e487b7160e01b5f52602260045260245ffd5b91607f1691612adf565b602090612b17612b5193612e3d565b5f5460405163833eaaf560e01b81526001600160a01b03938416600482015260248101929092529093849290911690829081906044820190565b03915afa908115610501575f91612b66575090565b90506020813d602011612b8d575b81612b816020938361274d565b810103126101f5575190565b3d9150612b74565b919081101561279a5760051b0190565b356001600160a01b03811681036101f55790565b908160209103126101f5575180151581036101f55790565b919082039182116107c957565b90612be88261276e565b612bf5604051918261274d565b8281528092612c06601f199161276e565b0190602036910137565b903590601e19813603018212156101f557018035906001600160401b0382116101f5576020019181360383136101f557565b6001600160401b03811161139857601f01601f191660200190565b929192612c6982612c42565b91612c77604051938461274d565b8294818452818301116101f5578281602093845f960137010152565b818102929181159184041417156107c957565b818110612cb1575050565b5f8155600101612ca6565b91818110612cc957505050565b612cdd925f5260205f209182019101612ca6565b565b5f54604051631cbf960d60e01b81526001600160a01b039283166004820152602481019390935260209183916044918391165afa8015610501575f90612d2d575b612d2a9150613220565b90565b506020813d602011612d59575b81612d476020938361274d565b810103126101f557612d2a9051612d20565b3d9150612d3a565b6001600160a01b0316908115610732576001600160a01b0316918215610c4f57815f525f5160206133965f395f51905f5260205260405f2054818110612e0657817fddf252ad1be2c89b69c2b068fc378daa952ba7f163c4a11628f55a4df523b3ef92602092855f525f5160206133965f395f51905f5284520360405f2055845f525f5160206133965f395f51905f52825260405f20818154019055604051908152a3565b8263391434e360e21b5f5260045260245260445260645ffd5b8115612e29570490565b634e487b7160e01b5f52601260045260245ffd5b5f5160206133d65f395f51905f5254612e546127cf565b81158015612e78575b612e7357612e6e90612d2a93612c93565b612e1f565b505090565b508015612e5d565b5f8181525f5160206133f65f395f51905f526020908152604080832033845290915290205460ff1615612eb05750565b63e2517d3f60e01b5f523360045260245260445ffd5b6001600160a01b0381165f9081527fb7db2dd08fcb62d0c9e08c51941cae53c267786a0b75803fb7960902fc8ef97d602052604090205460ff16612f70576001600160a01b03165f8181527fb7db2dd08fcb62d0c9e08c51941cae53c267786a0b75803fb7960902fc8ef97d60205260408120805460ff191660011790553391907f2f8788117e7eff1d82e926ec794901d17c78024a50270940304540a733656f0d8180a4600190565b505f90565b6001600160a01b0381165f9081527f75442b0a96088b5456bc4ed01394c96a4feec0f883c9494257d76b96ab1c9b6b602052604090205460ff16612f70576001600160a01b03165f8181527f75442b0a96088b5456bc4ed01394c96a4feec0f883c9494257d76b96ab1c9b6b60205260408120805460ff191660011790553391907f65d7a28e3265b37a6474929f336521b332c1681b933f6cb9f3376673440d862a907f2f8788117e7eff1d82e926ec794901d17c78024a50270940304540a733656f0d9080a4600190565b5f8181525f5160206133f65f395f51905f52602090815260408083206001600160a01b038616845290915290205460ff166130df575f8181525f5160206133f65f395f51905f52602090815260408083206001600160a01b0395909516808452949091528120805460ff19166001179055339291907f2f8788117e7eff1d82e926ec794901d17c78024a50270940304540a733656f0d9080a4600190565b50505f90565b5f8181525f5160206133f65f395f51905f52602090815260408083206001600160a01b038616845290915290205460ff16156130df575f8181525f5160206133f65f395f51905f52602090815260408083206001600160a01b0395909516808452949091528120805460ff19169055339291907ff6391f5c32d9c69d2a47ea670b442974b53935d1edc7fd64eb21e047a839171b9080a4600190565b60ff5f5160206134165f395f51905f52541661319957565b63d93c066560e01b5f5260045ffd5b60405163a9059cbb60e01b60208201526001600160a01b039092166024830152604480830193909352918152612cdd916131e360648361274d565b613259565b60025f5160206134365f395f51905f5254146132115760025f5160206134365f395f51905f5255565b633ee5aeb560e01b5f5260045ffd5b5f5160206133d65f395f51905f52546132376127cf565b908015801561325157612e7357612e6e90612d2a93612c93565b508115612e5d565b5f806132a19260018060a01b03169360208151910182865af13d156132e4573d9061328382612c42565b91613291604051938461274d565b82523d5f602084013e5b83613317565b80519081151591826132c9575b50506132b75750565b635274afe760e01b5f5260045260245ffd5b6132dc9250602080918301019101612bb9565b155f806132ae565b60609061329b565b60ff5f5160206134565f395f51905f525460401c161561330857565b631afcd79f60e31b5f5260045ffd5b9061333b575080511561332c57805190602001fd5b630a12f52160e11b5f5260045ffd5b8151158061336c575b61334c575090565b639996b31560e01b5f9081526001600160a01b0391909116600452602490fd5b50803b1561334456fe52c63247e1f47db19d5ce0460030c497f067ca4cebf71ba98eeadabe20bace0352c63247e1f47db19d5ce0460030c497f067ca4cebf71ba98eeadabe20bace0052c63247e1f47db19d5ce0460030c497f067ca4cebf71ba98eeadabe20bace0452c63247e1f47db19d5ce0460030c497f067ca4cebf71ba98eeadabe20bace0202dd7bc7dec4dceedda775e58dd541e08a116c6c53815c0bd028192f7b626800cd5ed15c6e187e77e9aee88184c21f4f2182ab5827cb3b7e07fbedcd63f033009b779b17422d0df92223018b32b4d1fa46e071723d6817e2486d003becc55f00f0c57e16840df040f15088dc2f81fe391c3923bec73e23a9662efc9c229c6a00a264697066735822122031960875bb911139d826f75b758bc03204d0f9e563126b0bc011e8f5e98c506b64736f6c634300081b0033f0c57e16840df040f15088dc2f81fe391c3923bec73e23a9662efc9c229c6a00","linkReferences":{}},"methodIdentifiers":{"DEFAULT_ADMIN_ROLE()":"a217fddf","PAUSER_ROLE()":"e63ab1e9","WITHDRAWAL_DELAY()":"0ebb172a","allowance(address,address)":"dd62ed3e","approve(address,uint256)":"095ea7b3","assetBalances(address)":"867c1247","balanceAssets(address[])":"5f4c8214","balanceOf(address)":"70a08231","balanceQueuedAssets(address[])":"d9fa6081","calculateAmount(address,uint256)":"29550f97","calculateShares(address,uint256)":"e6fc7afe","creditQueuedAssetBalances(address[],uint256[])":"9e363ce1","decimals()":"313ce567","deposit(address[],uint256[],address)":"98c601aa","fulfillWithdrawal(bytes32)":"d9def1d0","getRoleAdmin(bytes32)":"248a9ca3","getUserWithdrawalRequests(address)":"6c930228","getWithdrawalRequest(bytes32)":"3e7d48ab","grantRole(bytes32,address)":"2f2ff15d","hasRole(bytes32,address)":"91d14854","initialize((string,string,address,address,address))":"5fa137cf","liquidTokenManager()":"51b4005e","name()":"06fdde03","pause()":"8456cb59","paused()":"5c975abb","queuedAssetBalances(address)":"79477209","renounceRole(bytes32,address)":"36568abe","requestWithdrawal(address[],uint256[])":"81fb1046","revokeRole(bytes32,address)":"d547741f","supportsInterface(bytes4)":"01ffc9a7","symbol()":"95d89b41","totalAssets()":"01e1d114","totalSupply()":"18160ddd","transfer(address,uint256)":"a9059cbb","transferAssets(address[],uint256[])":"4c692111","transferFrom(address,address,uint256)":"23b872dd","unpause()":"3f4ba83a","userWithdrawalRequests(address,uint256)":"a471e547","withdrawalRequests(bytes32)":"124b82a5"},"id":70}