{"abi":[{"type":"constructor","inputs":[],"stateMutability":"nonpayable"},{"type":"function","name":"DEFAULT_ADMIN_ROLE","inputs":[],"outputs":[{"name":"","type":"bytes32","internalType":"bytes32"}],"stateMutability":"view"},{"type":"function","name":"PRICE_DECIMALS","inputs":[],"outputs":[{"name":"","type":"uint256","internalType":"uint256"}],"stateMutability":"view"},{"type":"function","name":"PRICE_UPDATER_ROLE","inputs":[],"outputs":[{"name":"","type":"bytes32","internalType":"bytes32"}],"stateMutability":"view"},{"type":"function","name":"STRATEGY_CONTROLLER_ROLE","inputs":[],"outputs":[{"name":"","type":"bytes32","internalType":"bytes32"}],"stateMutability":"view"},{"type":"function","name":"addToken","inputs":[{"name":"token","type":"address","internalType":"contract IERC20"},{"name":"decimals","type":"uint8","internalType":"uint8"},{"name":"initialPrice","type":"uint256","internalType":"uint256"},{"name":"volatilityThreshold","type":"uint256","internalType":"uint256"},{"name":"strategy","type":"address","internalType":"contract IStrategy"}],"outputs":[],"stateMutability":"nonpayable"},{"type":"function","name":"convertFromUnitOfAccount","inputs":[{"name":"token","type":"address","internalType":"contract IERC20"},{"name":"amount","type":"uint256","internalType":"uint256"}],"outputs":[{"name":"","type":"uint256","internalType":"uint256"}],"stateMutability":"view"},{"type":"function","name":"convertToUnitOfAccount","inputs":[{"name":"token","type":"address","internalType":"contract IERC20"},{"name":"amount","type":"uint256","internalType":"uint256"}],"outputs":[{"name":"","type":"uint256","internalType":"uint256"}],"stateMutability":"view"},{"type":"function","name":"delegateNodes","inputs":[{"name":"nodeIds","type":"uint256[]","internalType":"uint256[]"},{"name":"operators","type":"address[]","internalType":"address[]"},{"name":"approverSignatureAndExpiries","type":"tuple[]","internalType":"struct ISignatureUtilsMixinTypes.SignatureWithExpiry[]","components":[{"name":"signature","type":"bytes","internalType":"bytes"},{"name":"expiry","type":"uint256","internalType":"uint256"}]},{"name":"approverSalts","type":"bytes32[]","internalType":"bytes32[]"}],"outputs":[],"stateMutability":"nonpayable"},{"type":"function","name":"delegationManager","inputs":[],"outputs":[{"name":"","type":"address","internalType":"contract IDelegationManager"}],"stateMutability":"view"},{"type":"function","name":"getRoleAdmin","inputs":[{"name":"role","type":"bytes32","internalType":"bytes32"}],"outputs":[{"name":"","type":"bytes32","internalType":"bytes32"}],"stateMutability":"view"},{"type":"function","name":"getStakedAssetBalance","inputs":[{"name":"asset","type":"address","internalType":"contract IERC20"}],"outputs":[{"name":"","type":"uint256","internalType":"uint256"}],"stateMutability":"view"},{"type":"function","name":"getStakedAssetBalanceNode","inputs":[{"name":"asset","type":"address","internalType":"contract IERC20"},{"name":"nodeId","type":"uint256","internalType":"uint256"}],"outputs":[{"name":"","type":"uint256","internalType":"uint256"}],"stateMutability":"view"},{"type":"function","name":"getSupportedTokens","inputs":[],"outputs":[{"name":"","type":"address[]","internalType":"contract IERC20[]"}],"stateMutability":"view"},{"type":"function","name":"getTokenInfo","inputs":[{"name":"token","type":"address","internalType":"contract IERC20"}],"outputs":[{"name":"","type":"tuple","internalType":"struct ILiquidTokenManager.TokenInfo","components":[{"name":"decimals","type":"uint256","internalType":"uint256"},{"name":"pricePerUnit","type":"uint256","internalType":"uint256"},{"name":"volatilityThreshold","type":"uint256","internalType":"uint256"}]}],"stateMutability":"view"},{"type":"function","name":"getTokenStrategy","inputs":[{"name":"asset","type":"address","internalType":"contract IERC20"}],"outputs":[{"name":"","type":"address","internalType":"contract IStrategy"}],"stateMutability":"view"},{"type":"function","name":"grantRole","inputs":[{"name":"role","type":"bytes32","internalType":"bytes32"},{"name":"account","type":"address","internalType":"address"}],"outputs":[],"stateMutability":"nonpayable"},{"type":"function","name":"hasRole","inputs":[{"name":"role","type":"bytes32","internalType":"bytes32"},{"name":"account","type":"address","internalType":"address"}],"outputs":[{"name":"","type":"bool","internalType":"bool"}],"stateMutability":"view"},{"type":"function","name":"initialize","inputs":[{"name":"init","type":"tuple","internalType":"struct ILiquidTokenManager.Init","components":[{"name":"assets","type":"address[]","internalType":"contract IERC20[]"},{"name":"tokenInfo","type":"tuple[]","internalType":"struct ILiquidTokenManager.TokenInfo[]","components":[{"name":"decimals","type":"uint256","internalType":"uint256"},{"name":"pricePerUnit","type":"uint256","internalType":"uint256"},{"name":"volatilityThreshold","type":"uint256","internalType":"uint256"}]},{"name":"strategies","type":"address[]","internalType":"contract IStrategy[]"},{"name":"liquidToken","type":"address","internalType":"contract ILiquidToken"},{"name":"strategyManager","type":"address","internalType":"contract IStrategyManager"},{"name":"delegationManager","type":"address","internalType":"contract IDelegationManager"},{"name":"stakerNodeCoordinator","type":"address","internalType":"contract IStakerNodeCoordinator"},{"name":"initialOwner","type":"address","internalType":"address"},{"name":"strategyController","type":"address","internalType":"address"},{"name":"priceUpdater","type":"address","internalType":"address"}]}],"outputs":[],"stateMutability":"nonpayable"},{"type":"function","name":"liquidToken","inputs":[],"outputs":[{"name":"","type":"address","internalType":"contract ILiquidToken"}],"stateMutability":"view"},{"type":"function","name":"removeToken","inputs":[{"name":"token","type":"address","internalType":"contract IERC20"}],"outputs":[],"stateMutability":"nonpayable"},{"type":"function","name":"renounceRole","inputs":[{"name":"role","type":"bytes32","internalType":"bytes32"},{"name":"callerConfirmation","type":"address","internalType":"address"}],"outputs":[],"stateMutability":"nonpayable"},{"type":"function","name":"revokeRole","inputs":[{"name":"role","type":"bytes32","internalType":"bytes32"},{"name":"account","type":"address","internalType":"address"}],"outputs":[],"stateMutability":"nonpayable"},{"type":"function","name":"setVolatilityThreshold","inputs":[{"name":"asset","type":"address","internalType":"contract IERC20"},{"name":"newThreshold","type":"uint256","internalType":"uint256"}],"outputs":[],"stateMutability":"nonpayable"},{"type":"function","name":"stakeAssetsToNode","inputs":[{"name":"nodeId","type":"uint256","internalType":"uint256"},{"name":"assets","type":"address[]","internalType":"contract IERC20[]"},{"name":"amounts","type":"uint256[]","internalType":"uint256[]"}],"outputs":[],"stateMutability":"nonpayable"},{"type":"function","name":"stakeAssetsToNodes","inputs":[{"name":"allocations","type":"tuple[]","internalType":"struct ILiquidTokenManager.NodeAllocation[]","components":[{"name":"nodeId","type":"uint256","internalType":"uint256"},{"name":"assets","type":"address[]","internalType":"contract IERC20[]"},{"name":"amounts","type":"uint256[]","internalType":"uint256[]"}]}],"outputs":[],"stateMutability":"nonpayable"},{"type":"function","name":"stakerNodeCoordinator","inputs":[],"outputs":[{"name":"","type":"address","internalType":"contract IStakerNodeCoordinator"}],"stateMutability":"view"},{"type":"function","name":"strategyManager","inputs":[],"outputs":[{"name":"","type":"address","internalType":"contract IStrategyManager"}],"stateMutability":"view"},{"type":"function","name":"supportedTokens","inputs":[{"name":"","type":"uint256","internalType":"uint256"}],"outputs":[{"name":"","type":"address","internalType":"contract IERC20"}],"stateMutability":"view"},{"type":"function","name":"supportsInterface","inputs":[{"name":"interfaceId","type":"bytes4","internalType":"bytes4"}],"outputs":[{"name":"","type":"bool","internalType":"bool"}],"stateMutability":"view"},{"type":"function","name":"tokenIsSupported","inputs":[{"name":"token","type":"address","internalType":"contract IERC20"}],"outputs":[{"name":"","type":"bool","internalType":"bool"}],"stateMutability":"view"},{"type":"function","name":"tokenStrategies","inputs":[{"name":"","type":"address","internalType":"contract IERC20"}],"outputs":[{"name":"","type":"address","internalType":"contract IStrategy"}],"stateMutability":"view"},{"type":"function","name":"tokens","inputs":[{"name":"","type":"address","internalType":"contract IERC20"}],"outputs":[{"name":"decimals","type":"uint256","internalType":"uint256"},{"name":"pricePerUnit","type":"uint256","internalType":"uint256"},{"name":"volatilityThreshold","type":"uint256","internalType":"uint256"}],"stateMutability":"view"},{"type":"function","name":"undelegateNodes","inputs":[{"name":"nodeIds","type":"uint256[]","internalType":"uint256[]"}],"outputs":[],"stateMutability":"nonpayable"},{"type":"function","name":"updatePrice","inputs":[{"name":"token","type":"address","internalType":"contract IERC20"},{"name":"newPrice","type":"uint256","internalType":"uint256"}],"outputs":[],"stateMutability":"nonpayable"},{"type":"event","name":"AssetsDepositedToEigenlayer","inputs":[{"name":"assets","type":"address[]","indexed":false,"internalType":"contract IERC20[]"},{"name":"amounts","type":"uint256[]","indexed":false,"internalType":"uint256[]"},{"name":"strategies","type":"address[]","indexed":false,"internalType":"contract IStrategy[]"},{"name":"depositor","type":"address","indexed":true,"internalType":"address"}],"anonymous":false},{"type":"event","name":"AssetsStakedToNode","inputs":[{"name":"nodeId","type":"uint256","indexed":true,"internalType":"uint256"},{"name":"assets","type":"address[]","indexed":false,"internalType":"contract IERC20[]"},{"name":"amounts","type":"uint256[]","indexed":false,"internalType":"uint256[]"},{"name":"staker","type":"address","indexed":true,"internalType":"address"}],"anonymous":false},{"type":"event","name":"Initialized","inputs":[{"name":"version","type":"uint64","indexed":false,"internalType":"uint64"}],"anonymous":false},{"type":"event","name":"NodeDelegated","inputs":[{"name":"nodeId","type":"uint256","indexed":false,"internalType":"uint256"},{"name":"operator","type":"address","indexed":true,"internalType":"address"}],"anonymous":false},{"type":"event","name":"NodeUndelegated","inputs":[{"name":"nodeId","type":"uint256","indexed":false,"internalType":"uint256"},{"name":"operator","type":"address","indexed":true,"internalType":"address"}],"anonymous":false},{"type":"event","name":"RoleAdminChanged","inputs":[{"name":"role","type":"bytes32","indexed":true,"internalType":"bytes32"},{"name":"previousAdminRole","type":"bytes32","indexed":true,"internalType":"bytes32"},{"name":"newAdminRole","type":"bytes32","indexed":true,"internalType":"bytes32"}],"anonymous":false},{"type":"event","name":"RoleGranted","inputs":[{"name":"role","type":"bytes32","indexed":true,"internalType":"bytes32"},{"name":"account","type":"address","indexed":true,"internalType":"address"},{"name":"sender","type":"address","indexed":true,"internalType":"address"}],"anonymous":false},{"type":"event","name":"RoleRevoked","inputs":[{"name":"role","type":"bytes32","indexed":true,"internalType":"bytes32"},{"name":"account","type":"address","indexed":true,"internalType":"address"},{"name":"sender","type":"address","indexed":true,"internalType":"address"}],"anonymous":false},{"type":"event","name":"TokenAdded","inputs":[{"name":"token","type":"address","indexed":true,"internalType":"contract IERC20"},{"name":"decimals","type":"uint256","indexed":false,"internalType":"uint256"},{"name":"initialPrice","type":"uint256","indexed":false,"internalType":"uint256"},{"name":"volatilityThreshold","type":"uint256","indexed":false,"internalType":"uint256"},{"name":"strategy","type":"address","indexed":true,"internalType":"address"},{"name":"setter","type":"address","indexed":true,"internalType":"address"}],"anonymous":false},{"type":"event","name":"TokenPriceUpdated","inputs":[{"name":"token","type":"address","indexed":true,"internalType":"contract IERC20"},{"name":"oldPrice","type":"uint256","indexed":false,"internalType":"uint256"},{"name":"newPrice","type":"uint256","indexed":false,"internalType":"uint256"},{"name":"updater","type":"address","indexed":true,"internalType":"address"}],"anonymous":false},{"type":"event","name":"TokenRemoved","inputs":[{"name":"token","type":"address","indexed":true,"internalType":"contract IERC20"},{"name":"remover","type":"address","indexed":true,"internalType":"address"}],"anonymous":false},{"type":"event","name":"VolatilityCheckFailed","inputs":[{"name":"token","type":"address","indexed":true,"internalType":"contract IERC20"},{"name":"oldPrice","type":"uint256","indexed":false,"internalType":"uint256"},{"name":"newPrice","type":"uint256","indexed":false,"internalType":"uint256"},{"name":"changeRatio","type":"uint256","indexed":false,"internalType":"uint256"}],"anonymous":false},{"type":"event","name":"VolatilityThresholdUpdated","inputs":[{"name":"asset","type":"address","indexed":true,"internalType":"contract IERC20"},{"name":"oldThreshold","type":"uint256","indexed":false,"internalType":"uint256"},{"name":"newThreshold","type":"uint256","indexed":false,"internalType":"uint256"},{"name":"updatedBy","type":"address","indexed":true,"internalType":"address"}],"anonymous":false},{"type":"error","name":"AccessControlBadConfirmation","inputs":[]},{"type":"error","name":"AccessControlUnauthorizedAccount","inputs":[{"name":"account","type":"address","internalType":"address"},{"name":"neededRole","type":"bytes32","internalType":"bytes32"}]},{"type":"error","name":"AddressEmptyCode","inputs":[{"name":"target","type":"address","internalType":"address"}]},{"type":"error","name":"AddressInsufficientBalance","inputs":[{"name":"account","type":"address","internalType":"address"}]},{"type":"error","name":"FailedInnerCall","inputs":[]},{"type":"error","name":"InvalidDecimals","inputs":[]},{"type":"error","name":"InvalidInitialization","inputs":[]},{"type":"error","name":"InvalidNodeId","inputs":[{"name":"nodeId","type":"uint256","internalType":"uint256"}]},{"type":"error","name":"InvalidPrice","inputs":[]},{"type":"error","name":"InvalidStakingAmount","inputs":[{"name":"amount","type":"uint256","internalType":"uint256"}]},{"type":"error","name":"InvalidThreshold","inputs":[]},{"type":"error","name":"LengthMismatch","inputs":[{"name":"length1","type":"uint256","internalType":"uint256"},{"name":"length2","type":"uint256","internalType":"uint256"}]},{"type":"error","name":"MathOverflowedMulDiv","inputs":[]},{"type":"error","name":"NotInitializing","inputs":[]},{"type":"error","name":"ReentrancyGuardReentrantCall","inputs":[]},{"type":"error","name":"SafeERC20FailedOperation","inputs":[{"name":"token","type":"address","internalType":"address"}]},{"type":"error","name":"StrategyNotFound","inputs":[{"name":"asset","type":"address","internalType":"address"}]},{"type":"error","name":"TokenExists","inputs":[{"name":"asset","type":"address","internalType":"address"}]},{"type":"error","name":"TokenInUse","inputs":[{"name":"token","type":"address","internalType":"contract IERC20"}]},{"type":"error","name":"TokenNotSupported","inputs":[{"name":"token","type":"address","internalType":"contract IERC20"}]},{"type":"error","name":"VolatilityThresholdHit","inputs":[{"name":"token","type":"address","internalType":"contract IERC20"},{"name":"changeRatio","type":"uint256","internalType":"uint256"}]},{"type":"error","name":"ZeroAddress","inputs":[]}],"bytecode":{"object":"0x6080806040523460aa575f5160206131515f395f51905f525460ff8160401c16609b576002600160401b03196001600160401b038216016049575b6040516130a290816100af8239f35b6001600160401b0319166001600160401b039081175f5160206131515f395f51905f525581527fc7f505b2f371ae2175ee4913f4499e1f2633a7b5936321eed1cdaeb6115181d290602090a15f80603a565b63f92ee8a960e01b5f5260045ffd5b5f80fdfe6080806040526004361015610012575f80fd5b5f3560e01c90816301ffc9a71461203a57508063036b100c14611e615780631b8fea4314611d975780631cbf960d14611d215780631f69565f14611c76578063248a9ca314611c3f5780632f2ff15d14611bf5578063316ffd4e146114b357806336568abe1461146f57806339b70e38146114485780633b36f5c4146114085780633c8643f914611396578063457972de146111b05780635fa7b58414610dd15780635ffcfdc714610d6557806366cd5dc714610d3d57806374f2ca0514610c3d578063833eaaf514610bb45780639166a2711461090457806391d14854146108af5780639be323f414610875578063a217fddf1461085b578063c41dd9551461082c578063c6255626146107ea578063d3c7c2c714610759578063d547741f14610708578063da5be02214610610578063e4860339146105b3578063e706195014610579578063ea4d3c9b14610551578063eea53cce14610213578063f1a640f8146101f8578063f8ba1b9e146101d05763fb8d810114610192575f80fd5b346101cc575f3660031901126101cc5760206040517fd96ba01d6560c2ab35f2940dd8d70c5f5fe06236c72674237120515918198fb08152f35b5f80fd5b346101cc575f3660031901126101cc576002546040516001600160a01b039091168152602090f35b346101cc575f3660031901126101cc57602060405160128152f35b346101cc5760803660031901126101cc576004356001600160401b0381116101cc57610243903690600401612185565b602435906001600160401b0382116101cc57366023830112156101cc5781600401359161026f83612109565b9261027d60405194856120e8565b8084526024602085019160051b830101913683116101cc57602401905b828210610539575050506044356001600160401b0381116101cc576102c39036906004016121e2565b9290916064356001600160401b0381116101cc576102e59036906004016121e2565b906102ee6125a4565b82518451818103610524575080870361050e578083036104f8579436819003603e1901905f5b87811061031d57005b6002546001600160a01b0316602061033583896122ec565b51602460405180948193630735424b60e11b835260048301525afa9081156104a0575f916104bf575b506001600160a01b039081169190610376828a6122ec565b5116918a8210156104ab578160051b840135858112156101cc57840161039d83898961246b565b3591803b156101cc5760405194632e90f1ed60e11b86526004860152606060248601528135601e19833603018112156101cc578201602081359101936001600160401b0382116101cc5781360385136101cc5760c487835f97936020839884978b97604060648801528160a4880152878701378484018601879052013560848401526044830152601f01601f191681010301925af19182156104a057600192610490575b5061044c81886122ec565b517f44f8a5ef027e039bb8a373f52e881f0c60120fc758371e619f28274c2a9562c56020848060a01b03610480858d6122ec565b511692604051908152a201610314565b5f61049a916120e8565b8a610441565b6040513d5f823e3d90fd5b634e487b7160e01b5f52603260045260245ffd5b90506020813d82116104f0575b816104d9602093836120e8565b810103126101cc576104ea906123d6565b8a61035e565b3d91506104cc565b826355c5b3e360e11b5f5260045260245260445ffd5b866355c5b3e360e11b5f5260045260245260445ffd5b6355c5b3e360e11b5f5260045260245260445ffd5b60208091610546846120a3565b81520191019061029a565b346101cc575f3660031901126101cc576001546040516001600160a01b039091168152602090f35b346101cc5760203660031901126101cc576001600160a01b0361059a61208d565b165f526004602052602060405f20541515604051908152f35b346101cc5760203660031901126101cc576001600160a01b036105d461208d565b165f52600460205260405f20805461060c60026001840154930154604051938493846040919493926060820195825260208201520152565b0390f35b346101cc5760203660031901126101cc576004356001600160401b0381116101cc576106409036906004016121e2565b906106496125a4565b610651612a28565b36819003605e1901905f5b838110156106f5578060051b820135838112156101cc578201906060823603126101cc576040519161068d836120cd565b8035835260208101356001600160401b0381116101cc576106b19036908301612120565b92602081019384526040820135936001600160401b0385116101cc576106df6106ef93600196369101612185565b9182604082015251905190612aed565b0161065c565b60015f51602061302d5f395f51905f5255005b346101cc5760403660031901126101cc576107576004356107276120b7565b9061075261074d825f525f51602061300d5f395f51905f52602052600160405f20015490565b612613565b61298c565b005b346101cc575f3660031901126101cc57604051600680548083525f91825260208301917ff652222313e28459528d920b65115c16c04f3efc82aaedc97be59f3f377c0d3f91905b8181106107cb5761060c856107b7818703826120e8565b60405191829160208352602083019061222a565b82546001600160a01b03168452602090930192600192830192016107a0565b346101cc5760203660031901126101cc576004356006548110156101cc57610813602091612212565b905460405160039290921b1c6001600160a01b03168152f35b346101cc5760403660031901126101cc57602061085361084a61208d565b602435906124ae565b604051908152f35b346101cc575f3660031901126101cc5760206040515f8152f35b346101cc575f3660031901126101cc5760206040517fd804c5bf32ccb7c8f087c7a3be22668464f9b4302aec069f690a2c9ba96fc0268152f35b346101cc5760403660031901126101cc576108c86120b7565b6004355f525f51602061300d5f395f51905f5260205260405f209060018060a01b03165f52602052602060ff60405f2054166040519015158152f35b346101cc5760203660031901126101cc576004356001600160401b0381116101cc576109349036906004016121e2565b61093c6125a4565b5f5b81811061094757005b6002546001600160a01b031690602061096182858761246b565b35602460405180958193630735424b60e11b835260048301525afa9182156104a0575f92610b79575b50600354600654906001600160a01b03166109a48261232b565b6001600160a01b0390941693915f5b818110610aa6575050803b156101cc576040518092639e363ce160e01b8252604482019060406004840152600654809252606483019160065f5260205f20905f905b808210610a81575050505f83610a1c8482948498965060031984830301602485015261247b565b03925af180156104a057610a71575b50813b156101cc575f80926004604051809581936392ab89bb60e01b83525af19182156104a057600192610a61575b500161093e565b5f610a6b916120e8565b84610a5a565b5f610a7b916120e8565b84610a2b565b82546001600160a01b03168552879550602090940193600192830192909101906109f5565b610aaf81612212565b90546001600160a01b0360039290921b1c81165f90815260056020526040902054168015610b4a5790602060249260405193848092630aa794bf60e31b82528b60048301525afa80156104a0575f90610b18575b60019250610b1182876122ec565b52016109b3565b506020823d8211610b42575b81610b31602093836120e8565b810103126101cc5760019151610b03565b3d9150610b24565b610b5382612212565b9054634234b21b60e11b5f90815260039290921b1c6001600160a01b0316600452602490fd5b9091506020813d8211610bac575b81610b94602093836120e8565b810103126101cc57610ba5906123d6565b908461098a565b3d9150610b87565b346101cc5760403660031901126101cc576001600160a01b03610bd561208d565b16805f52600460205260405f209060405190610bf0826120cd565b82548083526002600185015494602085019586520154604084015215610c2b57602061085384610c2085516122d1565b905190602435612659565b6306439c6b60e01b5f5260045260245ffd5b346101cc5760203660031901126101cc57610c5661208d565b6001600160a01b038181165f8181526005602052604090205490911615610d2b575060025460405163a1174e7d60e01b8152905f90829060049082906001600160a01b03165afa9081156104a0575f91610d09575b505f91825b8251841015610cfe57610cd66001600160a01b03610cce86866122ec565b511683612ed4565b8101809111610cea57600190930192610cb0565b634e487b7160e01b5f52601160045260245ffd5b602090604051908152f35b610d2591503d805f833e610d1d81836120e8565b8101906123ea565b82610cab565b634234b21b60e11b5f5260045260245ffd5b346101cc575f3660031901126101cc576003546040516001600160a01b039091168152602090f35b346101cc5760603660031901126101cc576024356001600160401b0381116101cc57610d95903690600401612120565b604435906001600160401b0382116101cc57610db86106f5923690600401612185565b90610dc16125a4565b610dc9612a28565b600435612aed565b346101cc5760203660031901126101cc57610dea61208d565b610df2612555565b60018060a01b03811690815f52600460205260405f20604051610e14816120cd565b604060028354938484526001810154602085015201549101521561119d576040908151610e4183826120e8565b60018152601f19830136602083013783610e5a826122df565b5260035483516317d3208560e21b8152602060048201526001600160a01b03909116905f8180610e8d602482018761222a565b0381855afa9081156111935790610eab915f91611179575b506122df565b5161116657610ed8915f918551808095819463d9fa608160e01b835260206004840152602483019061222a565b03915afa9081156111275790610ef4915f9161114457506122df565b5161113157600254825163a1174e7d60e01b815291905f90839060049082906001600160a01b03165afa918215611127575f9261110b575b508151915f5b83811061106d578585600654905f5b828110610fa6575b8382815f5260046020525f60028282208281558260018201550155815f5260056020525f2080546001600160601b0360a01b16905533907fbbe55b1ff108e23e5ff1a6f5d36946eec15ec0ca0ded2bfed4cdcf697ca904605f80a3005b83610fb082612212565b905460039190911b1c6001600160a01b031614610fcf57600101610f41565b90915f198101908111610cea57611003610feb61102592612212565b905460039190911b1c6001600160a01b031692612212565b815491936001600160a01b0360039290921b82811b19909316911690911b1790565b90556006548015611059575f190161103c81612212565b81549060018060a01b039060031b1b191690556006558083610f49565b634e487b7160e01b5f52603160045260245ffd5b600460206001600160a01b0361108384866122ec565b5116875192838092635d1ca63160e01b82525afa8015611101575f906110ce575b6110af9150846124ae565b6110bb57600101610f32565b85634c9baa1560e11b5f5260045260245ffd5b506020813d82116110f9575b816110e7602093836120e8565b810103126101cc576110af90516110a4565b3d91506110da565b86513d5f823e3d90fd5b6111209192503d805f833e610d1d81836120e8565b9084610f2c565b83513d5f823e3d90fd5b82634c9baa1560e11b5f5260045260245ffd5b61116091503d805f833e61115881836120e8565b81019061235d565b85610ea5565b84634c9baa1560e11b5f5260045260245ffd5b61118d91503d805f833e61115881836120e8565b87610ea5565b85513d5f823e3d90fd5b506306439c6b60e01b5f5260045260245ffd5b346101cc5760403660031901126101cc576111c961208d565b335f9081527fc256c2f634d6da12a4a07efdac9dc2d265baedd567b31337ba6cb23fe11b48996020526040902054602435919060ff161561135f576001600160a01b03165f8181526004602052604090205415610c2b57811561135157805f526004602052600160405f20015491821561135157815f526004602052600260405f200154611296575b815f52600460205280600160405f20015560405192835260208301527fd006d7efaadd9f842363572dcebe461eca100b118063d351c31ea3345a0a317460403393a3005b82811115611342576112a88382612300565b670de0b6b3a7640000810290808204670de0b6b3a76400001490151715610cea57836112d39161230d565b825f526004602052600260405f20015481116112ef5750611252565b6040805194855260208501929092529083018190529181907f9e274992d0addc0efab8fb7762062fe9c0d3e0a786ba19b678156ad73a033fb990606090a2631bf5441b60e21b5f5260045260245260445ffd5b61134c8184612300565b6112a8565b62bfc92160e01b5f5260045ffd5b63e2517d3f60e01b5f52336004527fd96ba01d6560c2ab35f2940dd8d70c5f5fe06236c72674237120515918198fb060245260445ffd5b346101cc5760203660031901126101cc576001600160a01b036113b761208d565b1680156113f9575f818152600560205260409020546001600160a01b031680156113e657602090604051908152f35b50634234b21b60e11b5f5260045260245ffd5b63d92e233d60e01b5f5260045ffd5b346101cc5760203660031901126101cc576001600160a01b0361142961208d565b165f526005602052602060018060a01b0360405f205416604051908152f35b346101cc575f3660031901126101cc575f546040516001600160a01b039091168152602090f35b346101cc5760403660031901126101cc576114886120b7565b336001600160a01b038216036114a4576107579060043561298c565b63334bd91960e11b5f5260045ffd5b346101cc5760203660031901126101cc576004356001600160401b0381116101cc5761014060031982360301126101cc5760405161014081018181106001600160401b03821117611be15760405281600401356001600160401b0381116101cc576115249060043691850101612120565b815260248201356001600160401b0381116101cc578201366023820112156101cc57600481013561155481612109565b9161156260405193846120e8565b818352602060046060828601940283010101903682116101cc57602401915b818310611ba5575050506020820190815260448301356001600160401b0381116101cc578301366023820112156101cc576004810135906115c182612109565b916115cf60405193846120e8565b808352602060048185019260051b84010101913683116101cc57602401905b828210611b8d575050506040830190815260648401356001600160a01b03811681036101cc576060840190815260848501356001600160a01b03811681036101cc576080850190815260a4860135916001600160a01b03831683036101cc5760a0860192835260c4870135906001600160a01b03821682036101cc5760c0870191825261167d60e489016120a3565b9760e088019889526116a761012461169861010484016120a3565b926101008b01938452016120a3565b9061012089019182525f51602061304d5f395f51905f52549960ff8b60401c16159a6001600160401b03811680159081611b85575b6001149081611b7b575b159081611b72575b50611b635767ffffffffffffffff1981166001175f51602061304d5f395f51905f52558b611b37575b50611720612f63565b611728612f63565b611730612f63565b60015f51602061302d5f395f51905f525585516001600160a01b0316158015611b25575b8015611b13575b8015611b01575b8015611aef575b6113f9578951518951519081810361052457505089515188515190818103610524575050516117c992916117b9916117a9906001600160a01b03166126ed565b50516001600160a01b0316612789565b50516001600160a01b0316612842565b5051600380546001600160a01b03199081166001600160a01b0393841617909155915160028054841691831691909117905591515f80548316918416919091178155925160018054909216921691909117905583515192905b838110611887578561183057005b68ff0000000000000000195f51602061304d5f395f51905f5254165f51602061304d5f395f51905f52557fc7f505b2f371ae2175ee4913f4499e1f2633a7b5936321eed1cdaeb6115181d2602060405160018152a1005b84516001600160a01b039061189d9083906122ec565b5116158015611ad0575b6113f9576118b68183516122ec565b515115611ac15760406118ca8284516122ec565b510151151580611a82575b611a735784516001600160a01b03906118ef9083906122ec565b51165f52600460205260405f2054611a4b578061190f60019284516122ec565b51828060a01b036119218389516122ec565b51165f52600460205260026040805f2092805184556020810151868501550151910155818060a01b036119558286516122ec565b5116828060a01b036119688389516122ec565b51165f52600560205260405f2090838060a01b03166001600160601b0360a01b8254161790556119a9828060a01b036119a28389516122ec565b5116612266565b818060a01b036119ba8288516122ec565b51166119c78285516122ec565b51519060206119d78487516122ec565b510151907f16b06db6c9713b833a538658ead722c19db1c4e9408a99bb4e3ad62bf9996ac06040611a098689516122ec565b510151868060a01b03611a1d878b516122ec565b511693611a426040519283923398846040919493926060820195825260208201520152565b0390a401611822565b84516001600160a01b0391611a5f916122ec565b511663f49f099960e01b5f5260045260245ffd5b63aabd5a0960e01b5f5260045ffd5b50662386f26fc100006040611a988385516122ec565b51015110806118d55750670de0b6b3a76400006040611ab88385516122ec565b510151116118d5565b630692acc560e51b5f5260045ffd5b5082516001600160a01b0390611ae79083906122ec565b5116156118a7565b5082516001600160a01b031615611769565b5080516001600160a01b031615611762565b5083516001600160a01b03161561175b565b5086516001600160a01b031615611754565b68ffffffffffffffffff191668010000000000000001175f51602061304d5f395f51905f52558b611717565b63f92ee8a960e01b5f5260045ffd5b9050158d6116ee565b303b1591506116e6565b8d91506116dc565b60208091611b9a846120a3565b8152019101906115ee565b6060833603126101cc576020606091604051611bc0816120cd565b85358152828601358382015260408601356040820152815201920191611581565b634e487b7160e01b5f52604160045260245ffd5b346101cc5760403660031901126101cc57610757600435611c146120b7565b90611c3a61074d825f525f51602061300d5f395f51905f52602052600160405f20015490565b6128fb565b346101cc5760203660031901126101cc5760206108536004355f525f51602061300d5f395f51905f52602052600160405f20015490565b346101cc5760203660031901126101cc57611c8f61208d565b5f60408051611c9d816120cd565b8281526020810183905201526001600160a01b031680156113f957805f52600460205260405f2060405190611cd1826120cd565b8054908183526002600182015491602085019283520154916040840192835215611d0e576060935060405192518352516020830152516040820152f35b836306439c6b60e01b5f5260045260245ffd5b346101cc5760403660031901126101cc576001600160a01b03611d4261208d565b16805f52600460205260405f2060405191611d5c836120cd565b81548084526002600184015493602086019485520154604085015215610c2b57602061085384611d8e855191516122d1565b90602435612659565b346101cc5760403660031901126101cc57611db061208d565b60243590611dbc612555565b6001600160a01b031680156113f957805f52600460205260405f205415610c2b5781151580611e40575b611a7357805f526004602052600260405f200154604051908152826020820152817ff8f0db3b5d1acc00708a69d58361dc010912e040c8d4f8963f75bf736516e33560403393a35f526004602052600260405f2001555f80f35b50662386f26fc10000821080611de65750670de0b6b3a76400008211611de6565b346101cc5760a03660031901126101cc57611e7a61208d565b6024359060ff82168092036101cc576084356001600160a01b038116919060643590604435908490036101cc57611eaf612555565b6001600160a01b038381165f81815260056020526040902054909491166120275783156113f9578515611ac15781156113515782151580612006575b611a735784156113f95760405163313ce56760e01b8152602081600481885afa5f9181611fc8575b50611fb3575b50611f7b90604051611f2a816120cd565b8781526002602082018581526040830190878252885f52600460205260405f209351845551600184015551910155845f52600560205260405f20866001600160601b0360a01b825416179055612266565b604051948552602085015260408401527f16b06db6c9713b833a538658ead722c19db1c4e9408a99bb4e3ad62bf9996ac060603394a4005b60ff168015611ac1578603611ac15786611f19565b9091506020813d602011611ffe575b81611fe4602093836120e8565b810103126101cc575160ff811681036101cc579088611f13565b3d9150611fd7565b50662386f26fc10000831080611eeb5750670de0b6b3a76400008311611eeb565b8363f49f099960e01b5f5260045260245ffd5b346101cc5760203660031901126101cc576004359063ffffffff60e01b82168092036101cc57602091637965db0b60e01b811490811561207c575b5015158152f35b6301ffc9a760e01b14905083612075565b600435906001600160a01b03821682036101cc57565b35906001600160a01b03821682036101cc57565b602435906001600160a01b03821682036101cc57565b606081019081106001600160401b03821117611be157604052565b90601f801991011681019081106001600160401b03821117611be157604052565b6001600160401b038111611be15760051b60200190565b9080601f830112156101cc57813561213781612109565b9261214560405194856120e8565b81845260208085019260051b8201019283116101cc57602001905b82821061216d5750505090565b6020809161217a846120a3565b815201910190612160565b9080601f830112156101cc57813561219c81612109565b926121aa60405194856120e8565b81845260208085019260051b8201019283116101cc57602001905b8282106121d25750505090565b81358152602091820191016121c5565b9181601f840112156101cc578235916001600160401b0383116101cc576020808501948460051b0101116101cc57565b6006548110156104ab5760065f5260205f2001905f90565b90602080835192838152019201905f5b8181106122475750505090565b82516001600160a01b031684526020938401939092019160010161223a565b60065468010000000000000000811015611be157600181016006556006548110156104ab5760065f527ff652222313e28459528d920b65115c16c04f3efc82aaedc97be59f3f377c0d3f01805490916001600160a01b03199091166001600160a01b03909116179055565b604d8111610cea57600a0a90565b8051156104ab5760200190565b80518210156104ab5760209160051b010190565b91908203918211610cea57565b8115612317570490565b634e487b7160e01b5f52601260045260245ffd5b9061233582612109565b61234260405191826120e8565b8281528092612353601f1991612109565b0190602036910137565b6020818303126101cc578051906001600160401b0382116101cc57019080601f830112156101cc57815161239081612109565b9261239e60405194856120e8565b81845260208085019260051b8201019283116101cc57602001905b8282106123c65750505090565b81518152602091820191016123b9565b51906001600160a01b03821682036101cc57565b6020818303126101cc578051906001600160401b0382116101cc57019080601f830112156101cc57815161241d81612109565b9261242b60405194856120e8565b81845260208085019260051b8201019283116101cc57602001905b8282106124535750505090565b60208091612460846123d6565b815201910190612446565b91908110156104ab5760051b0190565b90602080835192838152019201905f5b8181106124985750505090565b825184526020938401939092019160010161248b565b6001600160a01b038181165f8181526005602052604090205490911615610d2b5750600254604051630735424b60e11b81526004810193909352602090839060249082906001600160a01b03165afa9081156104a0575f91612518575b6125159250612ed4565b90565b90506020823d60201161254d575b81612533602093836120e8565b810103126101cc57612547612515926123d6565b9061250b565b3d9150612526565b335f9081527fb7db2dd08fcb62d0c9e08c51941cae53c267786a0b75803fb7960902fc8ef97d602052604090205460ff161561258d57565b63e2517d3f60e01b5f52336004525f60245260445ffd5b335f9081527f37df822218fcaee7cde51d4f45157536d4cc7c7d03801a2f229c91ffc1ea9c16602052604090205460ff16156125dc57565b63e2517d3f60e01b5f52336004527fd804c5bf32ccb7c8f087c7a3be22668464f9b4302aec069f690a2c9ba96fc02660245260445ffd5b5f8181525f51602061300d5f395f51905f526020908152604080832033845290915290205460ff16156126435750565b63e2517d3f60e01b5f523360045260245260445ffd5b9091828202915f19848209938380861095039480860395146126e057848311156126d157829109815f0382168092046002816003021880820260020302808202600203028082026002030280820260020302808202600203028091026002030293600183805f03040190848311900302920304170290565b63227bc15360e01b5f5260045ffd5b505090612515925061230d565b6001600160a01b0381165f9081527fb7db2dd08fcb62d0c9e08c51941cae53c267786a0b75803fb7960902fc8ef97d602052604090205460ff16612784576001600160a01b03165f8181527fb7db2dd08fcb62d0c9e08c51941cae53c267786a0b75803fb7960902fc8ef97d60205260408120805460ff191660011790553391905f516020612fed5f395f51905f528180a4600190565b505f90565b6001600160a01b0381165f9081527f37df822218fcaee7cde51d4f45157536d4cc7c7d03801a2f229c91ffc1ea9c16602052604090205460ff16612784576001600160a01b03165f8181527f37df822218fcaee7cde51d4f45157536d4cc7c7d03801a2f229c91ffc1ea9c1660205260408120805460ff191660011790553391907fd804c5bf32ccb7c8f087c7a3be22668464f9b4302aec069f690a2c9ba96fc026905f516020612fed5f395f51905f529080a4600190565b6001600160a01b0381165f9081527fc256c2f634d6da12a4a07efdac9dc2d265baedd567b31337ba6cb23fe11b4899602052604090205460ff16612784576001600160a01b03165f8181527fc256c2f634d6da12a4a07efdac9dc2d265baedd567b31337ba6cb23fe11b489960205260408120805460ff191660011790553391907fd96ba01d6560c2ab35f2940dd8d70c5f5fe06236c72674237120515918198fb0905f516020612fed5f395f51905f529080a4600190565b5f8181525f51602061300d5f395f51905f52602090815260408083206001600160a01b038616845290915290205460ff16612986575f8181525f51602061300d5f395f51905f52602090815260408083206001600160a01b0395909516808452949091528120805460ff19166001179055339291905f516020612fed5f395f51905f529080a4600190565b50505f90565b5f8181525f51602061300d5f395f51905f52602090815260408083206001600160a01b038616845290915290205460ff1615612986575f8181525f51602061300d5f395f51905f52602090815260408083206001600160a01b0395909516808452949091528120805460ff19169055339291907ff6391f5c32d9c69d2a47ea670b442974b53935d1edc7fd64eb21e047a839171b9080a4600190565b60025f51602061302d5f395f51905f525414612a515760025f51602061302d5f395f51905f5255565b633ee5aeb560e01b5f5260045ffd5b9091612a776125159360408452604084019061222a565b91602081840391015261247b565b91612a9b612aa99260608552606085019061222a565b90838203602085015261247b565b906040818303910152602080835192838152019201905f5b818110612ace5750505090565b82516001600160a01b0316845260209384019390920191600101612ac1565b9190805191805191828403612ebd57600254604051630735424b60e11b8152600481018790525f96909291602090849060249082906001600160a01b03165afa9283156104a0575f93612e81575b50612b4586612109565b93612b5360405195866120e8565b868552601f19612b6288612109565b013660208701375f5b878110612e0c57506003546001600160a01b0316803b156101cc575f6040518092634c69211160e01b8252818381612ba7888b60048401612a60565b03925af180156104a057612df7575b50612bc9612bc38861232b565b9661232b565b96885b818110612ca9575050612c087f0e5e80da96ba63170c5e8df1b827c4b5cd08d747cd301536aad1a917d243907391604051918291339683612a60565b0390a36001600160a01b031693843b15612c9b57604051636fc9f70d60e11b8152818180612c3b86898960048501612a85565b0381838a5af18015612c9e57612c86575b505090612c817f51a206831b339426847565f9ab7308ed1db311003fe45c5c5bd48db5391d4bdb939260405193849384612a85565b0390a2565b612c918280926120e8565b612c9b5780612c4c565b80fd5b6040513d84823e3d90fd5b6001600160a01b03612cbb82876122ec565b5116612cc7828a6122ec565b52612cd281846122ec565b51612cdd828b6122ec565b526001600160a01b03612cf082876122ec565b51168a80612cfe84876122ec565b5160405163a9059cbb60e01b602082019081526001600160a01b038c166024830152604480830193909352918152612d376064826120e8565b519082855af13d15612deb573d6001600160401b038111612dd757612d81918d9160405190612d706020601f19601f84011601836120e8565b8152809260203d92013e5b83612f8e565b8051908115159182612daf575b5050612d9d5750600101612bcc565b635274afe760e01b8b5260045260248afd5b8192509060209181010312612dd35760200151801590811503612dd3575f80612d8e565b8b80fd5b634e487b7160e01b8d52604160045260248dfd5b612d8190606090612d7b565b612e049198505f906120e8565b5f965f612bb6565b6001600160a01b03612e1e82866122ec565b5116612e2a82846122ec565b5115612e64575f818152600560205260409020546001600160a01b0316908115610d2b575090600191612e5d82896122ec565b5201612b6b565b50612e6e916122ec565b5163fdea5f4d60e01b5f5260045260245ffd5b9092506020813d602011612eb5575b81612e9d602093836120e8565b810103126101cc57612eae906123d6565b915f612b3b565b3d9150612e90565b82846355c5b3e360e11b5f5260045260245260445ffd5b6001600160a01b039081165f8181526005602052604090205490911691908215610d2b5750604051630aa794bf60e31b81526001600160a01b03909116600482015290602090829060249082905afa9081156104a0575f91612f34575090565b90506020813d602011612f5b575b81612f4f602093836120e8565b810103126101cc575190565b3d9150612f42565b60ff5f51602061304d5f395f51905f525460401c1615612f7f57565b631afcd79f60e31b5f5260045ffd5b90612fb25750805115612fa357805190602001fd5b630a12f52160e11b5f5260045ffd5b81511580612fe3575b612fc3575090565b639996b31560e01b5f9081526001600160a01b0391909116600452602490fd5b50803b15612fbb56fe2f8788117e7eff1d82e926ec794901d17c78024a50270940304540a733656f0d02dd7bc7dec4dceedda775e58dd541e08a116c6c53815c0bd028192f7b6268009b779b17422d0df92223018b32b4d1fa46e071723d6817e2486d003becc55f00f0c57e16840df040f15088dc2f81fe391c3923bec73e23a9662efc9c229c6a00a2646970667358221220c94f67ae1feff7604efa174c1e26343275f9ee0e772807ff863a564ccc0c0f6b64736f6c634300081b0033f0c57e16840df040f15088dc2f81fe391c3923bec73e23a9662efc9c229c6a00","linkReferences":{}},"methodIdentifiers":{"DEFAULT_ADMIN_ROLE()":"a217fddf","PRICE_DECIMALS()":"f1a640f8","PRICE_UPDATER_ROLE()":"fb8d8101","STRATEGY_CONTROLLER_ROLE()":"9be323f4","addToken(address,uint8,uint256,uint256,address)":"036b100c","convertFromUnitOfAccount(address,uint256)":"833eaaf5","convertToUnitOfAccount(address,uint256)":"1cbf960d","delegateNodes(uint256[],address[],(bytes,uint256)[],bytes32[])":"eea53cce","delegationManager()":"ea4d3c9b","getRoleAdmin(bytes32)":"248a9ca3","getStakedAssetBalance(address)":"74f2ca05","getStakedAssetBalanceNode(address,uint256)":"c41dd955","getSupportedTokens()":"d3c7c2c7","getTokenInfo(address)":"1f69565f","getTokenStrategy(address)":"3c8643f9","grantRole(bytes32,address)":"2f2ff15d","hasRole(bytes32,address)":"91d14854","initialize((address[],(uint256,uint256,uint256)[],address[],address,address,address,address,address,address,address))":"316ffd4e","liquidToken()":"66cd5dc7","removeToken(address)":"5fa7b584","renounceRole(bytes32,address)":"36568abe","revokeRole(bytes32,address)":"d547741f","setVolatilityThreshold(address,uint256)":"1b8fea43","stakeAssetsToNode(uint256,address[],uint256[])":"5ffcfdc7","stakeAssetsToNodes((uint256,address[],uint256[])[])":"da5be022","stakerNodeCoordinator()":"f8ba1b9e","strategyManager()":"39b70e38","supportedTokens(uint256)":"c6255626","supportsInterface(bytes4)":"01ffc9a7","tokenIsSupported(address)":"e7061950","tokenStrategies(address)":"3b36f5c4","tokens(address)":"e4860339","undelegateNodes(uint256[])":"9166a271","updatePrice(address,uint256)":"457972de"},"id":71}