{"abi":[{"type":"constructor","inputs":[],"stateMutability":"nonpayable"},{"type":"function","name":"LIQUID_TOKEN_MANAGER_ROLE","inputs":[],"outputs":[{"name":"","type":"bytes32","internalType":"bytes32"}],"stateMutability":"view"},{"type":"function","name":"STAKER_NODES_DELEGATOR_ROLE","inputs":[],"outputs":[{"name":"","type":"bytes32","internalType":"bytes32"}],"stateMutability":"view"},{"type":"function","name":"coordinator","inputs":[],"outputs":[{"name":"","type":"address","internalType":"contract IStakerNodeCoordinator"}],"stateMutability":"view"},{"type":"function","name":"delegate","inputs":[{"name":"operator","type":"address","internalType":"address"},{"name":"signature","type":"tuple","internalType":"struct ISignatureUtilsMixinTypes.SignatureWithExpiry","components":[{"name":"signature","type":"bytes","internalType":"bytes"},{"name":"expiry","type":"uint256","internalType":"uint256"}]},{"name":"approverSalt","type":"bytes32","internalType":"bytes32"}],"outputs":[],"stateMutability":"nonpayable"},{"type":"function","name":"depositAssets","inputs":[{"name":"assets","type":"address[]","internalType":"contract IERC20[]"},{"name":"amounts","type":"uint256[]","internalType":"uint256[]"},{"name":"strategies","type":"address[]","internalType":"contract IStrategy[]"}],"outputs":[],"stateMutability":"nonpayable"},{"type":"function","name":"getId","inputs":[],"outputs":[{"name":"","type":"uint256","internalType":"uint256"}],"stateMutability":"view"},{"type":"function","name":"getInitializedVersion","inputs":[],"outputs":[{"name":"","type":"uint64","internalType":"uint64"}],"stateMutability":"view"},{"type":"function","name":"getOperatorDelegation","inputs":[],"outputs":[{"name":"","type":"address","internalType":"address"}],"stateMutability":"view"},{"type":"function","name":"id","inputs":[],"outputs":[{"name":"","type":"uint256","internalType":"uint256"}],"stateMutability":"view"},{"type":"function","name":"implementation","inputs":[],"outputs":[{"name":"","type":"address","internalType":"address"}],"stateMutability":"view"},{"type":"function","name":"initialize","inputs":[{"name":"init","type":"tuple","internalType":"struct IStakerNode.Init","components":[{"name":"coordinator","type":"address","internalType":"contract IStakerNodeCoordinator"},{"name":"id","type":"uint256","internalType":"uint256"}]}],"outputs":[],"stateMutability":"nonpayable"},{"type":"function","name":"operatorDelegation","inputs":[],"outputs":[{"name":"","type":"address","internalType":"address"}],"stateMutability":"view"},{"type":"function","name":"undelegate","inputs":[],"outputs":[],"stateMutability":"nonpayable"},{"type":"event","name":"AssetDepositedToStrategy","inputs":[{"name":"asset","type":"address","indexed":true,"internalType":"contract IERC20"},{"name":"strategy","type":"address","indexed":true,"internalType":"contract IStrategy"},{"name":"amount","type":"uint256","indexed":false,"internalType":"uint256"},{"name":"shares","type":"uint256","indexed":false,"internalType":"uint256"}],"anonymous":false},{"type":"event","name":"DelegatedToOperator","inputs":[{"name":"operator","type":"address","indexed":false,"internalType":"address"}],"anonymous":false},{"type":"event","name":"Initialized","inputs":[{"name":"version","type":"uint64","indexed":false,"internalType":"uint64"}],"anonymous":false},{"type":"event","name":"UndelegatedFromOperator","inputs":[{"name":"operator","type":"address","indexed":false,"internalType":"address"}],"anonymous":false},{"type":"error","name":"AddressEmptyCode","inputs":[{"name":"target","type":"address","internalType":"address"}]},{"type":"error","name":"AddressInsufficientBalance","inputs":[{"name":"account","type":"address","internalType":"address"}]},{"type":"error","name":"FailedInnerCall","inputs":[]},{"type":"error","name":"InvalidInitialization","inputs":[]},{"type":"error","name":"NodeIsDelegated","inputs":[{"name":"operatorDelegation","type":"address","internalType":"address"}]},{"type":"error","name":"NodeIsNotDelegated","inputs":[]},{"type":"error","name":"NotInitializing","inputs":[]},{"type":"error","name":"NotLiquidTokenManager","inputs":[]},{"type":"error","name":"NotStakerNodeDelegator","inputs":[]},{"type":"error","name":"NotStakerNodeOperator","inputs":[]},{"type":"error","name":"ReentrancyGuardReentrantCall","inputs":[]},{"type":"error","name":"SafeERC20FailedOperation","inputs":[{"name":"token","type":"address","internalType":"address"}]},{"type":"error","name":"UnauthorizedAccess","inputs":[{"name":"caller","type":"address","internalType":"address"},{"name":"requiredRole","type":"bytes32","internalType":"bytes32"}]},{"type":"error","name":"ZeroAddress","inputs":[]}],"bytecode":{"object":"0x6080806040523460aa575f5160206110a05f395f51905f525460ff8160401c16609b576002600160401b03196001600160401b038216016049575b604051610ff190816100af8239f35b6001600160401b0319166001600160401b039081175f5160206110a05f395f51905f525581527fc7f505b2f371ae2175ee4913f4499e1f2633a7b5936321eed1cdaeb6115181d290602090a15f80603a565b63f92ee8a960e01b5f5260045ffd5b5f80fdfe6080806040526004361015610012575f80fd5b5f905f3560e01c9081630a00909714610d405750806326ed8a1614610d185780635c5da54514610d185780635c60da1b14610c5e5780635d1ca63114610c415780635d21e3da1461099557806377b34927146107d357806392ab89bb1461056d5780639da9dbc014610532578063af640d0f14610514578063b3c65015146104e1578063df93ee1a146100ea5763e36de37e146100ad575f80fd5b346100e757806003193601126100e75760206040517f72f02ce734d00ac0f2946de9815113b07f4178aebe5a730a79beace22eebb2738152f35b80fd5b50346100e75760603660031901126100e7576004356001600160401b0381116104dd5761011b903690600401610dcd565b906024356001600160401b0381116104025761013b903690600401610dcd565b6044356001600160401b0381116103fe5761015a903690600401610dcd565b909460025f516020610f7c5f395f51905f5254146104ce5760025f516020610f7c5f395f51905f5255865460405163d13a9c9160e01b815233600482015290602090829060249082906001600160a01b03165afa90811561044e57889161049f575b5015610468576002546001600160a01b031615610459578654604051630736e1c760e31b81529493929190602090869060049082906001600160a01b03165afa94851561044e578895610406575b5087805b82811061022a575060015f516020610f7c5f395f51905f525580f35b61023581848a610e34565b356001600160a01b038116808203610402578a61025f8488610258828c8e610e34565b3593610e34565b356001600160a01b03811693908490036103fe5760209060018060a01b038c1690604051888085830163095ea7b360e01b8152856024850152876044850152604484526102ad606485610d91565b835190828a5af16102bc610e83565b816103d1575b50806103c7575b15610384575b50506064604051809881936373d0285560e11b83528860048401528760248401528660448401525af1948515610379578d95610341575b5060407f53503310980aaa28261232d7397bfa036a2b2c3f46963314b69d528b8177603f9160019682519182526020820152a301889061020e565b94506020853d8211610371575b8161035b60209383610d91565b8101031261036d579351936040610306565b8c80fd5b3d915061034e565b6040513d8f823e3d90fd5b6103c0916103bb60405163095ea7b360e01b878201528560248201528b6044820152604481526103b5606482610d91565b82610eb2565b610eb2565b5f806102cf565b50853b15156102c9565b80518015925082156103e6575b50505f6102c2565b6103f7925081018601908601610dfd565b5f806103de565b8580fd5b8380fd5b9094506020813d602011610446575b8161042260209383610d91565b8101031261044257516001600160a01b038116810361044257935f61020a565b8780fd5b3d9150610415565b6040513d8a823e3d90fd5b6354dd357760e11b8752600487fd5b630dcd852560e31b8752336004527f62a7fff3a7a45a88771218ee3d99ccb69636e5758d69282e6a4e9d4561f312ce602452604487fd5b6104c1915060203d6020116104c7575b6104b98183610d91565b810190610dfd565b5f6101bc565b503d6104af565b633ee5aeb560e01b8752600487fd5b5080fd5b50346100e757806003193601126100e75760206001600160401b035f516020610f9c5f395f51905f525416604051908152f35b50346100e757806003193601126100e7576020600154604051908152f35b50346100e757806003193601126100e75760206040517f62a7fff3a7a45a88771218ee3d99ccb69636e5758d69282e6a4e9d4561f312ce8152f35b50346100e757806003193601126100e75780546040516305e78ba960e21b815233600482015290602090829060249082906001600160a01b03165afa9081156107635782916107b4575b501561077d576002546001600160a01b0316801561076e57815460405163ea4d3c9b60e01b81528391602090829060049082906001600160a01b03165afa80156107635782918291610734575b506040516336a2fa1960e21b815230600482015292839160249183916001600160a01b03165af1801561072957610675575b5060207fbe947c09c053d6e65243a8312118b0686d1cb16cb48ee17fd1136a15ffecefd191604051908152a1600280546001600160a01b031916905580f35b3d8084833e6106848183610d91565b810190602081830312610402578051906001600160401b03821161072557019080601f83011215610402578151916001600160401b038311610711578260051b90604051936106d66020840186610d91565b84526020808501928201019283116103fe57602001905b828210610701575060209250610636915050565b81518152602091820191016106ed565b634e487b7160e01b85526041600452602485fd5b8480fd5b6040513d85823e3d90fd5b610756915060203d60201161075c575b61074e8183610d91565b810190610e15565b5f610604565b503d610744565b6040513d84823e3d90fd5b6354dd357760e11b8252600482fd5b630dcd852560e31b8152336004527f72f02ce734d00ac0f2946de9815113b07f4178aebe5a730a79beace22eebb273602452604490fd5b6107cd915060203d6020116104c7576104b98183610d91565b5f6105b7565b50346100e75760403660031901126100e7576040516107f181610d62565b6004356001600160a01b038116908181036104025782526020820190602435825215610986575f516020610f9c5f395f51905f52549160ff8360401c1615926001600160401b0381168015908161097e575b6001149081610974575b15908161096b575b5061095c5767ffffffffffffffff1981166001175f516020610f9c5f395f51905f525583610930575b50610887610e58565b61088f610e58565b60015f516020610f7c5f395f51905f525560018060a01b039051166001600160601b0360a01b845416178355516001556001600160601b0360a01b600254166002556108d85780f35b68ff0000000000000000195f516020610f9c5f395f51905f5254165f516020610f9c5f395f51905f52557fc7f505b2f371ae2175ee4913f4499e1f2633a7b5936321eed1cdaeb6115181d2602060405160018152a180f35b68ffffffffffffffffff191668010000000000000001175f516020610f9c5f395f51905f52555f61087e565b63f92ee8a960e01b8552600485fd5b9050155f610855565b303b15915061084d565b859150610843565b63d92e233d60e01b8352600483fd5b5034610bb6576060366003190112610bb6576004356001600160a01b03811690819003610bb6576024356001600160401b038111610bb65760406003198236030112610bb6576040516109e781610d62565b81600401356001600160401b038111610bb657820136602382011215610bb6576004810135610a1581610db2565b91610a236040519384610d91565b8183523660248284010111610bb657815f926024602093018386013783010152815260249182013560208083019182525f546040516305e78ba960e21b81523360048201529294839182906001600160a01b03165afa908115610bab575f91610c22575b5015610beb576002546001600160a01b031680610bd957505f5460405163ea4d3c9b60e01b815290602090829060049082906001600160a01b03165afa908115610bab575f91610bba575b506001600160a01b031691823b15610bb6576020925f928360c460405180978196829563eea9064b60e01b84528b600485015260606024850152516040606485015280519283918260a4870152018585015e848483850101525160848301526044356044830152601f801991011681010301925af18015610bab57610b95575b506020817f05db15aa3150c099f7a7054dcfc1e6a5551dab9cbf2310be9630f84b4c4f1887926001600160601b0360a01b6002541617600255604051908152a180f35b610ba29192505f90610d91565b5f906020610b52565b6040513d5f823e3d90fd5b5f80fd5b610bd3915060203d60201161075c5761074e8183610d91565b5f610ad2565b63548e264d60e01b5f5260045260245ffd5b630dcd852560e31b5f52336004527f72f02ce734d00ac0f2946de9815113b07f4178aebe5a730a79beace22eebb27360245260445ffd5b610c3b915060203d6020116104c7576104b98183610d91565b5f610a87565b34610bb6575f366003190112610bb6576020600154604051908152f35b34610bb6575f366003190112610bb6577fa3f0ad74e5423aebfd80d3ef4346578335a9a72aeaee59ff6cb3582b35133d5054604051635c60da1b60e01b815290602090829060049082906001600160a01b03165afa8015610bab575f90610cd5575b6040516001600160a01b039091168152602090f35b506020813d602011610d10575b81610cef60209383610d91565b81010312610bb657516001600160a01b0381168103610bb657602090610cc0565b3d9150610ce2565b34610bb6575f366003190112610bb6576002546040516001600160a01b039091168152602090f35b34610bb6575f366003190112610bb6575f546001600160a01b03168152602090f35b604081019081106001600160401b03821117610d7d57604052565b634e487b7160e01b5f52604160045260245ffd5b90601f801991011681019081106001600160401b03821117610d7d57604052565b6001600160401b038111610d7d57601f01601f191660200190565b9181601f84011215610bb6578235916001600160401b038311610bb6576020808501948460051b010111610bb657565b90816020910312610bb657518015158103610bb65790565b90816020910312610bb657516001600160a01b0381168103610bb65790565b9190811015610e445760051b0190565b634e487b7160e01b5f52603260045260245ffd5b60ff5f516020610f9c5f395f51905f525460401c1615610e7457565b631afcd79f60e31b5f5260045ffd5b3d15610ead573d90610e9482610db2565b91610ea26040519384610d91565b82523d5f602084013e565b606090565b5f80610eda9260018060a01b03169360208151910182865af1610ed3610e83565b9083610f1d565b8051908115159182610f02575b5050610ef05750565b635274afe760e01b5f5260045260245ffd5b610f159250602080918301019101610dfd565b155f80610ee7565b90610f415750805115610f3257805190602001fd5b630a12f52160e11b5f5260045ffd5b81511580610f72575b610f52575090565b639996b31560e01b5f9081526001600160a01b0391909116600452602490fd5b50803b15610f4a56fe9b779b17422d0df92223018b32b4d1fa46e071723d6817e2486d003becc55f00f0c57e16840df040f15088dc2f81fe391c3923bec73e23a9662efc9c229c6a00a26469706673582212203b163a509d35e5ece79509c3469d57374cec6ee0d84d291193d9ff1d3f520edc64736f6c634300081b0033f0c57e16840df040f15088dc2f81fe391c3923bec73e23a9662efc9c229c6a00","linkReferences":{}},"methodIdentifiers":{"LIQUID_TOKEN_MANAGER_ROLE()":"9da9dbc0","STAKER_NODES_DELEGATOR_ROLE()":"e36de37e","coordinator()":"0a009097","delegate(address,(bytes,uint256),bytes32)":"5d21e3da","depositAssets(address[],uint256[],address[])":"df93ee1a","getId()":"5d1ca631","getInitializedVersion()":"b3c65015","getOperatorDelegation()":"26ed8a16","id()":"af640d0f","implementation()":"5c60da1b","initialize((address,uint256))":"77b34927","operatorDelegation()":"5c5da545","undelegate()":"92ab89bb"},"id":73}