{"abi":[{"type":"function","name":"DEFAULT_ADMIN_ROLE","inputs":[],"outputs":[{"name":"","type":"bytes32","internalType":"bytes32"}],"stateMutability":"view"},{"type":"function","name":"RATE_UPDATER_ROLE","inputs":[],"outputs":[{"name":"","type":"bytes32","internalType":"bytes32"}],"stateMutability":"view"},{"type":"function","name":"batchUpdateRates","inputs":[{"name":"tokens","type":"address[]","internalType":"contract IERC20[]"},{"name":"newRates","type":"uint256[]","internalType":"uint256[]"}],"outputs":[],"stateMutability":"nonpayable"},{"type":"function","name":"getRate","inputs":[{"name":"token","type":"address","internalType":"contract IERC20"}],"outputs":[{"name":"","type":"uint256","internalType":"uint256"}],"stateMutability":"view"},{"type":"function","name":"getRoleAdmin","inputs":[{"name":"role","type":"bytes32","internalType":"bytes32"}],"outputs":[{"name":"","type":"bytes32","internalType":"bytes32"}],"stateMutability":"view"},{"type":"function","name":"grantRole","inputs":[{"name":"role","type":"bytes32","internalType":"bytes32"},{"name":"account","type":"address","internalType":"address"}],"outputs":[],"stateMutability":"nonpayable"},{"type":"function","name":"hasRole","inputs":[{"name":"role","type":"bytes32","internalType":"bytes32"},{"name":"account","type":"address","internalType":"address"}],"outputs":[{"name":"","type":"bool","internalType":"bool"}],"stateMutability":"view"},{"type":"function","name":"initialize","inputs":[{"name":"init","type":"tuple","internalType":"struct ITokenRegistryOracle.Init","components":[{"name":"initialOwner","type":"address","internalType":"address"},{"name":"priceUpdater","type":"address","internalType":"address"},{"name":"liquidTokenManager","type":"address","internalType":"contract ILiquidTokenManager"}]}],"outputs":[],"stateMutability":"nonpayable"},{"type":"function","name":"liquidTokenManager","inputs":[],"outputs":[{"name":"","type":"address","internalType":"contract ILiquidTokenManager"}],"stateMutability":"view"},{"type":"function","name":"renounceRole","inputs":[{"name":"role","type":"bytes32","internalType":"bytes32"},{"name":"callerConfirmation","type":"address","internalType":"address"}],"outputs":[],"stateMutability":"nonpayable"},{"type":"function","name":"revokeRole","inputs":[{"name":"role","type":"bytes32","internalType":"bytes32"},{"name":"account","type":"address","internalType":"address"}],"outputs":[],"stateMutability":"nonpayable"},{"type":"function","name":"supportsInterface","inputs":[{"name":"interfaceId","type":"bytes4","internalType":"bytes4"}],"outputs":[{"name":"","type":"bool","internalType":"bool"}],"stateMutability":"view"},{"type":"function","name":"updateRate","inputs":[{"name":"token","type":"address","internalType":"contract IERC20"},{"name":"newRate","type":"uint256","internalType":"uint256"}],"outputs":[],"stateMutability":"nonpayable"},{"type":"event","name":"Initialized","inputs":[{"name":"version","type":"uint64","indexed":false,"internalType":"uint64"}],"anonymous":false},{"type":"event","name":"RoleAdminChanged","inputs":[{"name":"role","type":"bytes32","indexed":true,"internalType":"bytes32"},{"name":"previousAdminRole","type":"bytes32","indexed":true,"internalType":"bytes32"},{"name":"newAdminRole","type":"bytes32","indexed":true,"internalType":"bytes32"}],"anonymous":false},{"type":"event","name":"RoleGranted","inputs":[{"name":"role","type":"bytes32","indexed":true,"internalType":"bytes32"},{"name":"account","type":"address","indexed":true,"internalType":"address"},{"name":"sender","type":"address","indexed":true,"internalType":"address"}],"anonymous":false},{"type":"event","name":"RoleRevoked","inputs":[{"name":"role","type":"bytes32","indexed":true,"internalType":"bytes32"},{"name":"account","type":"address","indexed":true,"internalType":"address"},{"name":"sender","type":"address","indexed":true,"internalType":"address"}],"anonymous":false},{"type":"event","name":"TokenRateUpdated","inputs":[{"name":"token","type":"address","indexed":true,"internalType":"contract IERC20"},{"name":"oldRate","type":"uint256","indexed":false,"internalType":"uint256"},{"name":"newRate","type":"uint256","indexed":false,"internalType":"uint256"},{"name":"updater","type":"address","indexed":true,"internalType":"address"}],"anonymous":false},{"type":"error","name":"AccessControlBadConfirmation","inputs":[]},{"type":"error","name":"AccessControlUnauthorizedAccount","inputs":[{"name":"account","type":"address","internalType":"address"},{"name":"neededRole","type":"bytes32","internalType":"bytes32"}]},{"type":"error","name":"InvalidInitialization","inputs":[]},{"type":"error","name":"NotInitializing","inputs":[]}],"bytecode":{"object":"0x60808060405234601557610c50908161001a8239f35b5f80fdfe6080806040526004361015610012575f80fd5b5f3560e01c90816301ffc9a71461063657508063214ac8fa1461054957806321d26d751461050f578063248a9ca3146104d05780632f2ff15d1461048657806336568abe1461044257806337cef791146103a457806351b4005e1461037d57806391d1485414610328578063a217fddf1461030e578063b558d1ea146102e1578063d26b3e26146101005763d547741f146100ab575f80fd5b346100fc5760403660031901126100fc576100fa6004356100ca6106ba565b906100f56100f0825f525f516020610bdb5f395f51905f52602052600160405f20015490565b6107fc565b610b3e565b005b5f80fd5b346100fc5760603660031901126100fc5760405161011d816106e6565b6101256106d0565b815261012f6106ba565b6020820190815290604435906001600160a01b03821682036100fc57604081019182525f516020610bfb5f395f51905f52549260ff8460401c16159367ffffffffffffffff8116801590816102d9575b60011490816102cf575b1590816102c6575b506102b75767ffffffffffffffff1981166001175f516020610bfb5f395f51905f52558461028b575b5060ff5f516020610bfb5f395f51905f525460401c161561027c5790516101fe91906101ee906001600160a01b031661091f565b50516001600160a01b03166109ce565b5060018060a01b039051166bffffffffffffffffffffffff60a01b5f5416175f5561022557005b68ff0000000000000000195f516020610bfb5f395f51905f5254165f516020610bfb5f395f51905f52557fc7f505b2f371ae2175ee4913f4499e1f2633a7b5936321eed1cdaeb6115181d2602060405160018152a1005b631afcd79f60e31b5f5260045ffd5b68ffffffffffffffffff191668010000000000000001175f516020610bfb5f395f51905f5255846101ba565b63f92ee8a960e01b5f5260045ffd5b90501586610191565b303b159150610189565b86915061017f565b346100fc5760403660031901126100fc576100fa6102fd6106d0565b61030561078d565b60243590610842565b346100fc575f3660031901126100fc5760206040515f8152f35b346100fc5760403660031901126100fc576103416106ba565b6004355f525f516020610bdb5f395f51905f5260205260405f209060018060a01b03165f52602052602060ff60405f2054166040519015158152f35b346100fc575f3660031901126100fc575f546040516001600160a01b039091168152602090f35b346100fc5760203660031901126100fc576103bd6106d0565b5f54604051631f69565f60e01b81526001600160a01b0392831660048201529160609183916024918391165afa9081156104375760209182915f91610408575b500151604051908152f35b61042a915060603d606011610430575b6104228183610716565b81019061075c565b836103fd565b503d610418565b6040513d5f823e3d90fd5b346100fc5760403660031901126100fc5761045b6106ba565b336001600160a01b03821603610477576100fa90600435610b3e565b63334bd91960e11b5f5260045ffd5b346100fc5760403660031901126100fc576100fa6004356104a56106ba565b906104cb6100f0825f525f516020610bdb5f395f51905f52602052600160405f20015490565b610a9a565b346100fc5760203660031901126100fc5760206105076004355f525f516020610bdb5f395f51905f52602052600160405f20015490565b604051908152f35b346100fc575f3660031901126100fc5760206040517fdd35c6ca7643a0c47d5f41ad013ad746ed60a503609ddce9787a26d5702bf2db8152f35b346100fc5760403660031901126100fc5760043567ffffffffffffffff81116100fc5761057a903690600401610689565b9060243567ffffffffffffffff81116100fc5761059b903690600401610689565b926105a461078d565b8381036105f1575f5b8181106105b657005b6105c1818386610738565b35906001600160a01b03821682036100fc576105eb6001926105e4838988610738565b3590610842565b016105ad565b60405162461bcd60e51b815260206004820152601860248201527f4d69736d617463686564206172726179206c656e6774687300000000000000006044820152606490fd5b346100fc5760203660031901126100fc576004359063ffffffff60e01b82168092036100fc57602091637965db0b60e01b8114908115610678575b5015158152f35b6301ffc9a760e01b14905083610671565b9181601f840112156100fc5782359167ffffffffffffffff83116100fc576020808501948460051b0101116100fc57565b602435906001600160a01b03821682036100fc57565b600435906001600160a01b03821682036100fc57565b6060810190811067ffffffffffffffff82111761070257604052565b634e487b7160e01b5f52604160045260245ffd5b90601f8019910116810190811067ffffffffffffffff82111761070257604052565b91908110156107485760051b0190565b634e487b7160e01b5f52603260045260245ffd5b908160609103126100fc576040805191610775836106e6565b80518352602081015160208401520151604082015290565b335f9081527fea0231bd38408211af4c167687718afd00f9c5c30f6c076964f346467ebe7e67602052604090205460ff16156107c557565b63e2517d3f60e01b5f52336004527fdd35c6ca7643a0c47d5f41ad013ad746ed60a503609ddce9787a26d5702bf2db60245260445ffd5b5f8181525f516020610bdb5f395f51905f526020908152604080832033845290915290205460ff161561082c5750565b63e2517d3f60e01b5f523360045260245260445ffd5b5f54604051631f69565f60e01b81526001600160a01b0392831660048201819052929091169290606081602481875afa8015610437576020915f91610900575b50015192803b156100fc575f80916044604051809481936322bcb96f60e11b83528860048401528760248401525af18015610437576108f0575b5060405192835260208301527fab1ecf5598b86562161a1791b261323a87741a7a0271ba591bf46ac98faf64c260403393a3565b5f6108fa91610716565b5f6108bc565b610919915060603d606011610430576104228183610716565b5f610882565b6001600160a01b0381165f9081527fb7db2dd08fcb62d0c9e08c51941cae53c267786a0b75803fb7960902fc8ef97d602052604090205460ff166109c9576001600160a01b03165f8181527fb7db2dd08fcb62d0c9e08c51941cae53c267786a0b75803fb7960902fc8ef97d60205260408120805460ff191660011790553391907f2f8788117e7eff1d82e926ec794901d17c78024a50270940304540a733656f0d8180a4600190565b505f90565b6001600160a01b0381165f9081527fea0231bd38408211af4c167687718afd00f9c5c30f6c076964f346467ebe7e67602052604090205460ff166109c9576001600160a01b03165f8181527fea0231bd38408211af4c167687718afd00f9c5c30f6c076964f346467ebe7e6760205260408120805460ff191660011790553391907fdd35c6ca7643a0c47d5f41ad013ad746ed60a503609ddce9787a26d5702bf2db907f2f8788117e7eff1d82e926ec794901d17c78024a50270940304540a733656f0d9080a4600190565b5f8181525f516020610bdb5f395f51905f52602090815260408083206001600160a01b038616845290915290205460ff16610b38575f8181525f516020610bdb5f395f51905f52602090815260408083206001600160a01b0395909516808452949091528120805460ff19166001179055339291907f2f8788117e7eff1d82e926ec794901d17c78024a50270940304540a733656f0d9080a4600190565b50505f90565b5f8181525f516020610bdb5f395f51905f52602090815260408083206001600160a01b038616845290915290205460ff1615610b38575f8181525f516020610bdb5f395f51905f52602090815260408083206001600160a01b0395909516808452949091528120805460ff19169055339291907ff6391f5c32d9c69d2a47ea670b442974b53935d1edc7fd64eb21e047a839171b9080a460019056fe02dd7bc7dec4dceedda775e58dd541e08a116c6c53815c0bd028192f7b626800f0c57e16840df040f15088dc2f81fe391c3923bec73e23a9662efc9c229c6a00a26469706673582212202bbc850ad03694e0bab57b4c7a820dfa4ce82ba3fbc900bd93743d482526cbc964736f6c634300081b0033","linkReferences":{}},"methodIdentifiers":{"DEFAULT_ADMIN_ROLE()":"a217fddf","RATE_UPDATER_ROLE()":"21d26d75","batchUpdateRates(address[],uint256[])":"214ac8fa","getRate(address)":"37cef791","getRoleAdmin(bytes32)":"248a9ca3","grantRole(bytes32,address)":"2f2ff15d","hasRole(bytes32,address)":"91d14854","initialize((address,address,address))":"d26b3e26","liquidTokenManager()":"51b4005e","renounceRole(bytes32,address)":"36568abe","revokeRole(bytes32,address)":"d547741f","supportsInterface(bytes4)":"01ffc9a7","updateRate(address,uint256)":"b558d1ea"},"id":79}