{"abi":[{"type":"constructor","inputs":[],"stateMutability":"nonpayable"},{"type":"function","name":"DEFAULT_ADMIN_ROLE","inputs":[],"outputs":[{"name":"","type":"bytes32","internalType":"bytes32"}],"stateMutability":"view"},{"type":"function","name":"PRICE_DECIMALS","inputs":[],"outputs":[{"name":"","type":"uint256","internalType":"uint256"}],"stateMutability":"view"},{"type":"function","name":"PRICE_UPDATER_ROLE","inputs":[],"outputs":[{"name":"","type":"bytes32","internalType":"bytes32"}],"stateMutability":"view"},{"type":"function","name":"STRATEGY_CONTROLLER_ROLE","inputs":[],"outputs":[{"name":"","type":"bytes32","internalType":"bytes32"}],"stateMutability":"view"},{"type":"function","name":"addToken","inputs":[{"name":"token","type":"address","internalType":"contract IERC20"},{"name":"decimals","type":"uint8","internalType":"uint8"},{"name":"initialPrice","type":"uint256","internalType":"uint256"},{"name":"volatilityThreshold","type":"uint256","internalType":"uint256"},{"name":"strategy","type":"address","internalType":"contract IStrategy"}],"outputs":[],"stateMutability":"nonpayable"},{"type":"function","name":"convertFromUnitOfAccount","inputs":[{"name":"token","type":"address","internalType":"contract IERC20"},{"name":"amount","type":"uint256","internalType":"uint256"}],"outputs":[{"name":"","type":"uint256","internalType":"uint256"}],"stateMutability":"view"},{"type":"function","name":"convertToUnitOfAccount","inputs":[{"name":"token","type":"address","internalType":"contract IERC20"},{"name":"amount","type":"uint256","internalType":"uint256"}],"outputs":[{"name":"","type":"uint256","internalType":"uint256"}],"stateMutability":"view"},{"type":"function","name":"delegateNodes","inputs":[{"name":"nodeIds","type":"uint256[]","internalType":"uint256[]"},{"name":"operators","type":"address[]","internalType":"address[]"},{"name":"approverSignatureAndExpiries","type":"tuple[]","internalType":"struct ISignatureUtilsMixinTypes.SignatureWithExpiry[]","components":[{"name":"signature","type":"bytes","internalType":"bytes"},{"name":"expiry","type":"uint256","internalType":"uint256"}]},{"name":"approverSalts","type":"bytes32[]","internalType":"bytes32[]"}],"outputs":[],"stateMutability":"nonpayable"},{"type":"function","name":"delegationManager","inputs":[],"outputs":[{"name":"","type":"address","internalType":"contract IDelegationManager"}],"stateMutability":"view"},{"type":"function","name":"getRoleAdmin","inputs":[{"name":"role","type":"bytes32","internalType":"bytes32"}],"outputs":[{"name":"","type":"bytes32","internalType":"bytes32"}],"stateMutability":"view"},{"type":"function","name":"getStakedAssetBalance","inputs":[{"name":"asset","type":"address","internalType":"contract IERC20"}],"outputs":[{"name":"","type":"uint256","internalType":"uint256"}],"stateMutability":"view"},{"type":"function","name":"getStakedAssetBalanceNode","inputs":[{"name":"asset","type":"address","internalType":"contract IERC20"},{"name":"nodeId","type":"uint256","internalType":"uint256"}],"outputs":[{"name":"","type":"uint256","internalType":"uint256"}],"stateMutability":"view"},{"type":"function","name":"getSupportedTokens","inputs":[],"outputs":[{"name":"","type":"address[]","internalType":"contract IERC20[]"}],"stateMutability":"view"},{"type":"function","name":"getTokenInfo","inputs":[{"name":"token","type":"address","internalType":"contract IERC20"}],"outputs":[{"name":"","type":"tuple","internalType":"struct ILiquidTokenManager.TokenInfo","components":[{"name":"decimals","type":"uint256","internalType":"uint256"},{"name":"pricePerUnit","type":"uint256","internalType":"uint256"},{"name":"volatilityThreshold","type":"uint256","internalType":"uint256"}]}],"stateMutability":"view"},{"type":"function","name":"getTokenStrategy","inputs":[{"name":"asset","type":"address","internalType":"contract IERC20"}],"outputs":[{"name":"","type":"address","internalType":"contract IStrategy"}],"stateMutability":"view"},{"type":"function","name":"grantRole","inputs":[{"name":"role","type":"bytes32","internalType":"bytes32"},{"name":"account","type":"address","internalType":"address"}],"outputs":[],"stateMutability":"nonpayable"},{"type":"function","name":"hasRole","inputs":[{"name":"role","type":"bytes32","internalType":"bytes32"},{"name":"account","type":"address","internalType":"address"}],"outputs":[{"name":"","type":"bool","internalType":"bool"}],"stateMutability":"view"},{"type":"function","name":"initialize","inputs":[{"name":"init","type":"tuple","internalType":"struct ILiquidTokenManager.Init","components":[{"name":"assets","type":"address[]","internalType":"contract IERC20[]"},{"name":"tokenInfo","type":"tuple[]","internalType":"struct ILiquidTokenManager.TokenInfo[]","components":[{"name":"decimals","type":"uint256","internalType":"uint256"},{"name":"pricePerUnit","type":"uint256","internalType":"uint256"},{"name":"volatilityThreshold","type":"uint256","internalType":"uint256"}]},{"name":"strategies","type":"address[]","internalType":"contract IStrategy[]"},{"name":"liquidToken","type":"address","internalType":"contract ILiquidToken"},{"name":"strategyManager","type":"address","internalType":"contract IStrategyManager"},{"name":"delegationManager","type":"address","internalType":"contract IDelegationManager"},{"name":"stakerNodeCoordinator","type":"address","internalType":"contract IStakerNodeCoordinator"},{"name":"initialOwner","type":"address","internalType":"address"},{"name":"strategyController","type":"address","internalType":"address"},{"name":"priceUpdater","type":"address","internalType":"address"}]}],"outputs":[],"stateMutability":"nonpayable"},{"type":"function","name":"liquidToken","inputs":[],"outputs":[{"name":"","type":"address","internalType":"contract ILiquidToken"}],"stateMutability":"view"},{"type":"function","name":"removeToken","inputs":[{"name":"token","type":"address","internalType":"contract IERC20"}],"outputs":[],"stateMutability":"nonpayable"},{"type":"function","name":"renounceRole","inputs":[{"name":"role","type":"bytes32","internalType":"bytes32"},{"name":"callerConfirmation","type":"address","internalType":"address"}],"outputs":[],"stateMutability":"nonpayable"},{"type":"function","name":"revokeRole","inputs":[{"name":"role","type":"bytes32","internalType":"bytes32"},{"name":"account","type":"address","internalType":"address"}],"outputs":[],"stateMutability":"nonpayable"},{"type":"function","name":"setVolatilityThreshold","inputs":[{"name":"asset","type":"address","internalType":"contract IERC20"},{"name":"newThreshold","type":"uint256","internalType":"uint256"}],"outputs":[],"stateMutability":"nonpayable"},{"type":"function","name":"stakeAssetsToNode","inputs":[{"name":"nodeId","type":"uint256","internalType":"uint256"},{"name":"assets","type":"address[]","internalType":"contract IERC20[]"},{"name":"amounts","type":"uint256[]","internalType":"uint256[]"}],"outputs":[],"stateMutability":"nonpayable"},{"type":"function","name":"stakeAssetsToNodes","inputs":[{"name":"allocations","type":"tuple[]","internalType":"struct ILiquidTokenManager.NodeAllocation[]","components":[{"name":"nodeId","type":"uint256","internalType":"uint256"},{"name":"assets","type":"address[]","internalType":"contract IERC20[]"},{"name":"amounts","type":"uint256[]","internalType":"uint256[]"}]}],"outputs":[],"stateMutability":"nonpayable"},{"type":"function","name":"stakerNodeCoordinator","inputs":[],"outputs":[{"name":"","type":"address","internalType":"contract IStakerNodeCoordinator"}],"stateMutability":"view"},{"type":"function","name":"strategyManager","inputs":[],"outputs":[{"name":"","type":"address","internalType":"contract IStrategyManager"}],"stateMutability":"view"},{"type":"function","name":"supportedTokens","inputs":[{"name":"","type":"uint256","internalType":"uint256"}],"outputs":[{"name":"","type":"address","internalType":"contract IERC20"}],"stateMutability":"view"},{"type":"function","name":"supportsInterface","inputs":[{"name":"interfaceId","type":"bytes4","internalType":"bytes4"}],"outputs":[{"name":"","type":"bool","internalType":"bool"}],"stateMutability":"view"},{"type":"function","name":"tokenIsSupported","inputs":[{"name":"token","type":"address","internalType":"contract IERC20"}],"outputs":[{"name":"","type":"bool","internalType":"bool"}],"stateMutability":"view"},{"type":"function","name":"tokenStrategies","inputs":[{"name":"","type":"address","internalType":"contract IERC20"}],"outputs":[{"name":"","type":"address","internalType":"contract IStrategy"}],"stateMutability":"view"},{"type":"function","name":"tokens","inputs":[{"name":"","type":"address","internalType":"contract IERC20"}],"outputs":[{"name":"decimals","type":"uint256","internalType":"uint256"},{"name":"pricePerUnit","type":"uint256","internalType":"uint256"},{"name":"volatilityThreshold","type":"uint256","internalType":"uint256"}],"stateMutability":"view"},{"type":"function","name":"updatePrice","inputs":[{"name":"token","type":"address","internalType":"contract IERC20"},{"name":"newPrice","type":"uint256","internalType":"uint256"}],"outputs":[],"stateMutability":"nonpayable"},{"type":"event","name":"AssetsDepositedToEigenlayer","inputs":[{"name":"assets","type":"address[]","indexed":false,"internalType":"contract IERC20[]"},{"name":"amounts","type":"uint256[]","indexed":false,"internalType":"uint256[]"},{"name":"strategies","type":"address[]","indexed":false,"internalType":"contract IStrategy[]"},{"name":"depositor","type":"address","indexed":true,"internalType":"address"}],"anonymous":false},{"type":"event","name":"AssetsStakedToNode","inputs":[{"name":"nodeId","type":"uint256","indexed":true,"internalType":"uint256"},{"name":"assets","type":"address[]","indexed":false,"internalType":"contract IERC20[]"},{"name":"amounts","type":"uint256[]","indexed":false,"internalType":"uint256[]"},{"name":"staker","type":"address","indexed":true,"internalType":"address"}],"anonymous":false},{"type":"event","name":"Initialized","inputs":[{"name":"version","type":"uint64","indexed":false,"internalType":"uint64"}],"anonymous":false},{"type":"event","name":"NodeDelegated","inputs":[{"name":"nodeId","type":"uint256","indexed":false,"internalType":"uint256"},{"name":"operator","type":"address","indexed":true,"internalType":"address"}],"anonymous":false},{"type":"event","name":"NodeUndelegated","inputs":[{"name":"nodeId","type":"uint256","indexed":false,"internalType":"uint256"},{"name":"operator","type":"address","indexed":true,"internalType":"address"}],"anonymous":false},{"type":"event","name":"RoleAdminChanged","inputs":[{"name":"role","type":"bytes32","indexed":true,"internalType":"bytes32"},{"name":"previousAdminRole","type":"bytes32","indexed":true,"internalType":"bytes32"},{"name":"newAdminRole","type":"bytes32","indexed":true,"internalType":"bytes32"}],"anonymous":false},{"type":"event","name":"RoleGranted","inputs":[{"name":"role","type":"bytes32","indexed":true,"internalType":"bytes32"},{"name":"account","type":"address","indexed":true,"internalType":"address"},{"name":"sender","type":"address","indexed":true,"internalType":"address"}],"anonymous":false},{"type":"event","name":"RoleRevoked","inputs":[{"name":"role","type":"bytes32","indexed":true,"internalType":"bytes32"},{"name":"account","type":"address","indexed":true,"internalType":"address"},{"name":"sender","type":"address","indexed":true,"internalType":"address"}],"anonymous":false},{"type":"event","name":"TokenAdded","inputs":[{"name":"token","type":"address","indexed":true,"internalType":"contract IERC20"},{"name":"decimals","type":"uint256","indexed":false,"internalType":"uint256"},{"name":"initialPrice","type":"uint256","indexed":false,"internalType":"uint256"},{"name":"volatilityThreshold","type":"uint256","indexed":false,"internalType":"uint256"},{"name":"strategy","type":"address","indexed":true,"internalType":"address"},{"name":"setter","type":"address","indexed":true,"internalType":"address"}],"anonymous":false},{"type":"event","name":"TokenPriceUpdated","inputs":[{"name":"token","type":"address","indexed":true,"internalType":"contract IERC20"},{"name":"oldPrice","type":"uint256","indexed":false,"internalType":"uint256"},{"name":"newPrice","type":"uint256","indexed":false,"internalType":"uint256"},{"name":"updater","type":"address","indexed":true,"internalType":"address"}],"anonymous":false},{"type":"event","name":"TokenRemoved","inputs":[{"name":"token","type":"address","indexed":true,"internalType":"contract IERC20"},{"name":"remover","type":"address","indexed":true,"internalType":"address"}],"anonymous":false},{"type":"event","name":"VolatilityCheckFailed","inputs":[{"name":"token","type":"address","indexed":true,"internalType":"contract IERC20"},{"name":"oldPrice","type":"uint256","indexed":false,"internalType":"uint256"},{"name":"newPrice","type":"uint256","indexed":false,"internalType":"uint256"},{"name":"changeRatio","type":"uint256","indexed":false,"internalType":"uint256"}],"anonymous":false},{"type":"event","name":"VolatilityThresholdUpdated","inputs":[{"name":"asset","type":"address","indexed":true,"internalType":"contract IERC20"},{"name":"oldThreshold","type":"uint256","indexed":false,"internalType":"uint256"},{"name":"newThreshold","type":"uint256","indexed":false,"internalType":"uint256"},{"name":"updatedBy","type":"address","indexed":true,"internalType":"address"}],"anonymous":false},{"type":"error","name":"AccessControlBadConfirmation","inputs":[]},{"type":"error","name":"AccessControlUnauthorizedAccount","inputs":[{"name":"account","type":"address","internalType":"address"},{"name":"neededRole","type":"bytes32","internalType":"bytes32"}]},{"type":"error","name":"AddressEmptyCode","inputs":[{"name":"target","type":"address","internalType":"address"}]},{"type":"error","name":"AddressInsufficientBalance","inputs":[{"name":"account","type":"address","internalType":"address"}]},{"type":"error","name":"FailedInnerCall","inputs":[]},{"type":"error","name":"InvalidDecimals","inputs":[]},{"type":"error","name":"InvalidInitialization","inputs":[]},{"type":"error","name":"InvalidNodeId","inputs":[{"name":"nodeId","type":"uint256","internalType":"uint256"}]},{"type":"error","name":"InvalidPrice","inputs":[]},{"type":"error","name":"InvalidStakingAmount","inputs":[{"name":"amount","type":"uint256","internalType":"uint256"}]},{"type":"error","name":"InvalidThreshold","inputs":[]},{"type":"error","name":"LengthMismatch","inputs":[{"name":"length1","type":"uint256","internalType":"uint256"},{"name":"length2","type":"uint256","internalType":"uint256"}]},{"type":"error","name":"MathOverflowedMulDiv","inputs":[]},{"type":"error","name":"NotInitializing","inputs":[]},{"type":"error","name":"ReentrancyGuardReentrantCall","inputs":[]},{"type":"error","name":"SafeERC20FailedOperation","inputs":[{"name":"token","type":"address","internalType":"address"}]},{"type":"error","name":"StrategyNotFound","inputs":[{"name":"asset","type":"address","internalType":"address"}]},{"type":"error","name":"TokenExists","inputs":[{"name":"asset","type":"address","internalType":"address"}]},{"type":"error","name":"TokenInUse","inputs":[{"name":"token","type":"address","internalType":"contract IERC20"}]},{"type":"error","name":"TokenNotSupported","inputs":[{"name":"token","type":"address","internalType":"contract IERC20"}]},{"type":"error","name":"VolatilityThresholdHit","inputs":[{"name":"token","type":"address","internalType":"contract IERC20"},{"name":"changeRatio","type":"uint256","internalType":"uint256"}]},{"type":"error","name":"ZeroAddress","inputs":[]}],"bytecode":{"object":"0x6080806040523460aa575f516020612e9b5f395f51905f525460ff8160401c16609b576002600160401b03196001600160401b038216016049575b604051612dec90816100af8239f35b6001600160401b0319166001600160401b039081175f516020612e9b5f395f51905f525581527fc7f505b2f371ae2175ee4913f4499e1f2633a7b5936321eed1cdaeb6115181d290602090a15f80603a565b63f92ee8a960e01b5f5260045ffd5b5f80fdfe6080806040526004361015610012575f80fd5b5f3560e01c90816301ffc9a714611d8057508063036b100c14611ba75780631b8fea4314611add5780631cbf960d14611a675780631f69565f146119bc578063248a9ca3146119855780632f2ff15d1461193b578063316ffd4e146111f957806336568abe146111b557806339b70e381461118e5780633b36f5c41461114e5780633c8643f9146110dc578063457972de14610ef65780635fa7b58414610b175780635ffcfdc714610aab57806366cd5dc714610a8357806374f2ca0514610983578063833eaaf5146108fa57806391d14854146108a55780639be323f41461086b578063a217fddf14610851578063c41dd95514610822578063c6255626146107e0578063d3c7c2c71461074f578063d547741f146106fe578063da5be02214610606578063e4860339146105a9578063e70619501461056f578063ea4d3c9b14610547578063eea53cce14610208578063f1a640f8146101ed578063f8ba1b9e146101c55763fb8d810114610187575f80fd5b346101c1575f3660031901126101c15760206040517fd96ba01d6560c2ab35f2940dd8d70c5f5fe06236c72674237120515918198fb08152f35b5f80fd5b346101c1575f3660031901126101c1576002546040516001600160a01b039091168152602090f35b346101c1575f3660031901126101c157602060405160128152f35b346101c15760803660031901126101c1576004356001600160401b0381116101c157610238903690600401611ecb565b602435906001600160401b0382116101c157366023830112156101c15781600401359161026483611e4f565b926102726040519485611e2e565b8084526024602085019160051b830101913683116101c157602401905b82821061052f575050506044356001600160401b0381116101c1576102b8903690600401611f7c565b9290916064356001600160401b0381116101c1576102da903690600401611f7c565b906102e3612275565b8251845181810361051a5750808703610504578083036104ee579436819003603e1901905f5b87811061031257005b6002546001600160a01b0316602061032a8389612032565b51602460405180948193630735424b60e11b835260048301525afa908115610496575f916104b5575b506001600160a01b03908116919061036b828a612032565b5116918a8210156104a1578160051b9081850135868112156101c157850190888410156104a157803b156101c15760405194632e90f1ed60e11b86526004860152606060248601528135601e19833603018112156101c1578201602081359101936001600160401b0382116101c15781360385136101c15760c487835f97936020839884978b97604060648801528160a4880152878701378484018601879052013560848401528d01356044830152601f01601f191681010301925af191821561049657600192610486575b506104428188612032565b517f44f8a5ef027e039bb8a373f52e881f0c60120fc758371e619f28274c2a9562c56020848060a01b03610476858d612032565b511692604051908152a201610309565b5f61049091611e2e565b8a610437565b6040513d5f823e3d90fd5b634e487b7160e01b5f52603260045260245ffd5b90506020813d82116104e6575b816104cf60209383611e2e565b810103126101c1576104e0906120ea565b8a610353565b3d91506104c2565b826355c5b3e360e11b5f5260045260245260445ffd5b866355c5b3e360e11b5f5260045260245260445ffd5b6355c5b3e360e11b5f5260045260245260445ffd5b6020809161053c84611de9565b81520191019061028f565b346101c1575f3660031901126101c1576001546040516001600160a01b039091168152602090f35b346101c15760203660031901126101c1576001600160a01b03610590611dd3565b165f526004602052602060405f20541515604051908152f35b346101c15760203660031901126101c1576001600160a01b036105ca611dd3565b165f52600460205260405f20805461060260026001840154930154604051938493846040919493926060820195825260208201520152565b0390f35b346101c15760203660031901126101c1576004356001600160401b0381116101c157610636903690600401611f7c565b9061063f612275565b6106476126f9565b36819003605e1901905f5b838110156106eb578060051b820135838112156101c1578201906060823603126101c1576040519161068383611e13565b8035835260208101356001600160401b0381116101c1576106a79036908301611e66565b92602081019384526040820135936001600160401b0385116101c1576106d56106e593600196369101611ecb565b91826040820152519051906127f1565b01610652565b60015f516020612d775f395f51905f5255005b346101c15760403660031901126101c15761074d60043561071d611dfd565b90610748610743825f525f516020612d575f395f51905f52602052600160405f20015490565b6122e4565b61265d565b005b346101c1575f3660031901126101c15760405180602060065491828152019060065f527ff652222313e28459528d920b65115c16c04f3efc82aaedc97be59f3f377c0d3f905f5b8181106107c157610602856107ad81870382611e2e565b604051918291602083526020830190611f40565b82546001600160a01b0316845260209093019260019283019201610796565b346101c15760203660031901126101c1576004356006548110156101c157610809602091611f28565b905460405160039290921b1c6001600160a01b03168152f35b346101c15760403660031901126101c1576020610849610840611dd3565b6024359061217f565b604051908152f35b346101c1575f3660031901126101c15760206040515f8152f35b346101c1575f3660031901126101c15760206040517fd804c5bf32ccb7c8f087c7a3be22668464f9b4302aec069f690a2c9ba96fc0268152f35b346101c15760403660031901126101c1576108be611dfd565b6004355f525f516020612d575f395f51905f5260205260405f209060018060a01b03165f52602052602060ff60405f2054166040519015158152f35b346101c15760403660031901126101c1576001600160a01b0361091b611dd3565b16805f52600460205260405f20906040519061093682611e13565b82548083526002600185015494602085019586520154604084015215610971576020610849846109668551612017565b90519060243561232a565b6306439c6b60e01b5f5260045260245ffd5b346101c15760203660031901126101c15761099c611dd3565b6001600160a01b038181165f8181526005602052604090205490911615610a71575060025460405163a1174e7d60e01b8152905f90829060049082906001600160a01b03165afa908115610496575f91610a4f575b505f91825b8251841015610a4457610a1c6001600160a01b03610a148686612032565b511683612c1e565b8101809111610a30576001909301926109f6565b634e487b7160e01b5f52601160045260245ffd5b602090604051908152f35b610a6b91503d805f833e610a638183611e2e565b8101906120fe565b826109f1565b634234b21b60e11b5f5260045260245ffd5b346101c1575f3660031901126101c1576003546040516001600160a01b039091168152602090f35b346101c15760603660031901126101c1576024356001600160401b0381116101c157610adb903690600401611e66565b604435906001600160401b0382116101c157610afe6106eb923690600401611ecb565b90610b07612275565b610b0f6126f9565b6004356127f1565b346101c15760203660031901126101c157610b30611dd3565b610b38612226565b60018060a01b03811690815f52600460205260405f20604051610b5a81611e13565b6040600283549384845260018101546020850152015491015215610ee3576040908151610b878382611e2e565b60018152601f19830136602083013783610ba082612025565b5260035483516317d3208560e21b8152602060048201526001600160a01b03909116905f8180610bd36024820187611f40565b0381855afa908115610ed95790610bf1915f91610ebf575b50612025565b51610eac57610c1e915f918551808095819463d9fa608160e01b8352602060048401526024830190611f40565b03915afa908115610e6d5790610c3a915f91610e8a5750612025565b51610e7757600254825163a1174e7d60e01b815291905f90839060049082906001600160a01b03165afa918215610e6d575f92610e51575b508151915f5b838110610db3578585600654905f5b828110610cec575b8382815f5260046020525f60028282208281558260018201550155815f5260056020525f2080546001600160601b0360a01b16905533907fbbe55b1ff108e23e5ff1a6f5d36946eec15ec0ca0ded2bfed4cdcf697ca904605f80a3005b83610cf682611f28565b905460039190911b1c6001600160a01b031614610d1557600101610c87565b90915f198101908111610a3057610d49610d31610d6b92611f28565b905460039190911b1c6001600160a01b031692611f28565b815491936001600160a01b0360039290921b82811b19909316911690911b1790565b90556006548015610d9f575f1901610d8281611f28565b81549060018060a01b039060031b1b191690556006558083610c8f565b634e487b7160e01b5f52603160045260245ffd5b600460206001600160a01b03610dc98486612032565b5116875192838092635d1ca63160e01b82525afa8015610e47575f90610e14575b610df591508461217f565b610e0157600101610c78565b85634c9baa1560e11b5f5260045260245ffd5b506020813d8211610e3f575b81610e2d60209383611e2e565b810103126101c157610df59051610dea565b3d9150610e20565b86513d5f823e3d90fd5b610e669192503d805f833e610a638183611e2e565b9084610c72565b83513d5f823e3d90fd5b82634c9baa1560e11b5f5260045260245ffd5b610ea691503d805f833e610e9e8183611e2e565b810190612071565b85610beb565b84634c9baa1560e11b5f5260045260245ffd5b610ed391503d805f833e610e9e8183611e2e565b87610beb565b85513d5f823e3d90fd5b506306439c6b60e01b5f5260045260245ffd5b346101c15760403660031901126101c157610f0f611dd3565b335f9081527fc256c2f634d6da12a4a07efdac9dc2d265baedd567b31337ba6cb23fe11b48996020526040902054602435919060ff16156110a5576001600160a01b03165f818152600460205260409020541561097157811561109757805f526004602052600160405f20015491821561109757815f526004602052600260405f200154610fdc575b815f52600460205280600160405f20015560405192835260208301527fd006d7efaadd9f842363572dcebe461eca100b118063d351c31ea3345a0a317460403393a3005b8281111561108857610fee8382612046565b670de0b6b3a7640000810290808204670de0b6b3a76400001490151715610a30578361101991612053565b825f526004602052600260405f20015481116110355750610f98565b6040805194855260208501929092529083018190529181907f9e274992d0addc0efab8fb7762062fe9c0d3e0a786ba19b678156ad73a033fb990606090a2631bf5441b60e21b5f5260045260245260445ffd5b6110928184612046565b610fee565b62bfc92160e01b5f5260045ffd5b63e2517d3f60e01b5f52336004527fd96ba01d6560c2ab35f2940dd8d70c5f5fe06236c72674237120515918198fb060245260445ffd5b346101c15760203660031901126101c1576001600160a01b036110fd611dd3565b16801561113f575f818152600560205260409020546001600160a01b0316801561112c57602090604051908152f35b50634234b21b60e11b5f5260045260245ffd5b63d92e233d60e01b5f5260045ffd5b346101c15760203660031901126101c1576001600160a01b0361116f611dd3565b165f526005602052602060018060a01b0360405f205416604051908152f35b346101c1575f3660031901126101c1575f546040516001600160a01b039091168152602090f35b346101c15760403660031901126101c1576111ce611dfd565b336001600160a01b038216036111ea5761074d9060043561265d565b63334bd91960e11b5f5260045ffd5b346101c15760203660031901126101c1576004356001600160401b0381116101c15761014060031982360301126101c15760405161014081018181106001600160401b038211176119275760405281600401356001600160401b0381116101c15761126a9060043691850101611e66565b815260248201356001600160401b0381116101c1578201366023820112156101c157600481013561129a81611e4f565b916112a86040519384611e2e565b818352602060046060828601940283010101903682116101c157602401915b8183106118eb575050506020820190815260448301356001600160401b0381116101c1578301366023820112156101c15760048101359061130782611e4f565b916113156040519384611e2e565b808352602060048185019260051b84010101913683116101c157602401905b8282106118d3575050506040830190815260648401356001600160a01b03811681036101c1576060840190815260848501356001600160a01b03811681036101c1576080850190815260a4860135916001600160a01b03831683036101c15760a0860192835260c4870135906001600160a01b03821682036101c15760c087019182526113c360e48901611de9565b9760e088019889526113ed6101246113de6101048401611de9565b926101008b0193845201611de9565b9061012089019182525f516020612d975f395f51905f52549960ff8b60401c16159a6001600160401b038116801590816118cb575b60011490816118c1575b1590816118b8575b506118a95767ffffffffffffffff1981166001175f516020612d975f395f51905f52558b61187d575b50611466612cad565b61146e612cad565b611476612cad565b60015f516020612d775f395f51905f525585516001600160a01b031615801561186b575b8015611859575b8015611847575b8015611835575b61113f578951518951519081810361051a5750508951518851519081810361051a5750505161150f92916114ff916114ef906001600160a01b03166123be565b50516001600160a01b031661245a565b50516001600160a01b0316612513565b5051600380546001600160a01b03199081166001600160a01b0393841617909155915160028054841691831691909117905591515f80548316918416919091178155925160018054909216921691909117905583515192905b8381106115cd578561157657005b68ff0000000000000000195f516020612d975f395f51905f5254165f516020612d975f395f51905f52557fc7f505b2f371ae2175ee4913f4499e1f2633a7b5936321eed1cdaeb6115181d2602060405160018152a1005b84516001600160a01b03906115e3908390612032565b5116158015611816575b61113f576115fc818351612032565b515115611807576040611610828451612032565b5101511515806117c8575b6117b95784516001600160a01b0390611635908390612032565b51165f52600460205260405f205461179157806116556001928451612032565b51828060a01b03611667838951612032565b51165f52600460205260026040805f2092805184556020810151868501550151910155818060a01b0361169b828651612032565b5116828060a01b036116ae838951612032565b51165f52600560205260405f2090838060a01b03166001600160601b0360a01b8254161790556116ef828060a01b036116e8838951612032565b5116611fac565b818060a01b03611700828851612032565b511661170d828551612032565b515190602061171d848751612032565b510151907f16b06db6c9713b833a538658ead722c19db1c4e9408a99bb4e3ad62bf9996ac0604061174f868951612032565b510151868060a01b03611763878b51612032565b5116936117886040519283923398846040919493926060820195825260208201520152565b0390a401611568565b84516001600160a01b03916117a591612032565b511663f49f099960e01b5f5260045260245ffd5b63aabd5a0960e01b5f5260045ffd5b50662386f26fc1000060406117de838551612032565b510151108061161b5750670de0b6b3a764000060406117fe838551612032565b5101511161161b565b630692acc560e51b5f5260045ffd5b5082516001600160a01b039061182d908390612032565b5116156115ed565b5082516001600160a01b0316156114af565b5080516001600160a01b0316156114a8565b5083516001600160a01b0316156114a1565b5086516001600160a01b03161561149a565b68ffffffffffffffffff191668010000000000000001175f516020612d975f395f51905f52558b61145d565b63f92ee8a960e01b5f5260045ffd5b9050158d611434565b303b15915061142c565b8d9150611422565b602080916118e084611de9565b815201910190611334565b6060833603126101c157602060609160405161190681611e13565b853581528286013583820152604086013560408201528152019201916112c7565b634e487b7160e01b5f52604160045260245ffd5b346101c15760403660031901126101c15761074d60043561195a611dfd565b90611980610743825f525f516020612d575f395f51905f52602052600160405f20015490565b6125cc565b346101c15760203660031901126101c15760206108496004355f525f516020612d575f395f51905f52602052600160405f20015490565b346101c15760203660031901126101c1576119d5611dd3565b5f604080516119e381611e13565b8281526020810183905201526001600160a01b0316801561113f57805f52600460205260405f2060405190611a1782611e13565b8054908183526002600182015491602085019283520154916040840192835215611a54576060935060405192518352516020830152516040820152f35b836306439c6b60e01b5f5260045260245ffd5b346101c15760403660031901126101c1576001600160a01b03611a88611dd3565b16805f52600460205260405f2060405191611aa283611e13565b8154808452600260018401549360208601948552015460408501521561097157602061084984611ad485519151612017565b9060243561232a565b346101c15760403660031901126101c157611af6611dd3565b60243590611b02612226565b6001600160a01b0316801561113f57805f52600460205260405f2054156109715781151580611b86575b6117b957805f526004602052600260405f200154604051908152826020820152817ff8f0db3b5d1acc00708a69d58361dc010912e040c8d4f8963f75bf736516e33560403393a35f526004602052600260405f2001555f80f35b50662386f26fc10000821080611b2c5750670de0b6b3a76400008211611b2c565b346101c15760a03660031901126101c157611bc0611dd3565b6024359060ff82168092036101c1576084356001600160a01b038116919060643590604435908490036101c157611bf5612226565b6001600160a01b038381165f8181526005602052604090205490949116611d6d57831561113f5785156118075781156110975782151580611d4c575b6117b957841561113f5760405163313ce56760e01b8152602081600481885afa5f9181611d0e575b50611cf9575b50611cc190604051611c7081611e13565b8781526002602082018581526040830190878252885f52600460205260405f209351845551600184015551910155845f52600560205260405f20866001600160601b0360a01b825416179055611fac565b604051948552602085015260408401527f16b06db6c9713b833a538658ead722c19db1c4e9408a99bb4e3ad62bf9996ac060603394a4005b60ff1680156118075786036118075786611c5f565b9091506020813d602011611d44575b81611d2a60209383611e2e565b810103126101c1575160ff811681036101c1579088611c59565b3d9150611d1d565b50662386f26fc10000831080611c315750670de0b6b3a76400008311611c31565b8363f49f099960e01b5f5260045260245ffd5b346101c15760203660031901126101c1576004359063ffffffff60e01b82168092036101c157602091637965db0b60e01b8114908115611dc2575b5015158152f35b6301ffc9a760e01b14905083611dbb565b600435906001600160a01b03821682036101c157565b35906001600160a01b03821682036101c157565b602435906001600160a01b03821682036101c157565b606081019081106001600160401b0382111761192757604052565b90601f801991011681019081106001600160401b0382111761192757604052565b6001600160401b0381116119275760051b60200190565b9080601f830112156101c1578135611e7d81611e4f565b92611e8b6040519485611e2e565b81845260208085019260051b8201019283116101c157602001905b828210611eb35750505090565b60208091611ec084611de9565b815201910190611ea6565b9080601f830112156101c1578135611ee281611e4f565b92611ef06040519485611e2e565b81845260208085019260051b8201019283116101c157602001905b828210611f185750505090565b8135815260209182019101611f0b565b6006548110156104a15760065f5260205f2001905f90565b90602080835192838152019201905f5b818110611f5d5750505090565b82516001600160a01b0316845260209384019390920191600101611f50565b9181601f840112156101c1578235916001600160401b0383116101c1576020808501948460051b0101116101c157565b6006546801000000000000000081101561192757600181016006556006548110156104a15760065f527ff652222313e28459528d920b65115c16c04f3efc82aaedc97be59f3f377c0d3f01805490916001600160a01b03199091166001600160a01b03909116179055565b604d8111610a3057600a0a90565b8051156104a15760200190565b80518210156104a15760209160051b010190565b91908203918211610a3057565b811561205d570490565b634e487b7160e01b5f52601260045260245ffd5b6020818303126101c1578051906001600160401b0382116101c157019080601f830112156101c15781516120a481611e4f565b926120b26040519485611e2e565b81845260208085019260051b8201019283116101c157602001905b8282106120da5750505090565b81518152602091820191016120cd565b51906001600160a01b03821682036101c157565b6020818303126101c1578051906001600160401b0382116101c157019080601f830112156101c157815161213181611e4f565b9261213f6040519485611e2e565b81845260208085019260051b8201019283116101c157602001905b8282106121675750505090565b60208091612174846120ea565b81520191019061215a565b6001600160a01b038181165f8181526005602052604090205490911615610a715750600254604051630735424b60e11b81526004810193909352602090839060249082906001600160a01b03165afa908115610496575f916121e9575b6121e69250612c1e565b90565b90506020823d60201161221e575b8161220460209383611e2e565b810103126101c1576122186121e6926120ea565b906121dc565b3d91506121f7565b335f9081527fb7db2dd08fcb62d0c9e08c51941cae53c267786a0b75803fb7960902fc8ef97d602052604090205460ff161561225e57565b63e2517d3f60e01b5f52336004525f60245260445ffd5b335f9081527f37df822218fcaee7cde51d4f45157536d4cc7c7d03801a2f229c91ffc1ea9c16602052604090205460ff16156122ad57565b63e2517d3f60e01b5f52336004527fd804c5bf32ccb7c8f087c7a3be22668464f9b4302aec069f690a2c9ba96fc02660245260445ffd5b5f8181525f516020612d575f395f51905f526020908152604080832033845290915290205460ff16156123145750565b63e2517d3f60e01b5f523360045260245260445ffd5b9091828202915f19848209938380861095039480860395146123b157848311156123a257829109815f0382168092046002816003021880820260020302808202600203028082026002030280820260020302808202600203028091026002030293600183805f03040190848311900302920304170290565b63227bc15360e01b5f5260045ffd5b5050906121e69250612053565b6001600160a01b0381165f9081527fb7db2dd08fcb62d0c9e08c51941cae53c267786a0b75803fb7960902fc8ef97d602052604090205460ff16612455576001600160a01b03165f8181527fb7db2dd08fcb62d0c9e08c51941cae53c267786a0b75803fb7960902fc8ef97d60205260408120805460ff191660011790553391905f516020612d375f395f51905f528180a4600190565b505f90565b6001600160a01b0381165f9081527f37df822218fcaee7cde51d4f45157536d4cc7c7d03801a2f229c91ffc1ea9c16602052604090205460ff16612455576001600160a01b03165f8181527f37df822218fcaee7cde51d4f45157536d4cc7c7d03801a2f229c91ffc1ea9c1660205260408120805460ff191660011790553391907fd804c5bf32ccb7c8f087c7a3be22668464f9b4302aec069f690a2c9ba96fc026905f516020612d375f395f51905f529080a4600190565b6001600160a01b0381165f9081527fc256c2f634d6da12a4a07efdac9dc2d265baedd567b31337ba6cb23fe11b4899602052604090205460ff16612455576001600160a01b03165f8181527fc256c2f634d6da12a4a07efdac9dc2d265baedd567b31337ba6cb23fe11b489960205260408120805460ff191660011790553391907fd96ba01d6560c2ab35f2940dd8d70c5f5fe06236c72674237120515918198fb0905f516020612d375f395f51905f529080a4600190565b5f8181525f516020612d575f395f51905f52602090815260408083206001600160a01b038616845290915290205460ff16612657575f8181525f516020612d575f395f51905f52602090815260408083206001600160a01b0395909516808452949091528120805460ff19166001179055339291905f516020612d375f395f51905f529080a4600190565b50505f90565b5f8181525f516020612d575f395f51905f52602090815260408083206001600160a01b038616845290915290205460ff1615612657575f8181525f516020612d575f395f51905f52602090815260408083206001600160a01b0395909516808452949091528120805460ff19169055339291907ff6391f5c32d9c69d2a47ea670b442974b53935d1edc7fd64eb21e047a839171b9080a4600190565b60025f516020612d775f395f51905f5254146127225760025f516020612d775f395f51905f5255565b633ee5aeb560e01b5f5260045ffd5b90602080835192838152019201905f5b81811061274e5750505090565b8251845260209384019390920191600101612741565b909161277b6121e693604084526040840190611f40565b916020818403910152612731565b9161279f6127ad92606085526060850190611f40565b908382036020850152612731565b906040818303910152602080835192838152019201905f5b8181106127d25750505090565b82516001600160a01b03168452602093840193909201916001016127c5565b91815190805192838303612c0757600254604051630735424b60e11b8152600481018790525f96909291602090849060249082906001600160a01b03165afa928315610496575f93612bcb575b5061284885611e4f565b936128566040519586611e2e565b858552601f1961286587611e4f565b013660208701375f5b868110612b5657506003546001600160a01b0316803b156101c1575f6040518092634c69211160e01b82528183816128aa888b60048401612764565b03925af1801561049657612b41575b506128c386611e4f565b956128d16040519788611e2e565b808752601f196128e082611e4f565b013660208901376128f088611e4f565b976128fe604051998a611e2e565b80895261290d601f1991611e4f565b013660208a0137885b8181106129f35750506129527f0e5e80da96ba63170c5e8df1b827c4b5cd08d747cd301536aad1a917d243907391604051918291339683612764565b0390a36001600160a01b031693843b156129e557604051636fc9f70d60e11b815281818061298586898960048501612789565b0381838a5af180156129e8576129d0575b5050906129cb7f51a206831b339426847565f9ab7308ed1db311003fe45c5c5bd48db5391d4bdb939260405193849384612789565b0390a2565b6129db828092611e2e565b6129e55780612996565b80fd5b6040513d84823e3d90fd5b6001600160a01b03612a058287612032565b5116612a11828a612032565b52612a1c8184612032565b51612a27828b612032565b526001600160a01b03612a3a8287612032565b51168a80612a488487612032565b5160405163a9059cbb60e01b602082019081526001600160a01b038c166024830152604480830193909352918152612a81606482611e2e565b519082855af13d15612b35573d6001600160401b038111612b2157612acb918d9160405190612aba6020601f19601f8401160183611e2e565b8152809260203d92013e5b83612cd8565b8051908115159182612af9575b5050612ae75750600101612916565b635274afe760e01b8b5260045260248afd5b8192509060209181010312612b1d5760200151801590811503612b1d575f80612ad8565b8b80fd5b634e487b7160e01b8d52604160045260248dfd5b612acb90606090612ac5565b612b4e9198505f90611e2e565b5f965f6128b9565b6001600160a01b03612b688286612032565b5116612b748284612032565b5115612bae575f818152600560205260409020546001600160a01b0316908115610a71575090600191612ba78289612032565b520161286e565b50612bb891612032565b5163fdea5f4d60e01b5f5260045260245ffd5b9092506020813d602011612bff575b81612be760209383611e2e565b810103126101c157612bf8906120ea565b915f61283e565b3d9150612bda565b50506355c5b3e360e11b5f5260045260245260445ffd5b6001600160a01b039081165f8181526005602052604090205490911691908215610a715750604051630aa794bf60e31b81526001600160a01b03909116600482015290602090829060249082905afa908115610496575f91612c7e575090565b90506020813d602011612ca5575b81612c9960209383611e2e565b810103126101c1575190565b3d9150612c8c565b60ff5f516020612d975f395f51905f525460401c1615612cc957565b631afcd79f60e31b5f5260045ffd5b90612cfc5750805115612ced57805190602001fd5b630a12f52160e11b5f5260045ffd5b81511580612d2d575b612d0d575090565b639996b31560e01b5f9081526001600160a01b0391909116600452602490fd5b50803b15612d0556fe2f8788117e7eff1d82e926ec794901d17c78024a50270940304540a733656f0d02dd7bc7dec4dceedda775e58dd541e08a116c6c53815c0bd028192f7b6268009b779b17422d0df92223018b32b4d1fa46e071723d6817e2486d003becc55f00f0c57e16840df040f15088dc2f81fe391c3923bec73e23a9662efc9c229c6a00a2646970667358221220813b5e5ecb6186a251072bb127d76051212597aa258e62717fe45902f318292264736f6c634300081b0033f0c57e16840df040f15088dc2f81fe391c3923bec73e23a9662efc9c229c6a00","linkReferences":{}},"methodIdentifiers":{"DEFAULT_ADMIN_ROLE()":"a217fddf","PRICE_DECIMALS()":"f1a640f8","PRICE_UPDATER_ROLE()":"fb8d8101","STRATEGY_CONTROLLER_ROLE()":"9be323f4","addToken(address,uint8,uint256,uint256,address)":"036b100c","convertFromUnitOfAccount(address,uint256)":"833eaaf5","convertToUnitOfAccount(address,uint256)":"1cbf960d","delegateNodes(uint256[],address[],(bytes,uint256)[],bytes32[])":"eea53cce","delegationManager()":"ea4d3c9b","getRoleAdmin(bytes32)":"248a9ca3","getStakedAssetBalance(address)":"74f2ca05","getStakedAssetBalanceNode(address,uint256)":"c41dd955","getSupportedTokens()":"d3c7c2c7","getTokenInfo(address)":"1f69565f","getTokenStrategy(address)":"3c8643f9","grantRole(bytes32,address)":"2f2ff15d","hasRole(bytes32,address)":"91d14854","initialize((address[],(uint256,uint256,uint256)[],address[],address,address,address,address,address,address,address))":"316ffd4e","liquidToken()":"66cd5dc7","removeToken(address)":"5fa7b584","renounceRole(bytes32,address)":"36568abe","revokeRole(bytes32,address)":"d547741f","setVolatilityThreshold(address,uint256)":"1b8fea43","stakeAssetsToNode(uint256,address[],uint256[])":"5ffcfdc7","stakeAssetsToNodes((uint256,address[],uint256[])[])":"da5be022","stakerNodeCoordinator()":"f8ba1b9e","strategyManager()":"39b70e38","supportedTokens(uint256)":"c6255626","supportsInterface(bytes4)":"01ffc9a7","tokenIsSupported(address)":"e7061950","tokenStrategies(address)":"3b36f5c4","tokens(address)":"e4860339","updatePrice(address,uint256)":"457972de"},"id":71}