{"abi":[{"type":"constructor","inputs":[],"stateMutability":"nonpayable"},{"type":"function","name":"DEFAULT_ADMIN_ROLE","inputs":[],"outputs":[{"name":"","type":"bytes32","internalType":"bytes32"}],"stateMutability":"view"},{"type":"function","name":"PAUSER_ROLE","inputs":[],"outputs":[{"name":"","type":"bytes32","internalType":"bytes32"}],"stateMutability":"view"},{"type":"function","name":"allowance","inputs":[{"name":"owner","type":"address","internalType":"address"},{"name":"spender","type":"address","internalType":"address"}],"outputs":[{"name":"","type":"uint256","internalType":"uint256"}],"stateMutability":"view"},{"type":"function","name":"approve","inputs":[{"name":"spender","type":"address","internalType":"address"},{"name":"value","type":"uint256","internalType":"uint256"}],"outputs":[{"name":"","type":"bool","internalType":"bool"}],"stateMutability":"nonpayable"},{"type":"function","name":"assetBalances","inputs":[{"name":"","type":"address","internalType":"address"}],"outputs":[{"name":"","type":"uint256","internalType":"uint256"}],"stateMutability":"view"},{"type":"function","name":"balanceAssets","inputs":[{"name":"assetList","type":"address[]","internalType":"contract IERC20[]"}],"outputs":[{"name":"","type":"uint256[]","internalType":"uint256[]"}],"stateMutability":"view"},{"type":"function","name":"balanceOf","inputs":[{"name":"account","type":"address","internalType":"address"}],"outputs":[{"name":"","type":"uint256","internalType":"uint256"}],"stateMutability":"view"},{"type":"function","name":"balanceQueuedAssets","inputs":[{"name":"assetList","type":"address[]","internalType":"contract IERC20[]"}],"outputs":[{"name":"","type":"uint256[]","internalType":"uint256[]"}],"stateMutability":"view"},{"type":"function","name":"calculateAmount","inputs":[{"name":"asset","type":"address","internalType":"contract IERC20"},{"name":"shares","type":"uint256","internalType":"uint256"}],"outputs":[{"name":"","type":"uint256","internalType":"uint256"}],"stateMutability":"view"},{"type":"function","name":"calculateShares","inputs":[{"name":"asset","type":"address","internalType":"contract IERC20"},{"name":"amount","type":"uint256","internalType":"uint256"}],"outputs":[{"name":"","type":"uint256","internalType":"uint256"}],"stateMutability":"view"},{"type":"function","name":"creditQueuedAssetBalances","inputs":[{"name":"assets","type":"address[]","internalType":"contract IERC20[]"},{"name":"amounts","type":"uint256[]","internalType":"uint256[]"}],"outputs":[],"stateMutability":"nonpayable"},{"type":"function","name":"decimals","inputs":[],"outputs":[{"name":"","type":"uint8","internalType":"uint8"}],"stateMutability":"view"},{"type":"function","name":"deposit","inputs":[{"name":"assets","type":"address[]","internalType":"contract IERC20[]"},{"name":"amounts","type":"uint256[]","internalType":"uint256[]"},{"name":"receiver","type":"address","internalType":"address"}],"outputs":[{"name":"","type":"uint256[]","internalType":"uint256[]"}],"stateMutability":"nonpayable"},{"type":"function","name":"getRoleAdmin","inputs":[{"name":"role","type":"bytes32","internalType":"bytes32"}],"outputs":[{"name":"","type":"bytes32","internalType":"bytes32"}],"stateMutability":"view"},{"type":"function","name":"grantRole","inputs":[{"name":"role","type":"bytes32","internalType":"bytes32"},{"name":"account","type":"address","internalType":"address"}],"outputs":[],"stateMutability":"nonpayable"},{"type":"function","name":"hasRole","inputs":[{"name":"role","type":"bytes32","internalType":"bytes32"},{"name":"account","type":"address","internalType":"address"}],"outputs":[{"name":"","type":"bool","internalType":"bool"}],"stateMutability":"view"},{"type":"function","name":"initialize","inputs":[{"name":"init","type":"tuple","internalType":"struct ILiquidToken.Init","components":[{"name":"name","type":"string","internalType":"string"},{"name":"symbol","type":"string","internalType":"string"},{"name":"liquidTokenManager","type":"address","internalType":"contract ILiquidTokenManager"},{"name":"initialOwner","type":"address","internalType":"address"},{"name":"pauser","type":"address","internalType":"address"}]}],"outputs":[],"stateMutability":"nonpayable"},{"type":"function","name":"liquidTokenManager","inputs":[],"outputs":[{"name":"","type":"address","internalType":"contract ILiquidTokenManager"}],"stateMutability":"view"},{"type":"function","name":"name","inputs":[],"outputs":[{"name":"","type":"string","internalType":"string"}],"stateMutability":"view"},{"type":"function","name":"pause","inputs":[],"outputs":[],"stateMutability":"nonpayable"},{"type":"function","name":"paused","inputs":[],"outputs":[{"name":"","type":"bool","internalType":"bool"}],"stateMutability":"view"},{"type":"function","name":"queuedAssetBalances","inputs":[{"name":"","type":"address","internalType":"address"}],"outputs":[{"name":"","type":"uint256","internalType":"uint256"}],"stateMutability":"view"},{"type":"function","name":"renounceRole","inputs":[{"name":"role","type":"bytes32","internalType":"bytes32"},{"name":"callerConfirmation","type":"address","internalType":"address"}],"outputs":[],"stateMutability":"nonpayable"},{"type":"function","name":"revokeRole","inputs":[{"name":"role","type":"bytes32","internalType":"bytes32"},{"name":"account","type":"address","internalType":"address"}],"outputs":[],"stateMutability":"nonpayable"},{"type":"function","name":"supportsInterface","inputs":[{"name":"interfaceId","type":"bytes4","internalType":"bytes4"}],"outputs":[{"name":"","type":"bool","internalType":"bool"}],"stateMutability":"view"},{"type":"function","name":"symbol","inputs":[],"outputs":[{"name":"","type":"string","internalType":"string"}],"stateMutability":"view"},{"type":"function","name":"totalAssets","inputs":[],"outputs":[{"name":"","type":"uint256","internalType":"uint256"}],"stateMutability":"view"},{"type":"function","name":"totalSupply","inputs":[],"outputs":[{"name":"","type":"uint256","internalType":"uint256"}],"stateMutability":"view"},{"type":"function","name":"transfer","inputs":[{"name":"to","type":"address","internalType":"address"},{"name":"value","type":"uint256","internalType":"uint256"}],"outputs":[{"name":"","type":"bool","internalType":"bool"}],"stateMutability":"nonpayable"},{"type":"function","name":"transferAssets","inputs":[{"name":"assetsToRetrieve","type":"address[]","internalType":"contract IERC20[]"},{"name":"amounts","type":"uint256[]","internalType":"uint256[]"}],"outputs":[],"stateMutability":"nonpayable"},{"type":"function","name":"transferFrom","inputs":[{"name":"from","type":"address","internalType":"address"},{"name":"to","type":"address","internalType":"address"},{"name":"value","type":"uint256","internalType":"uint256"}],"outputs":[{"name":"","type":"bool","internalType":"bool"}],"stateMutability":"nonpayable"},{"type":"function","name":"unpause","inputs":[],"outputs":[],"stateMutability":"nonpayable"},{"type":"event","name":"Approval","inputs":[{"name":"owner","type":"address","indexed":true,"internalType":"address"},{"name":"spender","type":"address","indexed":true,"internalType":"address"},{"name":"value","type":"uint256","indexed":false,"internalType":"uint256"}],"anonymous":false},{"type":"event","name":"AssetDeposited","inputs":[{"name":"sender","type":"address","indexed":true,"internalType":"address"},{"name":"receiver","type":"address","indexed":true,"internalType":"address"},{"name":"asset","type":"address","indexed":true,"internalType":"contract IERC20"},{"name":"amount","type":"uint256","indexed":false,"internalType":"uint256"},{"name":"shares","type":"uint256","indexed":false,"internalType":"uint256"}],"anonymous":false},{"type":"event","name":"AssetTransferred","inputs":[{"name":"asset","type":"address","indexed":true,"internalType":"contract IERC20"},{"name":"amount","type":"uint256","indexed":false,"internalType":"uint256"},{"name":"destination","type":"address","indexed":true,"internalType":"address"},{"name":"initiator","type":"address","indexed":true,"internalType":"address"}],"anonymous":false},{"type":"event","name":"Initialized","inputs":[{"name":"version","type":"uint64","indexed":false,"internalType":"uint64"}],"anonymous":false},{"type":"event","name":"Paused","inputs":[{"name":"account","type":"address","indexed":false,"internalType":"address"}],"anonymous":false},{"type":"event","name":"RoleAdminChanged","inputs":[{"name":"role","type":"bytes32","indexed":true,"internalType":"bytes32"},{"name":"previousAdminRole","type":"bytes32","indexed":true,"internalType":"bytes32"},{"name":"newAdminRole","type":"bytes32","indexed":true,"internalType":"bytes32"}],"anonymous":false},{"type":"event","name":"RoleGranted","inputs":[{"name":"role","type":"bytes32","indexed":true,"internalType":"bytes32"},{"name":"account","type":"address","indexed":true,"internalType":"address"},{"name":"sender","type":"address","indexed":true,"internalType":"address"}],"anonymous":false},{"type":"event","name":"RoleRevoked","inputs":[{"name":"role","type":"bytes32","indexed":true,"internalType":"bytes32"},{"name":"account","type":"address","indexed":true,"internalType":"address"},{"name":"sender","type":"address","indexed":true,"internalType":"address"}],"anonymous":false},{"type":"event","name":"Transfer","inputs":[{"name":"from","type":"address","indexed":true,"internalType":"address"},{"name":"to","type":"address","indexed":true,"internalType":"address"},{"name":"value","type":"uint256","indexed":false,"internalType":"uint256"}],"anonymous":false},{"type":"event","name":"Unpaused","inputs":[{"name":"account","type":"address","indexed":false,"internalType":"address"}],"anonymous":false},{"type":"event","name":"WithdrawalFulfilled","inputs":[{"name":"requestId","type":"bytes32","indexed":true,"internalType":"bytes32"},{"name":"user","type":"address","indexed":true,"internalType":"address"},{"name":"assets","type":"address[]","indexed":false,"internalType":"contract IERC20[]"},{"name":"shareAmounts","type":"uint256[]","indexed":false,"internalType":"uint256[]"},{"name":"timestamp","type":"uint256","indexed":false,"internalType":"uint256"}],"anonymous":false},{"type":"event","name":"WithdrawalRequested","inputs":[{"name":"requestId","type":"bytes32","indexed":true,"internalType":"bytes32"},{"name":"user","type":"address","indexed":true,"internalType":"address"},{"name":"assets","type":"address[]","indexed":false,"internalType":"contract IERC20[]"},{"name":"shareAmounts","type":"uint256[]","indexed":false,"internalType":"uint256[]"},{"name":"timestamp","type":"uint256","indexed":false,"internalType":"uint256"}],"anonymous":false},{"type":"error","name":"AccessControlBadConfirmation","inputs":[]},{"type":"error","name":"AccessControlUnauthorizedAccount","inputs":[{"name":"account","type":"address","internalType":"address"},{"name":"neededRole","type":"bytes32","internalType":"bytes32"}]},{"type":"error","name":"AddressEmptyCode","inputs":[{"name":"target","type":"address","internalType":"address"}]},{"type":"error","name":"AddressInsufficientBalance","inputs":[{"name":"account","type":"address","internalType":"address"}]},{"type":"error","name":"ArrayLengthMismatch","inputs":[]},{"type":"error","name":"AssetBalanceOutOfSync","inputs":[{"name":"asset","type":"address","internalType":"contract IERC20"},{"name":"accountingBalance","type":"uint256","internalType":"uint256"},{"name":"actualBalance","type":"uint256","internalType":"uint256"}]},{"type":"error","name":"AssetNotSupported","inputs":[{"name":"asset","type":"address","internalType":"contract IERC20"}]},{"type":"error","name":"DuplicateRequestId","inputs":[{"name":"requestId","type":"bytes32","internalType":"bytes32"}]},{"type":"error","name":"ERC20InsufficientAllowance","inputs":[{"name":"spender","type":"address","internalType":"address"},{"name":"allowance","type":"uint256","internalType":"uint256"},{"name":"needed","type":"uint256","internalType":"uint256"}]},{"type":"error","name":"ERC20InsufficientBalance","inputs":[{"name":"sender","type":"address","internalType":"address"},{"name":"balance","type":"uint256","internalType":"uint256"},{"name":"needed","type":"uint256","internalType":"uint256"}]},{"type":"error","name":"ERC20InvalidApprover","inputs":[{"name":"approver","type":"address","internalType":"address"}]},{"type":"error","name":"ERC20InvalidReceiver","inputs":[{"name":"receiver","type":"address","internalType":"address"}]},{"type":"error","name":"ERC20InvalidSender","inputs":[{"name":"sender","type":"address","internalType":"address"}]},{"type":"error","name":"ERC20InvalidSpender","inputs":[{"name":"spender","type":"address","internalType":"address"}]},{"type":"error","name":"EnforcedPause","inputs":[]},{"type":"error","name":"ExpectedPause","inputs":[]},{"type":"error","name":"FailedInnerCall","inputs":[]},{"type":"error","name":"InsufficientBalance","inputs":[{"name":"asset","type":"address","internalType":"contract IERC20"},{"name":"required","type":"uint256","internalType":"uint256"},{"name":"available","type":"uint256","internalType":"uint256"}]},{"type":"error","name":"InvalidInitialization","inputs":[]},{"type":"error","name":"InvalidWithdrawalRequest","inputs":[]},{"type":"error","name":"NotInitializing","inputs":[]},{"type":"error","name":"NotLiquidTokenManager","inputs":[{"name":"sender","type":"address","internalType":"address"}]},{"type":"error","name":"ReentrancyGuardReentrantCall","inputs":[]},{"type":"error","name":"SafeERC20FailedOperation","inputs":[{"name":"token","type":"address","internalType":"address"}]},{"type":"error","name":"UnsupportedAsset","inputs":[{"name":"asset","type":"address","internalType":"contract IERC20"}]},{"type":"error","name":"WithdrawalAlreadyFulfilled","inputs":[]},{"type":"error","name":"WithdrawalDelayNotMet","inputs":[]},{"type":"error","name":"ZeroAmount","inputs":[]},{"type":"error","name":"ZeroShares","inputs":[]}],"bytecode":{"object":"0x6080806040523460aa575f51602061281a5f395f51905f525460ff8160401c16609b576002600160401b03196001600160401b038216016049575b60405161276b90816100af8239f35b6001600160401b0319166001600160401b039081175f51602061281a5f395f51905f525581527fc7f505b2f371ae2175ee4913f4499e1f2633a7b5936321eed1cdaeb6115181d290602090a15f80603a565b63f92ee8a960e01b5f5260045ffd5b5f80fdfe60806040526004361015610011575f80fd5b5f3560e01c806301e1d114146119d357806301ffc9a71461197d57806306fdde03146118c0578063095ea7b31461184157806318160ddd1461181857806323b872dd14611740578063248a9ca31461170957806329550f97146116625780632f2ff15d14611618578063313ce567146115fd57806336568abe146115b95780633f4ba83a146114f65780634c6921111461129057806351b4005e146112695780635c975abb1461123b5780635f4c8214146111aa5780635fa137cf14610b5457806370a0823114610b105780637947720914610ad85780638456cb5914610a02578063867c1247146109ca57806391d148541461097557806395d89b411461088757806398c601aa146103f65780639e363ce114610355578063a217fddf1461033b578063a9059cbb1461030a578063d547741f146102b9578063d9fa60811461021f578063dd62ed3e146101d8578063e63ab1e91461019e5763e6fc7afe14610179575f80fd5b3461019a57602061019261018c36611a43565b90611ff1565b604051908152f35b5f80fd5b3461019a575f36600319011261019a5760206040517f65d7a28e3265b37a6474929f336521b332c1681b933f6cb9f3376673440d862a8152f35b3461019a57604036600319011261019a576101f1611a17565b6102026101fc611a2d565b91611b22565b9060018060a01b03165f52602052602060405f2054604051908152f35b3461019a57602036600319011261019a576004356001600160401b03811161019a5761024f903690600401611a69565b9061025982611f3c565b915f5b81811061027557604051806102718682611ae9565b0390f35b806102a861028e6102896001948688611f00565b611f10565b6001600160a01b03165f9081526002602052604090205490565b6102b28287611b92565b520161025c565b3461019a57604036600319011261019a576103086004356102d8611a2d565b906103036102fe825f525f5160206126b65f395f51905f52602052600160405f20015490565b6121b8565b61241d565b005b3461019a57604036600319011261019a57610330610326611a17565b6024359033612073565b602060405160018152f35b3461019a575f36600319011261019a5760206040515f8152f35b3461019a5761036336611a99565b9261036f9291926124b9565b5f546001600160a01b031633036103e3578382036103d4575f5b82811061039257005b806103a06001928787611f00565b35828060a01b036103b5610289848888611f00565b165f5260026020526103cc60405f20918254611bba565b905501610389565b63512509d360e11b5f5260045ffd5b63dc0e77ef60e01b5f523360045260245ffd5b3461019a57606036600319011261019a576004356001600160401b03811161019a57610426903690600401611a69565b6024356001600160401b03811161019a57610445903690600401611a69565b92906044356001600160a01b038116919082900361019a5760025f5160206126f65f395f51905f5254146108785760025f5160206126f65f395f51905f525561048c6124b9565b8484036103d45761049e849394611f3c565b948215935f5b8181106104ca5760015f5160206126f65f395f51905f5255604051806102718a82611ae9565b6104d861028982848a611f00565b906104e4818587611f00565b358015610869575f54604051630e70619560e41b81526001600160a01b0385811660048301819052939260209183916024918391165afa908115610773575f9161083b575b5015610828576040516370a0823160e01b815230600482015290602082602481865afa918215610773575f926107f3575b5061059690604051906323b872dd60e01b6020830152336024830152306044830152606482015260648152610590608482611b5a565b85612519565b6040516370a0823160e01b815230600482015290602082602481865afa8015610773575f906107c0575b6105cd9250038094611ff1565b9788156107b1575f82815260016020908152604091829020805487019081905591516370a0823160e01b8152306004820152919082602481875afa918215610773575f9261077e575b50116106ee576106db57866001938961063e8d9b5f5160206126965f395f51905f5254611bba565b5f5160206126965f395f51905f5255806106a3865f9d865f525f5160206126565f395f51905f5260205260405f20848154019055865f7fddf252ad1be2c89b69c2b068fc378daa952ba7f163c4a11628f55a4df523b3ef6020604051888152a3611b92565b5260405191825260208201527f8d9f8eed9603fe0e069574aaf008e644885b52d54ba86f026277ac9db1c2d08a60403392a4016104a4565b63ec442f0560e01b5f525f60045260245ffd5b50805f52600160205260405f2054604051916370a0823160e01b8352306004840152602083602481845afa928315610773575f93610740575b50632e2a642b60e01b5f5260045260245260445260645ffd5b9092506020813d821161076b575b8161075b60209383611b5a565b8101031261019a57519183610727565b3d915061074e565b6040513d5f823e3d90fd5b9091506020813d82116107a9575b8161079960209383611b5a565b8101031261019a5751908d610616565b3d915061078c565b639811e0c760e01b5f5260045ffd5b506020823d82116107eb575b816107d960209383611b5a565b8101031261019a576105cd91516105c0565b3d91506107cc565b9091506020813d8211610820575b8161080e60209383611b5a565b8101031261019a57519061059661055a565b3d9150610801565b5063ee84f40b60e01b5f5260045260245ffd5b61085c915060203d8111610862575b6108548183611b5a565b810190611f24565b8c610529565b503d61084a565b631f2a200560e01b5f5260045ffd5b633ee5aeb560e01b5f5260045ffd5b3461019a575f36600319011261019a576040515f5f5160206126765f395f51905f52546108b381611ec8565b808452906001811690811561095157506001146108e7575b610271836108db81850382611b5a565b604051918291826119ed565b5f5160206126765f395f51905f525f9081527f46a2803e59a4de4e7a4c574b1243f25977ac4c77d5a1a4a609b5394cebb4a2aa939250905b808210610937575090915081016020016108db6108cb565b91926001816020925483858801015201910190929161091f565b60ff191660208086019190915291151560051b840190910191506108db90506108cb565b3461019a57604036600319011261019a5761098e611a2d565b6004355f525f5160206126b65f395f51905f5260205260405f209060018060a01b03165f52602052602060ff60405f2054166040519015158152f35b3461019a57602036600319011261019a576001600160a01b036109eb611a17565b165f526001602052602060405f2054604051908152f35b3461019a575f36600319011261019a57335f9081527f75442b0a96088b5456bc4ed01394c96a4feec0f883c9494257d76b96ab1c9b6b602052604090205460ff1615610aa157610a506124b9565b600160ff195f5160206126d65f395f51905f525416175f5160206126d65f395f51905f52557f62e78cea01bee320cd4e420270b5ea74000d11b0c9f74754ebdbfc544b05a2586020604051338152a1005b63e2517d3f60e01b5f52336004527f65d7a28e3265b37a6474929f336521b332c1681b933f6cb9f3376673440d862a60245260445ffd5b3461019a57602036600319011261019a576001600160a01b03610af9611a17565b165f526002602052602060405f2054604051908152f35b3461019a57602036600319011261019a576001600160a01b03610b31611a17565b165f525f5160206126565f395f51905f52602052602060405f2054604051908152f35b3461019a57602036600319011261019a576004356001600160401b03811161019a57806004019060a0600319823603011261019a575f5160206127165f395f51905f525460ff8160401c1615906001600160401b038116801590816111a2575b6001149081611198575b15908161118f575b506111805767ffffffffffffffff1981166001175f5160206127165f395f51905f525581611154575b50610c22610c10610c1a610c038680611f6e565b9290966024870190611f6e565b9690923691611fbb565b943691611fbb565b91610c2b6125ac565b610c336125ac565b83516001600160401b03811161104b57610c5a5f5160206126365f395f51905f5254611ec8565b601f81116110e5575b50602094601f821160011461106a579481929394955f9261105f575b50508160011b915f199060031b1c1916175f5160206126365f395f51905f52555b82516001600160401b03811161104b57610cc75f5160206126765f395f51905f5254611ec8565b601f8111610fdc575b506020601f8211600114610f6157819293945f92610f56575b50508160011b915f199060031b1c1916175f5160206126765f395f51905f52555b610d126125ac565b610d1a6125ac565b60015f5160206126f65f395f51905f5255610d336125ac565b610d3b6125ac565b610d436125ac565b5f5160206126d65f395f51905f52805460ff1916905560648101906001600160a01b03610d6f83611f10565b1615610f005760848101906001600160a01b03610d8b83611f10565b1615610eb157604401916001600160a01b03610da684611f10565b1615610e5657610dcf91610dc4610dbf610dca93611f10565b6121fe565b50611f10565b6122ad565b506001600160a01b0390610de290611f10565b166bffffffffffffffffffffffff60a01b5f5416175f55610dff57005b68ff0000000000000000195f5160206127165f395f51905f5254165f5160206127165f395f51905f52557fc7f505b2f371ae2175ee4913f4499e1f2633a7b5936321eed1cdaeb6115181d2602060405160018152a1005b60405162461bcd60e51b815260206004820152602d60248201527f4c6971756964546f6b656e4d616e616765722063616e6e6f742062652074686560448201526c207a65726f206164647265737360981b6064820152608490fd5b60405162461bcd60e51b815260206004820152602160248201527f5061757365722063616e6e6f7420626520746865207a65726f206164647265736044820152607360f81b6064820152608490fd5b60405162461bcd60e51b815260206004820152602860248201527f496e697469616c206f776e65722063616e6e6f7420626520746865207a65726f604482015267206164647265737360c01b6064820152608490fd5b015190508480610ce9565b601f198216905f5160206126765f395f51905f525f52805f20915f5b818110610fc457509583600195969710610fac575b505050811b015f5160206126765f395f51905f5255610d0a565b01515f1960f88460031b161c19169055848080610f92565b9192602060018192868b015181550194019201610f7d565b5f5160206126765f395f51905f525f527f46a2803e59a4de4e7a4c574b1243f25977ac4c77d5a1a4a609b5394cebb4a2aa601f830160051c81019160208410611041575b601f0160051c01905b8181106110365750610cd0565b5f8155600101611029565b9091508190611020565b634e487b7160e01b5f52604160045260245ffd5b015190508580610c7f565b601f198216955f5160206126365f395f51905f525f52805f20915f5b8881106110cd575083600195969798106110b5575b505050811b015f5160206126365f395f51905f5255610ca0565b01515f1960f88460031b161c1916905585808061109b565b91926020600181928685015181550194019201611086565b5f5160206126365f395f51905f525f527f2ae08a8e29253f69ac5d979a101956ab8f8d9d7ded63fa7a83b16fc47648eab0601f830160051c8101916020841061114a575b601f0160051c01905b81811061113f5750610c63565b5f8155600101611132565b9091508190611129565b68ffffffffffffffffff191668010000000000000001175f5160206127165f395f51905f525583610bef565b63f92ee8a960e01b5f5260045ffd5b90501585610bc6565b303b159150610bbe565b839150610bb4565b3461019a57602036600319011261019a576004356001600160401b03811161019a576111da903690600401611a69565b906111e482611f3c565b915f5b8181106111fc57604051806102718682611ae9565b8061122a6112106102896001948688611f00565b6001600160a01b03165f9081526001602052604090205490565b6112348287611b92565b52016111e7565b3461019a575f36600319011261019a57602060ff5f5160206126d65f395f51905f5254166040519015158152f35b3461019a575f36600319011261019a575f546040516001600160a01b039091168152602090f35b3461019a5761129e36611a99565b916112aa9391936124b9565b5f546001600160a01b031633036103e3578281036103d4575f5b8181106112cd57005b6112db610289828486611f00565b6112e6828688611f00565b5f54604051630e70619560e41b81526001600160a01b03808516600483018190529335949260209183916024918391165afa908115610773575f916114d8575b501561082857815f52600160205260405f205483116114b157815f52600160205260405f2090815484810390811161149d579091555f5460405163a9059cbb60e01b60208201526001600160a01b0390911660248201526044808201859052815261139b91611396606483611b5a565b612519565b805f52600160205260405f2054604051906370a0823160e01b8252306004830152602082602481865afa918215610773575f9261146a575b501161141a579060019291838060a01b035f5416906040519283527f70f0c7140cab08317cd49cc744829435b3ed220274c9787906c318153ab908b160203394a4016112c4565b805f52600160205260405f2054604051916370a0823160e01b8352306004840152602083602481845afa928315610773575f936107405750632e2a642b60e01b5f5260045260245260445260645ffd5b9091506020813d8211611495575b8161148560209383611b5a565b8101031261019a575190896113d3565b3d9150611478565b634e487b7160e01b5f52601160045260245ffd5b50805f52600160205260405f20549063db42144d60e01b5f5260045260245260445260645ffd5b6114f0915060203d8111610862576108548183611b5a565b89611326565b3461019a575f36600319011261019a57335f9081527fb7db2dd08fcb62d0c9e08c51941cae53c267786a0b75803fb7960902fc8ef97d602052604090205460ff16156115a2575f5160206126d65f395f51905f525460ff8116156115935760ff19165f5160206126d65f395f51905f52557f5db9ee0a495bf2e6ff9c91a7834c1ba4fdd244a5e8aa4e537bd38aeae4b073aa6020604051338152a1005b638dfc202b60e01b5f5260045ffd5b63e2517d3f60e01b5f52336004525f60245260445ffd5b3461019a57604036600319011261019a576115d2611a2d565b336001600160a01b038216036115ee576103089060043561241d565b63334bd91960e11b5f5260045ffd5b3461019a575f36600319011261019a57602060405160128152f35b3461019a57604036600319011261019a57610308600435611637611a2d565b9061165d6102fe825f525f5160206126b65f395f51905f52602052600160405f20015490565b612379565b3461019a576116ba602061168061167836611a43565b919091612175565b5f5460405163833eaaf560e01b81526001600160a01b03938416600482015260248101929092529093849290911690829081906044820190565b03915afa8015610773575f906116d6575b602090604051908152f35b506020813d602011611701575b816116f060209383611b5a565b8101031261019a57602090516116cb565b3d91506116e3565b3461019a57602036600319011261019a5760206101926004355f525f5160206126b65f395f51905f52602052600160405f20015490565b3461019a57606036600319011261019a57611759611a17565b611761611a2d565b6044359061176e83611b22565b335f90815260209190915260409020549260018401611792575b6103309350612073565b8284106117fd576001600160a01b038116156117ea5733156117d757610330936117bb82611b22565b60018060a01b0333165f526020528360405f2091039055611788565b634a1406b160e11b5f525f60045260245ffd5b63e602df0560e01b5f525f60045260245ffd5b8284637dc7a0d960e11b5f523360045260245260445260645ffd5b3461019a575f36600319011261019a5760205f5160206126965f395f51905f5254604051908152f35b3461019a57604036600319011261019a5761185a611a17565b6024359033156117ea576001600160a01b03169081156117d75761187d33611b22565b825f526020528060405f20556040519081527f8c5be1e5ebec7d5bd14f71427d1e84f3dd0314c0f7b2291e5b200ac8c7c3b92560203392a3602060405160018152f35b3461019a575f36600319011261019a576040515f5f5160206126365f395f51905f52546118ec81611ec8565b8084529060018116908115610951575060011461191357610271836108db81850382611b5a565b5f5160206126365f395f51905f525f9081527f2ae08a8e29253f69ac5d979a101956ab8f8d9d7ded63fa7a83b16fc47648eab0939250905b808210611963575090915081016020016108db6108cb565b91926001816020925483858801015201910190929161194b565b3461019a57602036600319011261019a5760043563ffffffff60e01b811680910361019a57602090637965db0b60e01b81149081156119c2575b506040519015158152f35b6301ffc9a760e01b149050826119b7565b3461019a575f36600319011261019a576020610192611bc7565b602060409281835280519182918282860152018484015e5f828201840152601f01601f1916010190565b600435906001600160a01b038216820361019a57565b602435906001600160a01b038216820361019a57565b604090600319011261019a576004356001600160a01b038116810361019a579060243590565b9181601f8401121561019a578235916001600160401b03831161019a576020808501948460051b01011161019a57565b604060031982011261019a576004356001600160401b03811161019a5781611ac391600401611a69565b92909291602435906001600160401b03821161019a57611ae591600401611a69565b9091565b60206040818301928281528451809452019201905f5b818110611b0c5750505090565b8251845260209384019390920191600101611aff565b6001600160a01b03165f9081527f52c63247e1f47db19d5ce0460030c497f067ca4cebf71ba98eeadabe20bace016020526040902090565b90601f801991011681019081106001600160401b0382111761104b57604052565b6001600160401b03811161104b5760051b60200190565b8051821015611ba65760209160051b010190565b634e487b7160e01b5f52603260045260245ffd5b9190820180921161149d57565b5f805460405163d3c7c2c760e01b815292916001600160a01b039091169083600481845afa928315610773575f93611e25575b505f805b8451821015611e1f57611c7f60206001600160a01b03611c1e8589611b92565b5116611c516001600160a01b03611c35878b611b92565b51166001600160a01b03165f9081526001602052604090205490565b604051631cbf960d60e01b81526001600160a01b039092166004830152602482015291829081906044820190565b0381875afa908115610773575f91611dec575b50611ca090611d1592611bba565b60206001600160a01b03611cb48589611b92565b5116611ce76001600160a01b03611ccb878b611b92565b51166001600160a01b03165f9081526002602052604090205490565b604051631cbf960d60e01b81526001600160a01b039092166004830152602482015292839081906044820190565b0381875afa908115610773575f91611db7575b611d329250611bba565b6001600160a01b03611d448387611b92565b516040516374f2ca0560e01b815291166004820152602081602481875afa908115610773575f91611d85575b50611d7d90600192611bba565b910190611bfe565b90506020813d8211611daf575b81611d9f60209383611b5a565b8101031261019a57516001611d70565b3d9150611d92565b90506020823d8211611de4575b81611dd160209383611b5a565b8101031261019a57611d32915190611d28565b3d9150611dc4565b90506020813d8211611e17575b81611e0660209383611b5a565b8101031261019a5751611d15611c92565b3d9150611df9565b93505050565b9092503d805f833e611e378183611b5a565b81019060208183031261019a578051906001600160401b03821161019a57019080601f8301121561019a57815190611e6e82611b7b565b92611e7c6040519485611b5a565b82845260208085019360051b82010191821161019a57602001915b818310611ea857505050915f611bfa565b82516001600160a01b038116810361019a57815260209283019201611e97565b90600182811c92168015611ef6575b6020831014611ee257565b634e487b7160e01b5f52602260045260245ffd5b91607f1691611ed7565b9190811015611ba65760051b0190565b356001600160a01b038116810361019a5790565b9081602091031261019a5751801515810361019a5790565b90611f4682611b7b565b611f536040519182611b5a565b8281528092611f64601f1991611b7b565b0190602036910137565b903590601e198136030182121561019a57018035906001600160401b03821161019a5760200191813603831361019a57565b6001600160401b03811161104b57601f01601f191660200190565b929192611fc782611fa0565b91611fd56040519384611b5a565b82948184528183011161019a578281602093845f960137010152565b5f54604051631cbf960d60e01b81526001600160a01b039283166004820152602481019390935260209183916044918391165afa8015610773575f9061203f575b61203c91506124e0565b90565b506020813d60201161206b575b8161205960209383611b5a565b8101031261019a5761203c9051612032565b3d915061204c565b6001600160a01b0316908115612131576001600160a01b03169182156106db57815f525f5160206126565f395f51905f5260205260405f205481811061211857817fddf252ad1be2c89b69c2b068fc378daa952ba7f163c4a11628f55a4df523b3ef92602092855f525f5160206126565f395f51905f5284520360405f2055845f525f5160206126565f395f51905f52825260405f20818154019055604051908152a3565b8263391434e360e21b5f5260045260245260445260645ffd5b634b637e8f60e11b5f525f60045260245ffd5b8181029291811591840414171561149d57565b8115612161570490565b634e487b7160e01b5f52601260045260245ffd5b5f5160206126965f395f51905f525461218c611bc7565b811580156121b0575b6121ab576121a69061203c93612144565b612157565b505090565b508015612195565b5f8181525f5160206126b65f395f51905f526020908152604080832033845290915290205460ff16156121e85750565b63e2517d3f60e01b5f523360045260245260445ffd5b6001600160a01b0381165f9081527fb7db2dd08fcb62d0c9e08c51941cae53c267786a0b75803fb7960902fc8ef97d602052604090205460ff166122a8576001600160a01b03165f8181527fb7db2dd08fcb62d0c9e08c51941cae53c267786a0b75803fb7960902fc8ef97d60205260408120805460ff191660011790553391907f2f8788117e7eff1d82e926ec794901d17c78024a50270940304540a733656f0d8180a4600190565b505f90565b6001600160a01b0381165f9081527f75442b0a96088b5456bc4ed01394c96a4feec0f883c9494257d76b96ab1c9b6b602052604090205460ff166122a8576001600160a01b03165f8181527f75442b0a96088b5456bc4ed01394c96a4feec0f883c9494257d76b96ab1c9b6b60205260408120805460ff191660011790553391907f65d7a28e3265b37a6474929f336521b332c1681b933f6cb9f3376673440d862a907f2f8788117e7eff1d82e926ec794901d17c78024a50270940304540a733656f0d9080a4600190565b5f8181525f5160206126b65f395f51905f52602090815260408083206001600160a01b038616845290915290205460ff16612417575f8181525f5160206126b65f395f51905f52602090815260408083206001600160a01b0395909516808452949091528120805460ff19166001179055339291907f2f8788117e7eff1d82e926ec794901d17c78024a50270940304540a733656f0d9080a4600190565b50505f90565b5f8181525f5160206126b65f395f51905f52602090815260408083206001600160a01b038616845290915290205460ff1615612417575f8181525f5160206126b65f395f51905f52602090815260408083206001600160a01b0395909516808452949091528120805460ff19169055339291907ff6391f5c32d9c69d2a47ea670b442974b53935d1edc7fd64eb21e047a839171b9080a4600190565b60ff5f5160206126d65f395f51905f5254166124d157565b63d93c066560e01b5f5260045ffd5b5f5160206126965f395f51905f52546124f7611bc7565b9080158015612511576121ab576121a69061203c93612144565b508115612195565b5f806125619260018060a01b03169360208151910182865af13d156125a4573d9061254382611fa0565b916125516040519384611b5a565b82523d5f602084013e5b836125d7565b8051908115159182612589575b50506125775750565b635274afe760e01b5f5260045260245ffd5b61259c9250602080918301019101611f24565b155f8061256e565b60609061255b565b60ff5f5160206127165f395f51905f525460401c16156125c857565b631afcd79f60e31b5f5260045ffd5b906125fb57508051156125ec57805190602001fd5b630a12f52160e11b5f5260045ffd5b8151158061262c575b61260c575090565b639996b31560e01b5f9081526001600160a01b0391909116600452602490fd5b50803b1561260456fe52c63247e1f47db19d5ce0460030c497f067ca4cebf71ba98eeadabe20bace0352c63247e1f47db19d5ce0460030c497f067ca4cebf71ba98eeadabe20bace0052c63247e1f47db19d5ce0460030c497f067ca4cebf71ba98eeadabe20bace0452c63247e1f47db19d5ce0460030c497f067ca4cebf71ba98eeadabe20bace0202dd7bc7dec4dceedda775e58dd541e08a116c6c53815c0bd028192f7b626800cd5ed15c6e187e77e9aee88184c21f4f2182ab5827cb3b7e07fbedcd63f033009b779b17422d0df92223018b32b4d1fa46e071723d6817e2486d003becc55f00f0c57e16840df040f15088dc2f81fe391c3923bec73e23a9662efc9c229c6a00a264697066735822122038a7a05a80ad0940b0d022601f0949c3d953c7adaee3798be2b71243ef61d8d264736f6c634300081b0033f0c57e16840df040f15088dc2f81fe391c3923bec73e23a9662efc9c229c6a00","linkReferences":{}},"methodIdentifiers":{"DEFAULT_ADMIN_ROLE()":"a217fddf","PAUSER_ROLE()":"e63ab1e9","allowance(address,address)":"dd62ed3e","approve(address,uint256)":"095ea7b3","assetBalances(address)":"867c1247","balanceAssets(address[])":"5f4c8214","balanceOf(address)":"70a08231","balanceQueuedAssets(address[])":"d9fa6081","calculateAmount(address,uint256)":"29550f97","calculateShares(address,uint256)":"e6fc7afe","creditQueuedAssetBalances(address[],uint256[])":"9e363ce1","decimals()":"313ce567","deposit(address[],uint256[],address)":"98c601aa","getRoleAdmin(bytes32)":"248a9ca3","grantRole(bytes32,address)":"2f2ff15d","hasRole(bytes32,address)":"91d14854","initialize((string,string,address,address,address))":"5fa137cf","liquidTokenManager()":"51b4005e","name()":"06fdde03","pause()":"8456cb59","paused()":"5c975abb","queuedAssetBalances(address)":"79477209","renounceRole(bytes32,address)":"36568abe","revokeRole(bytes32,address)":"d547741f","supportsInterface(bytes4)":"01ffc9a7","symbol()":"95d89b41","totalAssets()":"01e1d114","totalSupply()":"18160ddd","transfer(address,uint256)":"a9059cbb","transferAssets(address[],uint256[])":"4c692111","transferFrom(address,address,uint256)":"23b872dd","unpause()":"3f4ba83a"},"id":59}