{"abi":[{"type":"constructor","inputs":[],"stateMutability":"nonpayable"},{"type":"function","name":"DEFAULT_ADMIN_ROLE","inputs":[],"outputs":[{"name":"","type":"bytes32","internalType":"bytes32"}],"stateMutability":"view"},{"type":"function","name":"STAKER_NODES_DELEGATOR_ROLE","inputs":[],"outputs":[{"name":"","type":"bytes32","internalType":"bytes32"}],"stateMutability":"view"},{"type":"function","name":"STAKER_NODE_CREATOR_ROLE","inputs":[],"outputs":[{"name":"","type":"bytes32","internalType":"bytes32"}],"stateMutability":"view"},{"type":"function","name":"createStakerNode","inputs":[],"outputs":[{"name":"","type":"address","internalType":"contract IStakerNode"}],"stateMutability":"nonpayable"},{"type":"function","name":"delegationManager","inputs":[],"outputs":[{"name":"","type":"address","internalType":"contract IDelegationManager"}],"stateMutability":"view"},{"type":"function","name":"getAllNodes","inputs":[],"outputs":[{"name":"","type":"address[]","internalType":"contract IStakerNode[]"}],"stateMutability":"view"},{"type":"function","name":"getNodeById","inputs":[{"name":"nodeId","type":"uint256","internalType":"uint256"}],"outputs":[{"name":"","type":"address","internalType":"contract IStakerNode"}],"stateMutability":"view"},{"type":"function","name":"getRoleAdmin","inputs":[{"name":"role","type":"bytes32","internalType":"bytes32"}],"outputs":[{"name":"","type":"bytes32","internalType":"bytes32"}],"stateMutability":"view"},{"type":"function","name":"getStakerNodesCount","inputs":[],"outputs":[{"name":"","type":"uint256","internalType":"uint256"}],"stateMutability":"view"},{"type":"function","name":"grantRole","inputs":[{"name":"role","type":"bytes32","internalType":"bytes32"},{"name":"account","type":"address","internalType":"address"}],"outputs":[],"stateMutability":"nonpayable"},{"type":"function","name":"hasLiquidTokenManagerRole","inputs":[{"name":"caller","type":"address","internalType":"address"}],"outputs":[{"name":"","type":"bool","internalType":"bool"}],"stateMutability":"view"},{"type":"function","name":"hasRole","inputs":[{"name":"role","type":"bytes32","internalType":"bytes32"},{"name":"account","type":"address","internalType":"address"}],"outputs":[{"name":"","type":"bool","internalType":"bool"}],"stateMutability":"view"},{"type":"function","name":"hasStakerNodeDelegatorRole","inputs":[{"name":"_address","type":"address","internalType":"address"}],"outputs":[{"name":"","type":"bool","internalType":"bool"}],"stateMutability":"view"},{"type":"function","name":"initialize","inputs":[{"name":"init","type":"tuple","internalType":"struct IStakerNodeCoordinator.Init","components":[{"name":"liquidTokenManager","type":"address","internalType":"contract ILiquidTokenManager"},{"name":"delegationManager","type":"address","internalType":"contract IDelegationManager"},{"name":"strategyManager","type":"address","internalType":"contract IStrategyManager"},{"name":"maxNodes","type":"uint256","internalType":"uint256"},{"name":"initialOwner","type":"address","internalType":"address"},{"name":"pauser","type":"address","internalType":"address"},{"name":"stakerNodeCreator","type":"address","internalType":"address"},{"name":"stakerNodesDelegator","type":"address","internalType":"address"},{"name":"stakerNodeImplementation","type":"address","internalType":"address"}]}],"outputs":[],"stateMutability":"nonpayable"},{"type":"function","name":"liquidTokenManager","inputs":[],"outputs":[{"name":"","type":"address","internalType":"contract ILiquidTokenManager"}],"stateMutability":"view"},{"type":"function","name":"maxNodes","inputs":[],"outputs":[{"name":"","type":"uint256","internalType":"uint256"}],"stateMutability":"view"},{"type":"function","name":"renounceRole","inputs":[{"name":"role","type":"bytes32","internalType":"bytes32"},{"name":"callerConfirmation","type":"address","internalType":"address"}],"outputs":[],"stateMutability":"nonpayable"},{"type":"function","name":"revokeRole","inputs":[{"name":"role","type":"bytes32","internalType":"bytes32"},{"name":"account","type":"address","internalType":"address"}],"outputs":[],"stateMutability":"nonpayable"},{"type":"function","name":"setMaxNodes","inputs":[{"name":"_maxNodes","type":"uint256","internalType":"uint256"}],"outputs":[],"stateMutability":"nonpayable"},{"type":"function","name":"strategyManager","inputs":[],"outputs":[{"name":"","type":"address","internalType":"contract IStrategyManager"}],"stateMutability":"view"},{"type":"function","name":"supportsInterface","inputs":[{"name":"interfaceId","type":"bytes4","internalType":"bytes4"}],"outputs":[{"name":"","type":"bool","internalType":"bool"}],"stateMutability":"view"},{"type":"function","name":"upgradeStakerNodeImplementation","inputs":[{"name":"_implementationContract","type":"address","internalType":"address"}],"outputs":[],"stateMutability":"nonpayable"},{"type":"function","name":"upgradeableBeacon","inputs":[],"outputs":[{"name":"","type":"address","internalType":"contract UpgradeableBeacon"}],"stateMutability":"view"},{"type":"event","name":"Initialized","inputs":[{"name":"version","type":"uint64","indexed":false,"internalType":"uint64"}],"anonymous":false},{"type":"event","name":"MaxNodesUpdated","inputs":[{"name":"oldMaxNodes","type":"uint256","indexed":false,"internalType":"uint256"},{"name":"newMaxNodes","type":"uint256","indexed":false,"internalType":"uint256"},{"name":"updater","type":"address","indexed":true,"internalType":"address"}],"anonymous":false},{"type":"event","name":"NodeCreated","inputs":[{"name":"nodeId","type":"uint256","indexed":true,"internalType":"uint256"},{"name":"node","type":"address","indexed":true,"internalType":"contract IStakerNode"},{"name":"creator","type":"address","indexed":true,"internalType":"address"}],"anonymous":false},{"type":"event","name":"NodeImplementationChanged","inputs":[{"name":"upgradeableBeaconAddress","type":"address","indexed":true,"internalType":"address"},{"name":"implementationContract","type":"address","indexed":true,"internalType":"address"},{"name":"isInitialRegistration","type":"bool","indexed":false,"internalType":"bool"}],"anonymous":false},{"type":"event","name":"NodeInitialized","inputs":[{"name":"nodeAddress","type":"address","indexed":true,"internalType":"address"},{"name":"initializedVersion","type":"uint64","indexed":false,"internalType":"uint64"},{"name":"nodeId","type":"uint256","indexed":true,"internalType":"uint256"}],"anonymous":false},{"type":"event","name":"RoleAdminChanged","inputs":[{"name":"role","type":"bytes32","indexed":true,"internalType":"bytes32"},{"name":"previousAdminRole","type":"bytes32","indexed":true,"internalType":"bytes32"},{"name":"newAdminRole","type":"bytes32","indexed":true,"internalType":"bytes32"}],"anonymous":false},{"type":"event","name":"RoleGranted","inputs":[{"name":"role","type":"bytes32","indexed":true,"internalType":"bytes32"},{"name":"account","type":"address","indexed":true,"internalType":"address"},{"name":"sender","type":"address","indexed":true,"internalType":"address"}],"anonymous":false},{"type":"event","name":"RoleRevoked","inputs":[{"name":"role","type":"bytes32","indexed":true,"internalType":"bytes32"},{"name":"account","type":"address","indexed":true,"internalType":"address"},{"name":"sender","type":"address","indexed":true,"internalType":"address"}],"anonymous":false},{"type":"error","name":"AccessControlBadConfirmation","inputs":[]},{"type":"error","name":"AccessControlUnauthorizedAccount","inputs":[{"name":"account","type":"address","internalType":"address"},{"name":"neededRole","type":"bytes32","internalType":"bytes32"}]},{"type":"error","name":"BeaconImplementationAlreadyExists","inputs":[]},{"type":"error","name":"InsufficientFunds","inputs":[]},{"type":"error","name":"InvalidInitialization","inputs":[]},{"type":"error","name":"MaxNodesLowerThanCurrent","inputs":[{"name":"currentNodeCount","type":"uint256","internalType":"uint256"},{"name":"newMaxNodes","type":"uint256","internalType":"uint256"}]},{"type":"error","name":"NoBeaconImplementationExists","inputs":[]},{"type":"error","name":"NodeAlreadyRegistered","inputs":[{"name":"nodeAddress","type":"address","internalType":"address"}]},{"type":"error","name":"NodeIdOutOfRange","inputs":[{"name":"nodeId","type":"uint256","internalType":"uint256"}]},{"type":"error","name":"NotAContract","inputs":[]},{"type":"error","name":"NotInitializing","inputs":[]},{"type":"error","name":"NotOwner","inputs":[]},{"type":"error","name":"Paused","inputs":[]},{"type":"error","name":"TooManyStakerNodes","inputs":[{"name":"maxNodes","type":"uint256","internalType":"uint256"}]},{"type":"error","name":"Unauthorized","inputs":[]},{"type":"error","name":"UnsupportedAsset","inputs":[{"name":"asset","type":"address","internalType":"contract IERC20"}]},{"type":"error","name":"ZeroAddress","inputs":[]},{"type":"error","name":"ZeroAmount","inputs":[]}],"bytecode":{"object":"0x6080806040523460aa575f516020611f645f395f51905f525460ff8160401c16609b576002600160401b03196001600160401b038216016049575b604051611eb590816100af8239f35b6001600160401b0319166001600160401b039081175f516020611f645f395f51905f525581527fc7f505b2f371ae2175ee4913f4499e1f2633a7b5936321eed1cdaeb6115181d290602090a15f80603a565b63f92ee8a960e01b5f5260045ffd5b5f80fdfe6080806040526004361015610012575f80fd5b5f905f3560e01c90816301ffc9a714610f10575080630e6a849614610ebc5780630eb4c1ee14610d7f578063179e2ea414610d0b578063248a9ca314610ccb5780632af43a4c14610b355780632f2ff15d14610aea57806336568abe14610aa557806339b70e3814610a7c57806351b4005e14610a555780637422fae814610a2d57806391d14854146109d7578063a1174e7d1461090f578063a20cee0f146108f1578063a217fddf146108d5578063a44c83941461085c578063d13a9c9114610826578063d2609520146107fd578063d547741f146107a9578063ddf0185f1461078b578063e36de37e14610750578063e94df3d2146101465763ea4d3c9b1461011b575f80fd5b346101435780600319360112610143576002546040516001600160a01b039091168152602090f35b80fd5b503461014357610120366003190112610143575f516020611e605f395f51905f525460ff8160401c16159067ffffffffffffffff811680159081610748575b600114908161073e575b159081610735575b506107265767ffffffffffffffff1981166001175f516020611e605f395f51905f5255816106fa575b5060ff5f516020611e605f395f51905f525460401c16156106eb576001600160a01b036101eb610ff1565b16156106955760a4356001600160a01b0381169081810361046b575015610646576001600160a01b0361021c611007565b16156105ea576001600160a01b0361023261101d565b161561058b576001600160a01b03610248611033565b1615610530576001600160a01b0361025e611049565b16156104d8576001600160a01b0361027461105f565b161561047e57606435801561046f5761029361028e610ff1565b61129f565b506102a461029f611007565b61133b565b506102b56102b061101d565b6113e1565b506001600160a01b036102c6611033565b84546001600160a01b03191691161783556001600160a01b036102e7611049565b166001600160601b0360a01b600154161760015560018060a01b0361030a61105f565b166001600160601b0360a01b60025416176002556003556101043560018060a01b0381169081810361046b5750801561045c576004546001600160a01b031661044d576040516103be8082019082821067ffffffffffffffff831117610439576040918391611a42833984815230602082015203019084f0801561042e5760018060a01b0316806001600160601b0360a01b60045416176004557f140b4ad1f3c5fd06d9fa846065e2a3f423fca246cf3c3318b18397b96b2c4996602060405160018152a36103d65780f35b68ff0000000000000000195f516020611e605f395f51905f5254165f516020611e605f395f51905f52557fc7f505b2f371ae2175ee4913f4499e1f2633a7b5936321eed1cdaeb6115181d2602060405160018152a180f35b6040513d85823e3d90fd5b634e487b7160e01b86526041600452602486fd5b63a81fbfef60e01b8352600483fd5b63d92e233d60e01b8352600483fd5b8380fd5b631f2a200560e01b8352600483fd5b60405162461bcd60e51b815260206004820152602c60248201527f44656c65676174696f6e4d616e616765722063616e6e6f74206265207468652060448201526b7a65726f206164647265737360a01b6064820152608490fd5b60405162461bcd60e51b815260206004820152602a60248201527f53747261746567794d616e616765722063616e6e6f7420626520746865207a65604482015269726f206164647265737360b01b6064820152608490fd5b60405162461bcd60e51b815260206004820152602d60248201527f4c6971756964546f6b656e4d616e616765722063616e6e6f742062652074686560448201526c207a65726f206164647265737360981b6064820152608490fd5b60405162461bcd60e51b815260206004820152603160248201527f5374616b6572206e6f6465732064656c656761746f722063616e6e6f7420626560448201527020746865207a65726f206164647265737360781b6064820152608490fd5b60405162461bcd60e51b815260206004820152602e60248201527f5374616b6572206e6f64652063726561746f722063616e6e6f7420626520746860448201526d65207a65726f206164647265737360901b6064820152608490fd5b60405162461bcd60e51b815260206004820152602160248201527f5061757365722063616e6e6f7420626520746865207a65726f206164647265736044820152607360f81b6064820152608490fd5b60405162461bcd60e51b815260206004820152602860248201527f496e697469616c206f776e65722063616e6e6f7420626520746865207a65726f604482015267206164647265737360c01b6064820152608490fd5b631afcd79f60e31b8252600482fd5b68ffffffffffffffffff191668010000000000000001175f516020611e605f395f51905f52555f6101c0565b63f92ee8a960e01b8352600483fd5b9050155f610197565b303b15915061018f565b839150610185565b503461014357806003193601126101435760206040517f72f02ce734d00ac0f2946de9815113b07f4178aebe5a730a79beace22eebb2738152f35b50346101435780600319360112610143576020600354604051908152f35b5034610143576040366003190112610143576107f96004356107c9610f79565b906107f46107ef825f525f516020611e205f395f51905f52602052600160405f20015490565b6110c4565b61152b565b5080f35b50346101435780600319360112610143576004546040516001600160a01b039091168152602090f35b503461014357602036600319011261014357602090610843610f63565b90546040516001600160a01b0392831691909216148152f35b503461014357602036600319011261014357600435610879611075565b6005548082106108c05750600354908060035560405191825260208201527f138ededddef5876f741e1fd6124c09fa1ffba3b4e7fc80fbd8b97137179d0f7f60403392a280f35b634f4e04ef60e11b8352600452602452604490fd5b5034610143578060031936011261014357602090604051908152f35b50346101435780600319360112610143576020600554604051908152f35b503461014357806003193601126101435760405180602060055491828152018091600585527f036b6384b5eca791c62761152d0c79bb0604c104a5fb6f4eb0703f3154bb3db090855b8181106109b8575050508261096e910383610fbb565b604051928392602084019060208552518091526040840192915b818110610996575050500390f35b82516001600160a01b0316845285945060209384019390920191600101610988565b82546001600160a01b0316845260209093019260019283019201610958565b50346101435760403660031901126101435760406109f3610f79565b9160043581525f516020611e205f395f51905f52602052209060018060a01b03165f52602052602060ff60405f2054166040519015158152f35b503461014357806003193601126101435760206040515f516020611e405f395f51905f528152f35b5034610143578060031936011261014357546040516001600160a01b039091168152602090f35b50346101435780600319360112610143576001546040516001600160a01b039091168152602090f35b503461014357604036600319011261014357610abf610f79565b336001600160a01b03821603610adb576107f99060043561152b565b63334bd91960e11b8252600482fd5b5034610143576040366003190112610143576107f9600435610b0a610f79565b90610b306107ef825f525f516020611e205f395f51905f52602052600160405f20015490565b61149a565b50346101435780600319360112610143576004546001600160a01b03168015610cbc575f516020611e405f395f51905f5282525f516020611e205f395f51905f5260209081526040808420335f908152925290205460ff1615610c98576005549060035480831015610c8657506040519061047a908183019183831067ffffffffffffffff841117610439579183916060936115c8843981526040602082015285604082015203019083f08015610c7b576001600160a01b0316610bf9828261112a565b60055468010000000000000000811015610c675792610c2084600160209601600555610f8f565b81549060031b9084821b9160018060a01b03901b191617905581604051937fd916fcc0ade95c4298c53a9a19141f9ea5b37942ccdaa3a4fbaae081884fbba1339380a48152f35b634e487b7160e01b84526041600452602484fd5b6040513d84823e3d90fd5b638544287960e01b8452600452602483fd5b63e2517d3f60e01b8252336004525f516020611e405f395f51905f52602452604482fd5b63d92e233d60e01b8252600482fd5b5034610143576020366003190112610143576020610d036004355f525f516020611e205f395f51905f52602052600160405f20015490565b604051908152f35b5034610143576020366003190112610143576040610d27610f63565b917f72f02ce734d00ac0f2946de9815113b07f4178aebe5a730a79beace22eebb27381525f516020611e205f395f51905f52602052209060018060a01b03165f52602052602060ff60405f2054166040519015158152f35b5034610e8b576020366003190112610e8b57610d99610f63565b610da1611075565b6001600160a01b038116908115610ead576004546001600160a01b0316908115610e9e573b15610e8f57803b15610e8b575f8091602460405180948193631b2ce7f360e11b83528760048401525af18015610e8057610e6b575b50600554825b818110610e4257505060018060a01b03600454167f140b4ad1f3c5fd06d9fa846065e2a3f423fca246cf3c3318b18397b96b2c49966020604051858152a380f35b80610e6581610e52600194610f8f565b858060a01b0391549060031b1c1661112a565b01610e01565b610e789192505f90610fbb565b5f905f610dfb565b6040513d5f823e3d90fd5b5f80fd5b6309ee12d560e01b5f5260045ffd5b636aef646b60e11b5f5260045ffd5b63d92e233d60e01b5f5260045ffd5b34610e8b576020366003190112610e8b57600435600554811015610efe57610ee5602091610f8f565b905460405160039290921b1c6001600160a01b03168152f35b631ca9e25f60e01b5f5260045260245ffd5b34610e8b576020366003190112610e8b576004359063ffffffff60e01b8216809203610e8b57602091637965db0b60e01b8114908115610f52575b5015158152f35b6301ffc9a760e01b14905083610f4b565b600435906001600160a01b0382168203610e8b57565b602435906001600160a01b0382168203610e8b57565b600554811015610fa75760055f5260205f2001905f90565b634e487b7160e01b5f52603260045260245ffd5b90601f8019910116810190811067ffffffffffffffff821117610fdd57604052565b634e487b7160e01b5f52604160045260245ffd5b6084356001600160a01b0381168103610e8b5790565b60c4356001600160a01b0381168103610e8b5790565b60e4356001600160a01b0381168103610e8b5790565b6004356001600160a01b0381168103610e8b5790565b6044356001600160a01b0381168103610e8b5790565b6024356001600160a01b0381168103610e8b5790565b335f9081527fb7db2dd08fcb62d0c9e08c51941cae53c267786a0b75803fb7960902fc8ef97d602052604090205460ff16156110ad57565b63e2517d3f60e01b5f52336004525f60245260445ffd5b5f8181525f516020611e205f395f51905f526020908152604080832033845290915290205460ff16156110f45750565b63e2517d3f60e01b5f523360045260245260445ffd5b90816020910312610e8b575167ffffffffffffffff81168103610e8b5790565b60405163b3c6501560e01b81526001600160a01b039190911690602081600481855afa8015610e805767ffffffffffffffff905f925f91611280575b50161561117257505050565b6040516040810181811067ffffffffffffffff821117610fdd5760405230815260208101848152833b15610e8b576040516377b3492760e01b815291516001600160a01b031660048301525160248201525f8160448183875af18015610e805761126d575b5060405163b3c6501560e01b8152602081600481865afa918215611261577f155362ec0bd70e3a844adb283a47eeec2b5c81715a060ca7992e6f3b7d80bde79260209290611234575b5067ffffffffffffffff60405191168152a3565b6112549150823d841161125a575b61124c8183610fbb565b81019061110a565b5f611220565b503d611242565b604051903d90823e3d90fd5b61127991505f90610fbb565b5f5f6111d7565b611299915060203d60201161125a5761124c8183610fbb565b5f611166565b6001600160a01b0381165f9081527fb7db2dd08fcb62d0c9e08c51941cae53c267786a0b75803fb7960902fc8ef97d602052604090205460ff16611336576001600160a01b03165f8181527fb7db2dd08fcb62d0c9e08c51941cae53c267786a0b75803fb7960902fc8ef97d60205260408120805460ff191660011790553391905f516020611e005f395f51905f528180a4600190565b505f90565b6001600160a01b0381165f9081527f0dfaf2754fd582b934acc2ed2effa0a79918ebbb65851b74fe82b910478d884a602052604090205460ff16611336576001600160a01b03165f8181527f0dfaf2754fd582b934acc2ed2effa0a79918ebbb65851b74fe82b910478d884a60205260408120805460ff191660011790553391905f516020611e405f395f51905f52905f516020611e005f395f51905f529080a4600190565b6001600160a01b0381165f9081527f0f330be3a1999d96d71713ad4045c9b86cecaabc3fe5ab000757db4dbef420b1602052604090205460ff16611336576001600160a01b03165f8181527f0f330be3a1999d96d71713ad4045c9b86cecaabc3fe5ab000757db4dbef420b160205260408120805460ff191660011790553391907f72f02ce734d00ac0f2946de9815113b07f4178aebe5a730a79beace22eebb273905f516020611e005f395f51905f529080a4600190565b5f8181525f516020611e205f395f51905f52602090815260408083206001600160a01b038616845290915290205460ff16611525575f8181525f516020611e205f395f51905f52602090815260408083206001600160a01b0395909516808452949091528120805460ff19166001179055339291905f516020611e005f395f51905f529080a4600190565b50505f90565b5f8181525f516020611e205f395f51905f52602090815260408083206001600160a01b038616845290915290205460ff1615611525575f8181525f516020611e205f395f51905f52602090815260408083206001600160a01b0395909516808452949091528120805460ff19169055339291907ff6391f5c32d9c69d2a47ea670b442974b53935d1edc7fd64eb21e047a839171b9080a460019056fe60a08060405261047a80380380916100178285610292565b833981016040828203126101eb5761002e826102c9565b602083015190926001600160401b0382116101eb57019080601f830112156101eb57815161005b816102dd565b926100696040519485610292565b8184526020840192602083830101116101eb57815f926020809301855e84010152823b15610274577fa3f0ad74e5423aebfd80d3ef4346578335a9a72aeaee59ff6cb3582b35133d5080546001600160a01b0319166001600160a01b038516908117909155604051635c60da1b60e01b8152909190602081600481865afa9081156101f7575f9161023a575b50803b1561021a5750817f1cf3b03a6cf19fa2baba4df148e9dcabedea7f8a5c07840e207e5c089be95d3e5f80a282511561020257602060049260405193848092635c60da1b60e01b82525afa9182156101f7575f926101ae575b505f809161018a945190845af43d156101a6573d9161016e836102dd565b9261017c6040519485610292565b83523d5f602085013e6102f8565b505b608052604051610123908161035782396080518160180152f35b6060916102f8565b9291506020833d6020116101ef575b816101ca60209383610292565b810103126101eb575f80916101e161018a956102c9565b9394509150610150565b5f80fd5b3d91506101bd565b6040513d5f823e3d90fd5b505050341561018c5763b398979f60e01b5f5260045ffd5b634c9c8ce360e01b5f9081526001600160a01b0391909116600452602490fd5b90506020813d60201161026c575b8161025560209383610292565b810103126101eb57610266906102c9565b5f6100f5565b3d9150610248565b631933b43b60e21b5f9081526001600160a01b038416600452602490fd5b601f909101601f19168101906001600160401b038211908210176102b557604052565b634e487b7160e01b5f52604160045260245ffd5b51906001600160a01b03821682036101eb57565b6001600160401b0381116102b557601f01601f191660200190565b9061031c575080511561030d57805190602001fd5b630a12f52160e11b5f5260045ffd5b8151158061034d575b61032d575090565b639996b31560e01b5f9081526001600160a01b0391909116600452602490fd5b50803b1561032556fe60806040819052635c60da1b60e01b81526020906004817f00000000000000000000000000000000000000000000000000000000000000006001600160a01b03165afa801560a2575f901560d1575060203d602011609c575b601f19601f820116608001906080821067ffffffffffffffff83111760885760849160405260800160ad565b60d1565b634e487b7160e01b5f52604160045260245ffd5b503d6058565b6040513d5f823e3d90fd5b602090607f19011260cd576080516001600160a01b038116810360cd5790565b5f80fd5b5f8091368280378136915af43d5f803e1560e9573d5ff35b3d5ffdfea2646970667358221220b8434939261be56197324e7f12a39d2a50cb88821ee005051fa8bf05f1939eb464736f6c634300081b003360803461013457601f6103be38819003918201601f19168301916001600160401b03831184841017610138578084926040948552833981010312610134576100468161014c565b906001600160a01b039061005c9060200161014c565b16908115610121575f80546001600160a01b031981168417825560405193916001600160a01b03909116907f8be0079c531659141344cd1fd0a4f28419497f9722a3daafe3b4186f6b6457e09080a3803b1561010157600180546001600160a01b0319166001600160a01b039290921691821790557fbc7cd75a20ee27fd9adebab32041f755214dbc6bffa90cc0225b39da2e5c2d3b5f80a261025d90816101618239f35b63211eb15960e21b5f9081526001600160a01b0391909116600452602490fd5b631e4fbdf760e01b5f525f60045260245ffd5b5f80fd5b634e487b7160e01b5f52604160045260245ffd5b51906001600160a01b03821682036101345756fe60806040526004361015610011575f80fd5b5f3560e01c80633659cfe6146101835780635c60da1b1461015b578063715018a6146101045780638da5cb5b146100dd5763f2fde38b14610050575f80fd5b346100d95760203660031901126100d9576004356001600160a01b038116908190036100d95761007e610201565b80156100c6575f80546001600160a01b03198116831782556001600160a01b0316907f8be0079c531659141344cd1fd0a4f28419497f9722a3daafe3b4186f6b6457e09080a3005b631e4fbdf760e01b5f525f60045260245ffd5b5f80fd5b346100d9575f3660031901126100d9575f546040516001600160a01b039091168152602090f35b346100d9575f3660031901126100d95761011c610201565b5f80546001600160a01b0319811682556001600160a01b03167f8be0079c531659141344cd1fd0a4f28419497f9722a3daafe3b4186f6b6457e08280a3005b346100d9575f3660031901126100d9576001546040516001600160a01b039091168152602090f35b346100d95760203660031901126100d9576004356001600160a01b038116908181036100d9576101b1610201565b3b156101ef57600180546001600160a01b031916821790557fbc7cd75a20ee27fd9adebab32041f755214dbc6bffa90cc0225b39da2e5c2d3b5f80a2005b63211eb15960e21b5f5260045260245ffd5b5f546001600160a01b0316330361021457565b63118cdaa760e01b5f523360045260245ffdfea2646970667358221220e0a442271683503c6a894cf42a1d8883580bbfa4c1a49ba92c209aaffee487c364736f6c634300081b00332f8788117e7eff1d82e926ec794901d17c78024a50270940304540a733656f0d02dd7bc7dec4dceedda775e58dd541e08a116c6c53815c0bd028192f7b626800ca8597c3f651c5bba96d257eb3d00db932d7fbc94282720fae982ea2b1ea1636f0c57e16840df040f15088dc2f81fe391c3923bec73e23a9662efc9c229c6a00a2646970667358221220bb6130da9151acb6ae6eaccae65b0b6edda4fe84a0c3bf32aa7634bc482a9a2464736f6c634300081b0033f0c57e16840df040f15088dc2f81fe391c3923bec73e23a9662efc9c229c6a00","linkReferences":{}},"methodIdentifiers":{"DEFAULT_ADMIN_ROLE()":"a217fddf","STAKER_NODES_DELEGATOR_ROLE()":"e36de37e","STAKER_NODE_CREATOR_ROLE()":"7422fae8","createStakerNode()":"2af43a4c","delegationManager()":"ea4d3c9b","getAllNodes()":"a1174e7d","getNodeById(uint256)":"0e6a8496","getRoleAdmin(bytes32)":"248a9ca3","getStakerNodesCount()":"a20cee0f","grantRole(bytes32,address)":"2f2ff15d","hasLiquidTokenManagerRole(address)":"d13a9c91","hasRole(bytes32,address)":"91d14854","hasStakerNodeDelegatorRole(address)":"179e2ea4","initialize((address,address,address,uint256,address,address,address,address,address))":"e94df3d2","liquidTokenManager()":"51b4005e","maxNodes()":"ddf0185f","renounceRole(bytes32,address)":"36568abe","revokeRole(bytes32,address)":"d547741f","setMaxNodes(uint256)":"a44c8394","strategyManager()":"39b70e38","supportsInterface(bytes4)":"01ffc9a7","upgradeStakerNodeImplementation(address)":"0eb4c1ee","upgradeableBeacon()":"d2609520"},"id":73}