{"abi":[{"type":"constructor","inputs":[],"stateMutability":"nonpayable"},{"type":"function","name":"LIQUID_TOKEN_MANAGER_ROLE","inputs":[],"outputs":[{"name":"","type":"bytes32","internalType":"bytes32"}],"stateMutability":"view"},{"type":"function","name":"STAKER_NODES_DELEGATOR_ROLE","inputs":[],"outputs":[{"name":"","type":"bytes32","internalType":"bytes32"}],"stateMutability":"view"},{"type":"function","name":"coordinator","inputs":[],"outputs":[{"name":"","type":"address","internalType":"contract IStakerNodeCoordinator"}],"stateMutability":"view"},{"type":"function","name":"delegate","inputs":[{"name":"operator","type":"address","internalType":"address"},{"name":"signature","type":"tuple","internalType":"struct ISignatureUtilsMixinTypes.SignatureWithExpiry","components":[{"name":"signature","type":"bytes","internalType":"bytes"},{"name":"expiry","type":"uint256","internalType":"uint256"}]},{"name":"approverSalt","type":"bytes32","internalType":"bytes32"}],"outputs":[],"stateMutability":"nonpayable"},{"type":"function","name":"depositAssets","inputs":[{"name":"assets","type":"address[]","internalType":"contract IERC20[]"},{"name":"amounts","type":"uint256[]","internalType":"uint256[]"},{"name":"strategies","type":"address[]","internalType":"contract IStrategy[]"}],"outputs":[],"stateMutability":"nonpayable"},{"type":"function","name":"getId","inputs":[],"outputs":[{"name":"","type":"uint256","internalType":"uint256"}],"stateMutability":"view"},{"type":"function","name":"getInitializedVersion","inputs":[],"outputs":[{"name":"","type":"uint64","internalType":"uint64"}],"stateMutability":"view"},{"type":"function","name":"getOperatorDelegation","inputs":[],"outputs":[{"name":"","type":"address","internalType":"address"}],"stateMutability":"view"},{"type":"function","name":"id","inputs":[],"outputs":[{"name":"","type":"uint256","internalType":"uint256"}],"stateMutability":"view"},{"type":"function","name":"implementation","inputs":[],"outputs":[{"name":"","type":"address","internalType":"address"}],"stateMutability":"view"},{"type":"function","name":"initialize","inputs":[{"name":"init","type":"tuple","internalType":"struct IStakerNode.Init","components":[{"name":"coordinator","type":"address","internalType":"contract IStakerNodeCoordinator"},{"name":"id","type":"uint256","internalType":"uint256"}]}],"outputs":[],"stateMutability":"nonpayable"},{"type":"function","name":"operatorDelegation","inputs":[],"outputs":[{"name":"","type":"address","internalType":"address"}],"stateMutability":"view"},{"type":"event","name":"AssetDepositedToStrategy","inputs":[{"name":"asset","type":"address","indexed":true,"internalType":"contract IERC20"},{"name":"strategy","type":"address","indexed":true,"internalType":"contract IStrategy"},{"name":"amount","type":"uint256","indexed":false,"internalType":"uint256"},{"name":"shares","type":"uint256","indexed":false,"internalType":"uint256"}],"anonymous":false},{"type":"event","name":"DelegatedToOperator","inputs":[{"name":"operator","type":"address","indexed":false,"internalType":"address"}],"anonymous":false},{"type":"event","name":"Initialized","inputs":[{"name":"version","type":"uint64","indexed":false,"internalType":"uint64"}],"anonymous":false},{"type":"event","name":"UndelegatedFromOperator","inputs":[{"name":"operator","type":"address","indexed":false,"internalType":"address"}],"anonymous":false},{"type":"error","name":"AddressEmptyCode","inputs":[{"name":"target","type":"address","internalType":"address"}]},{"type":"error","name":"AddressInsufficientBalance","inputs":[{"name":"account","type":"address","internalType":"address"}]},{"type":"error","name":"FailedInnerCall","inputs":[]},{"type":"error","name":"InvalidInitialization","inputs":[]},{"type":"error","name":"NodeIsDelegated","inputs":[{"name":"operatorDelegation","type":"address","internalType":"address"}]},{"type":"error","name":"NodeIsNotDelegated","inputs":[]},{"type":"error","name":"NotInitializing","inputs":[]},{"type":"error","name":"NotLiquidTokenManager","inputs":[]},{"type":"error","name":"NotStakerNodeDelegator","inputs":[]},{"type":"error","name":"NotStakerNodeOperator","inputs":[]},{"type":"error","name":"ReentrancyGuardReentrantCall","inputs":[]},{"type":"error","name":"SafeERC20FailedOperation","inputs":[{"name":"token","type":"address","internalType":"address"}]},{"type":"error","name":"UnauthorizedAccess","inputs":[{"name":"caller","type":"address","internalType":"address"},{"name":"requiredRole","type":"bytes32","internalType":"bytes32"}]},{"type":"error","name":"ZeroAddress","inputs":[]}],"bytecode":{"object":"0x6080806040523460aa575f516020610e3e5f395f51905f525460ff8160401c16609b576002600160401b03196001600160401b038216016049575b604051610d8f90816100af8239f35b6001600160401b0319166001600160401b039081175f516020610e3e5f395f51905f525581527fc7f505b2f371ae2175ee4913f4499e1f2633a7b5936321eed1cdaeb6115181d290602090a15f80603a565b63f92ee8a960e01b5f5260045ffd5b5f80fdfe6080806040526004361015610012575f80fd5b5f905f3560e01c9081630a00909714610af95750806326ed8a1614610ad15780635c5da54514610ad15780635c60da1b14610a175780635d1ca631146109fa5780635d21e3da1461072957806377b34927146105665780639da9dbc01461052b578063af640d0f1461050d578063b3c65015146104d9578063df93ee1a146100df5763e36de37e146100a2575f80fd5b346100dc57806003193601126100dc5760206040517f72f02ce734d00ac0f2946de9815113b07f4178aebe5a730a79beace22eebb2738152f35b80fd5b50346100dc5760603660031901126100dc5760043567ffffffffffffffff81116104d557610111903690600401610b89565b9060243567ffffffffffffffff81116103fa57610132903690600401610b89565b60443567ffffffffffffffff81116103f657610152903690600401610b89565b909460025f516020610d1a5f395f51905f5254146104c65760025f516020610d1a5f395f51905f5255865460405163d13a9c9160e01b815233600482015290602090829060249082906001600160a01b03165afa908115610446578891610497575b5015610460576002546001600160a01b031615610451578654604051630736e1c760e31b81529493929190602090869060049082906001600160a01b03165afa9485156104465788956103fe575b5087805b828110610222575060015f516020610d1a5f395f51905f525580f35b61022d81848a610bd2565b356001600160a01b0381168082036103fa578a6102578488610250828c8e610bd2565b3593610bd2565b356001600160a01b03811693908490036103f65760209060018060a01b038c1690604051888085830163095ea7b360e01b8152856024850152876044850152604484526102a5606485610b4b565b835190828a5af16102b4610c21565b816103c9575b50806103bf575b1561037c575b50506064604051809881936373d0285560e11b83528860048401528760248401528660448401525af1948515610371578d95610339575b5060407f53503310980aaa28261232d7397bfa036a2b2c3f46963314b69d528b8177603f9160019682519182526020820152a3018890610206565b94506020853d8211610369575b8161035360209383610b4b565b810103126103655793519360406102fe565b8c80fd5b3d9150610346565b6040513d8f823e3d90fd5b6103b8916103b360405163095ea7b360e01b878201528560248201528b6044820152604481526103ad606482610b4b565b82610c50565b610c50565b5f806102c7565b50853b15156102c1565b80518015925082156103de575b50505f6102ba565b6103ef925081018601908601610bba565b5f806103d6565b8580fd5b8380fd5b9094506020813d60201161043e575b8161041a60209383610b4b565b8101031261043a57516001600160a01b038116810361043a57935f610202565b8780fd5b3d915061040d565b6040513d8a823e3d90fd5b6354dd357760e11b8752600487fd5b630dcd852560e31b8752336004527f62a7fff3a7a45a88771218ee3d99ccb69636e5758d69282e6a4e9d4561f312ce602452604487fd5b6104b9915060203d6020116104bf575b6104b18183610b4b565b810190610bba565b5f6101b4565b503d6104a7565b633ee5aeb560e01b8752600487fd5b5080fd5b50346100dc57806003193601126100dc57602067ffffffffffffffff5f516020610d3a5f395f51905f525416604051908152f35b50346100dc57806003193601126100dc576020600154604051908152f35b50346100dc57806003193601126100dc5760206040517f62a7fff3a7a45a88771218ee3d99ccb69636e5758d69282e6a4e9d4561f312ce8152f35b50346100dc5760403660031901126100dc5760405161058481610b1b565b6004356001600160a01b038116908181036103fa578252602082019060243582521561071a575f516020610d3a5f395f51905f52549160ff8360401c16159267ffffffffffffffff811680159081610712575b6001149081610708575b1590816106ff575b506106f05767ffffffffffffffff1981166001175f516020610d3a5f395f51905f5255836106c4575b5061061b610bf6565b610623610bf6565b60015f516020610d1a5f395f51905f525560018060a01b039051166001600160601b0360a01b845416178355516001556001600160601b0360a01b6002541660025561066c5780f35b68ff0000000000000000195f516020610d3a5f395f51905f5254165f516020610d3a5f395f51905f52557fc7f505b2f371ae2175ee4913f4499e1f2633a7b5936321eed1cdaeb6115181d2602060405160018152a180f35b68ffffffffffffffffff191668010000000000000001175f516020610d3a5f395f51905f52555f610612565b63f92ee8a960e01b8552600485fd5b9050155f6105e9565b303b1591506105e1565b8591506105d7565b63d92e233d60e01b8352600483fd5b503461094c57606036600319011261094c576004356001600160a01b0381169081900361094c5760243567ffffffffffffffff811161094c576040600319823603011261094c5760405161077c81610b1b565b816004013567ffffffffffffffff811161094c5782013660238201121561094c5760048101356107ab81610b6d565b916107b96040519384610b4b565b818352366024828401011161094c57815f926024602093018386013783010152815260249182013560208083019182525f546040516305e78ba960e21b81523360048201529294839182906001600160a01b03165afa908115610941575f916109db575b50156109a4576002546001600160a01b03168061099257505f5460405163ea4d3c9b60e01b815290602090829060049082906001600160a01b03165afa908115610941575f91610950575b506001600160a01b031691823b1561094c576020925f928360c460405180978196829563eea9064b60e01b84528b600485015260606024850152516040606485015280519283918260a4870152018585015e848483850101525160848301526044356044830152601f801991011681010301925af180156109415761092b575b506020817f05db15aa3150c099f7a7054dcfc1e6a5551dab9cbf2310be9630f84b4c4f1887926001600160601b0360a01b6002541617600255604051908152a180f35b6109389192505f90610b4b565b5f9060206108e8565b6040513d5f823e3d90fd5b5f80fd5b90506020813d60201161098a575b8161096b60209383610b4b565b8101031261094c57516001600160a01b038116810361094c575f610868565b3d915061095e565b63548e264d60e01b5f5260045260245ffd5b630dcd852560e31b5f52336004527f72f02ce734d00ac0f2946de9815113b07f4178aebe5a730a79beace22eebb27360245260445ffd5b6109f4915060203d6020116104bf576104b18183610b4b565b5f61081d565b3461094c575f36600319011261094c576020600154604051908152f35b3461094c575f36600319011261094c577fa3f0ad74e5423aebfd80d3ef4346578335a9a72aeaee59ff6cb3582b35133d5054604051635c60da1b60e01b815290602090829060049082906001600160a01b03165afa8015610941575f90610a8e575b6040516001600160a01b039091168152602090f35b506020813d602011610ac9575b81610aa860209383610b4b565b8101031261094c57516001600160a01b038116810361094c57602090610a79565b3d9150610a9b565b3461094c575f36600319011261094c576002546040516001600160a01b039091168152602090f35b3461094c575f36600319011261094c575f546001600160a01b03168152602090f35b6040810190811067ffffffffffffffff821117610b3757604052565b634e487b7160e01b5f52604160045260245ffd5b90601f8019910116810190811067ffffffffffffffff821117610b3757604052565b67ffffffffffffffff8111610b3757601f01601f191660200190565b9181601f8401121561094c5782359167ffffffffffffffff831161094c576020808501948460051b01011161094c57565b9081602091031261094c5751801515810361094c5790565b9190811015610be25760051b0190565b634e487b7160e01b5f52603260045260245ffd5b60ff5f516020610d3a5f395f51905f525460401c1615610c1257565b631afcd79f60e31b5f5260045ffd5b3d15610c4b573d90610c3282610b6d565b91610c406040519384610b4b565b82523d5f602084013e565b606090565b5f80610c789260018060a01b03169360208151910182865af1610c71610c21565b9083610cbb565b8051908115159182610ca0575b5050610c8e5750565b635274afe760e01b5f5260045260245ffd5b610cb39250602080918301019101610bba565b155f80610c85565b90610cdf5750805115610cd057805190602001fd5b630a12f52160e11b5f5260045ffd5b81511580610d10575b610cf0575090565b639996b31560e01b5f9081526001600160a01b0391909116600452602490fd5b50803b15610ce856fe9b779b17422d0df92223018b32b4d1fa46e071723d6817e2486d003becc55f00f0c57e16840df040f15088dc2f81fe391c3923bec73e23a9662efc9c229c6a00a2646970667358221220ed54cc5bd7aed9d54a541468410d0a273554e7e18b4681acddf4eb4cadebe83064736f6c634300081b0033f0c57e16840df040f15088dc2f81fe391c3923bec73e23a9662efc9c229c6a00","linkReferences":{}},"methodIdentifiers":{"LIQUID_TOKEN_MANAGER_ROLE()":"9da9dbc0","STAKER_NODES_DELEGATOR_ROLE()":"e36de37e","coordinator()":"0a009097","delegate(address,(bytes,uint256),bytes32)":"5d21e3da","depositAssets(address[],uint256[],address[])":"df93ee1a","getId()":"5d1ca631","getInitializedVersion()":"b3c65015","getOperatorDelegation()":"26ed8a16","id()":"af640d0f","implementation()":"5c60da1b","initialize((address,uint256))":"77b34927","operatorDelegation()":"5c5da545"},"id":72}